:020000040800F2
:10000000000002207D1E0008211C0008271C00089B
:100010002D1C0008331C0008391C000800000000DB
:100020000000000000000000000000003F1C00086D
:100030004D1C0008000000005B1C0008691C000843
:10004000CD1E0008CD1E0008CD1E0008CD1E0008E4
:10005000CD1E0008CD1E0008CD1E0008CD1E0008D4
:10006000CD1E0008CD1E0008CD1E0008CD1E0008C4
:10007000CD1E0008CD1E0008CD1E0008CD1E0008B4
:10008000CD1E0008CD1E0008CD1E0008CD1E0008A4
:10009000CD1E0008CD1E0008CD1E0008CD1E000894
:1000A000CD1E0008CD1E0008CD1E0008CD1E000884
:1000B000751C0008CD1E0008891C0008CD1E000814
:1000C000CD1E0008CD1E0008CD1E0008CD1E000864
:1000D000CD1E0008CD1E0008CD1E0008CD1E000854
:1000E000CD1E0008CD1E0008CD1E0008CD1E000844
:1000F000CD1E0008CD1E0008CD1E0008CD1E000834
:10010000CD1E0008CD1E0008CD1E0008CD1E000823
:10011000CD1E0008CD1E0008CD1E0008CD1E000813
:10012000CD1E0008CD1E0008CD1E0008CD1E000803
:10013000CD1E0008CD1E0008CD1E0008CD1E0008F3
:10014000CD1E0008CD1E0008CD1E0008CD1E0008E3
:10015000CD1E0008CD1E0008CD1E0008CD1E0008D3
:10016000CD1E0008CD1E0008CD1E0008CD1E0008C3
:10017000CD1E0008CD1E0008CD1E000800000000A6
:08018000CD1E0008CD1E000891
:1001880010B5054C237833B9044B13B10448AFF3C9
:1001980000800123237010BD14000020000000001F
:1001A8002845000808B5034B1BB103490348AFF3C2
:1001B800008008BD00000000180000202845000845
:1001C800034613F8012B002AFBD1181A013870478F
:1001D80053B94AB9002908BF00281CBF4FF0FF31A6
:1001E8004FF0FF3000F070B9ADF1080C6DE904CEA6
:1001F80000F006F8DDF804E0DDE9022304B07047FA
:100208002DE9F047089E0D4604460F46002B4AD1BB
:100218008A42944665D9B2FA82F343B102FA03FCE2
:10022800C3F120029F4020FA02F217439C404FEA94
:100238001C4E1FFA8CF5B7FBFEF1220C0EFB117752
:1002480042EA074201FB05F090420AD91CEB020280
:1002580001F1FF3780F01C81904240F21981023988
:100268006244121AA4B2B2FBFEF00EFB102244EA5A
:10027800024400FB05F5A5420AD91CEB040400F171
:10028800FF3280F00781A54240F2048164440238BD
:1002980040EA0140641B00211EB1DC400023C6E98E
:1002A8000043BDE8F0878B4208D9002E00F0ED80AE
:1002B8000021C6E900050846BDE8F087B3FA83F1D6
:1002C800002949D1AB4202D3824200F2F880841A55
:1002D80065EB030201201746002EE2D0C6E900476D
:1002E800DFE702B9FFDEB2FA82F3002B40F090801C
:1002F8008A1A4FEA1C471FFA8CFE0121B2FBF7F558
:1003080007FB1520220C42EA00420EFB05F0904242
:1003180008D91CEB020205F1FF3802D2904200F224
:10032800CB804546121AA4B2B2FBF7F007FB1022A5
:1003380044EA02440EFB00FEA64508D91CEB04045F
:1003480000F1FF3202D2A64500F2BB801046A4EBB2
:100358000E0440EA05409FE7C1F120078B4022FACE
:1003680007FC4CEA030C05FA01F420FA07F3FD40F8
:100378004FEA1C492343B5FBF9F81FFA8CFE09FB29
:1003880018551C0C44EA054408FB0EF5A54202FA70
:1003980001F200FA01F00BD91CEB040408F1FF3A52
:1003A80080F08880A54240F28580A8F10208644464
:1003B800641B9DB2B4FBF9F309FB134445EA0444FA
:1003C80003FB0EFEA64508D91CEB040403F1FF3518
:1003D8006CD2A6456AD9023B644443EA0843A3FBAE
:1003E8000295A4EB0E04AC42C846AE4656D353D091
:1003F80056B1B0EB080264EB0E0404FA07F7CA40E2
:10040800CC401743C6E9007418460021BDE8F087C0
:10041800C3F1200102FA03FC20FA01F225FA01F1E6
:100428009D402A434FEA1C471FFA8CFEB1FBF7F0A8
:1004380007FB1015110C41EA054100FB0EF58D4232
:1004480004FA03F408D91CEB010100F1FF382FD29C
:100458008D422DD902386144491B92B2B1FBF7F5A0
:1004680007FB151142EA014205FB0EF1914208D93A
:100478001CEB020205F1FF3816D2914214D9023D55
:100488006244521A45EA004138E73146304608E7E7
:100498003946E6E61046FBE64845A9D2B9EB02081C
:1004A80065EB0C0E013BA3E74546EAE72B4694E7CC
:1004B8004046D1E7D0467BE7023D624432E7084632
:1004C8000AE76444023842E7704700BF80B500AFCE
:1004D80001220821024802F03BF800BF80BD00BF9E
:1004E800000C024080B584B000AF002208212F48DC
:1004F80002F02EF8012208212C4802F029F80A23DC
:1005080002222B492B4802F066FE0023FB604FF4C1
:1005180000437B8100237B603FE07B68002B06DB88
:100528007B68032B03DC7B680433FB6018E07B6883
:10053800032B07DD7B68072B04DC7B68C3F107030B
:10054800FB600DE07B68072B06DD7B680B2B03DC6B
:100558007B680433FB6003E07B68C3F11703FB602F
:10056800134B1A887B8913409BB2002B05D0124A83
:10057800FB68002122F8131009E00F4AFB6832F8E3
:100588001330013399B20C4AFB6822F813107B89A7
:100598005B087B817B6801337B607B680F2BBCDD4C
:1005A80000BF00BF1037BD4680BD00BF000C024031
:1005B80050000020C00000203000002080B58EB020
:1005C80000AF07F11C0300221A605A609A60DA60D3
:1005D8001A615A619A613B4600221A605A609A6011
:1005E800DA601A615A619A612F4B4FF020421A6003
:1005F8002D4B2E4A5A602C4B00229A602A4B00221F
:10060800DA60294B00221A61274B10225A61264BC7
:1006180000229A61244B0022DA61234B00221A62DD
:10062800214B00225A62204B4FF480529A621E4B93
:100638000022DA621C4B4FF480421A631A4B0022E4
:100648005A63194B00229A63174B00225A640F23EE
:10065800FB610F233B623C237B620023BB621023B8
:10066800FB6211233B6300237B6309233B600F2359
:100678007B600823BB600023FB6010233B611123D0
:100688007B610023BB613A4607F11C031946064803
:1006980003F084F90346002B01D001F09FF900BF55
:1006A8003837BD4680BD00BF54000020040100A0BB
:1006B80080B586B000AF3B1D00221A605A609A6070
:1006C800DA601A611C4B1B68002B31D11A4B0122CE
:1006D8001A6000233B60194B9B6B184A43F00103D7
:1006E8009363164B9B6B03F001033B603B684FF62B
:1006F80088737B600223BB600023FB6003233B619C
:100708000C237B613B1D19460D4801F085FD4CF219
:10071800B3737B600223BB600023FB6003233B6150
:100728000C237B613B1D1946064801F075FD00E06E
:1007380000BF1837BD4680BDA40000200038024025
:1007480000100240000C024080B582B000AF786013
:10075800FFF7AEFF00BF0837BD4680BD80B58CB03F
:1007680000AF07F11C0300221A605A609A60DA6031
:100778001A610023BB61634B1B6B624A43F0100391
:100788001363604B1B6B03F01003BB61BB69002351
:100798007B615C4B1B6B5B4A43F004031363594B4F
:1007A8001B6B03F004037B617B6900233B61554BA2
:1007B8001B6B544A43F080031363524B1B6B03F0CB
:1007C80080033B613B690023FB604E4B1B6B4D4A2A
:1007D80043F0080313634B4B1B6B03F00803FB60E8
:1007E800FB680023BB60474B1B6B464A43F0400342
:1007F8001363444B1B6B03F04003BB60BB680023CF
:100808007B60404B1B6B3F4A43F0010313633D4B36
:100818001B6B03F001037B607B6800233B60394B53
:100828001B6B384A43F002031363364B1B6B03F010
:1008380002033B603B6800227021334801F088FEC8
:1008480000224FF40051314801F082FE002240217D
:100858002F4801F07DFE00224FF480712D4801F0F1
:1008680077FE002208212C4801F072FE7023FB61FC
:1008780001233B6200237B620023BB6207F11C0358
:100888001946214801F0C8FC4FF40053FB610123CD
:100898003B6200237B620023BB6207F11C031946FD
:1008A8001A4801F0B9FC4023FB6101233B62002395
:1008B8007B620023BB6207F11C031946144801F050
:1008C800ABFC4FF48073FB6101233B6200237B6226
:1008D8000023BB6207F11C0319460E4801F09CFC7B
:1008E8000823FB6101233B6200237B620023BB6278
:1008F80007F11C031946084801F08EFC00BF303789
:10090800BD4680BD00380240001002400008024089
:100918000018024000000240000C024080B483B07E
:1009280000AF0346FB80044AFB88138000BF0C37E6
:10093800BD465DF8047B7047FEFF0F6080B483B04E
:1009480000AF0346FB80044AFB88538000BF0C3786
:10095800BD465DF8047B7047FEFF0F6080B483B02E
:1009680000AF064B5B889BB2FB80FB889BB21846A6
:100978000C37BD465DF8047B704700BFFEFF0F6073
:1009880090B583B000AF0446084611461A46234680
:10099800FB800346BB800B467B8013463B802A20A6
:1009A800FFF7BCFFFB881B0A9BB21846FFF7C6FF80
:1009B800FB88DBB29BB21846FFF7C0FF7B881B0A97
:1009C8009BB21846FFF7BAFF7B88DBB29BB218468A
:1009D800FFF7B4FF2B20FFF7A1FFBB881B0A9BB2D0
:1009E8001846FFF7ABFFBB88DBB29BB21846FFF790
:1009F800A5FF3B881B0A9BB21846FFF79FFF3B8861
:100A0800DBB29BB21846FFF799FF2C20FFF786FF51
:100A180000BF0C37BD4690BD80B584B000AF03461B
:100A2800FB80154B1B88013B9AB2134B5B88013B3B
:100A38009BB200210020FFF7A3FF0023FB8111E0F8
:100A48000023BB8106E0FB881846FFF777FFBB89C8
:100A58000133BB81084B5B88BA899A42F3D3FB897F
:100A68000133FB81044B1B88FA899A42E8D300BF03
:100A780000BF1037BD4680BDA800002090B585B0E6
:100A880000AF0446084611461A462346FB80034633
:100A9800BB800B467B8013463B807B88013B9AB228
:100AA8003B88013B9BB2B988F888FFF769FFBB8890
:100AB800FB8110E0FB88BB8106E03B8C1846FFF702
:100AC8003DFFBB890133BB81BA897B889A42F4D345
:100AD800FB890133FB81FA893B889A42EAD300BF3C
:100AE80000BF1437BD4690BD80B582B000AF034645
:100AF800FB800B46BB8013467B80BB88FA88B9888D
:100B0800F888FFF73DFF7B881846FFF717FF00BFFF
:100B18000837BD4680BD90B58DB000AF0446084685
:100B280011461A462346FB800346BB800B467B8052
:100B380013463B800023BB6200237B627A88FB88D4
:100B4800D31A3B623A88BB88D31AFB61FB88FB60E7
:100B5800BB88BB603B6A002B02DD01237B610BE095
:100B68003B6A002B02D100237B6105E04FF0FF3385
:100B78007B613B6A5B423B62FB69002B02DD012320
:100B88003B610BE0FB69002B02D100233B6105E0D0
:100B98004FF0FF333B61FB695B42FB613A6AFB69DB
:100BA8009A4202DD3B6ABB6101E0FB69BB6100233D
:100BB800FB852BE0FB689BB2BA6891B2B7F840207E
:100BC8001846FFF791FFBA6A3B6A1344BB627A6A18
:100BD800FB6913447B62BA6ABB699A4207DDBA6A49
:100BE800BB69D31ABB62FA687B691344FB607A6AF3
:100BF800BB699A4207DD7A6ABB69D31A7B62BA6815
:100C08003B691344BB60FB8D0133FB85FB8DBA69DF
:100C18009A42CFDA00BF00BF3437BD4690BD00000E
:100C280090B587B000AF0446084611461A462346D9
:100C3800FB800346BB800B46FB7013463B800023BA
:100C48007B75FB883B8297F82C305B08FB73FB7B3A
:100C5800DB08DBB21A46FB7B03F00703DBB2002B91
:100C680014BF01230023DBB213449AB297F82C3047
:100C78009BB212FB03F3BB81FB78203BFB70FB7B31
:100C88009AB2FB8813449BB2013B9CB297F82C3074
:100C98009AB2BB8813449BB2013B9BB2B988F888CF
:100CA8002246FFF76DFE00237B827AE097F82C300E
:100CB8000C2B28D097F82C30102B08D1FA787B8A87
:100CC8003C4912010A4413441B78FB751BE097F852
:100CD8002C30182B0BD1FA78798A374813465B00E9
:100CE80013441B0103440B441B78FB750BE097F876
:100CF8002C30202B5AD1FA787B8A304992010A4449
:100D080013441B78FB750023BB7544E097F830301B
:100D1800002B20D1FA7DBB7D42FA03F303F00103D7
:100D2800002B04D03B881846FFF708FE03E03B8DF4
:100D38001846FFF703FE7B7D01337B757B7DFA7BCD
:100D4800B3FBF2F101FB02F29B1ADBB2002B1FD1BD
:100D580000237B7522E0FA7DBB7D42FA03F303F0A2
:100D68000103002B05D03A88B988FB881846FFF79D
:100D7800BBFEFB880133FB80FA883B8AD21AFB7BD7
:100D88009A4205D13B8AFB80BB880133BB8005E0D2
:100D9800BB7D0133BB75BB7D072BB7D97B8A01337C
:100DA8007B827A8ABB899A4280D300E000BF1C37D5
:100DB800BD4690BDA0450008904B0008605D000846
:100DC80090B587B000AF0446084611461A46234638
:100DD800FB800346BB800B467B8013463B80002389
:100DE8003B61FA887B8813449BB2013B9CB2BA886A
:100DF8003B8813449BB2013B9BB2B988F8882246D2
:100E0800FFF7BEFD0023FB8227E00023BB821DE025
:100E18003B695B00BA6A13441B78FB733B695B0050
:100E28000133BA6A13441B78BB73FB7B1B021AB2EB
:100E3800BB7B1BB213431BB29BB21846FFF77EFD68
:100E48003B6901333B61BB8A0133BB82BA8A3B8869
:100E58009A42DDD3FB8A0133FB82FA8A7B889A4265
:100E6800D3D300BF00BF1C37BD4690BD80B483B04C
:100E780000AF0346FB71FB791B09DBB203F00303E8
:100E8800DBB2002B07D00A4B4FF4A0721A80084B34
:100E9800F0225A8006E0064BF0221A80044B4FF4E9
:100EA800A0725A8000BF0C37BD465DF8047B7047BE
:100EB800A800002080B500AF00224FF40051AA48D6
:100EC80001F046FB4FF4FA7001F070F801224FF47C
:100ED8000051A54801F03CFB4FF4FA7001F066F8A8
:100EE8000020FFF7C3FFD320FFF718FDFFF736FDFB
:100EF80003461A469D4B9A80FFF730FD03461A4673
:100F08009A4B9A80FFF72AFD03461A46974B9A8018
:100F1800964B9B881B029AB2944B9A80FFF71EFD52
:100F280003461A46914B9B8813439AB28F4B9A807B
:100F3800CF20FFF7F3FC0020FFF700FDC120FFF7EB
:100F4800FDFC3020FFF7FAFCED20FFF7E7FC6420FA
:100F5800FFF7F4FC0320FFF7F1FC1220FFF7EEFC8B
:100F68008120FFF7EBFCE820FFF7D8FC8520FFF78E
:100F7800E5FC1020FFF7E2FC7A20FFF7DFFCCB202E
:100F8800FFF7CCFC3920FFF7D9FC2C20FFF7D6FC63
:100F98000020FFF7D3FC3420FFF7D0FC0220FFF736
:100FA800CDFCF720FFF7BAFC2020FFF7C7FCEA20AA
:100FB800FFF7B4FC0020FFF7C1FC0020FFF7BEFCE0
:100FC800C020FFF7ABFC1B20FFF7B8FCC120FFF7E0
:100FD800A5FC0120FFF7B2FCC520FFF79FFC3020DD
:100FE800FFF7ACFC3020FFF7A9FCC720FFF796FC01
:100FF800B720FFF7A3FC3620FFF790FC0820FFF787
:101008009DFC3A20FFF78AFC5520FFF797FCB1209A
:10101800FFF784FC0020FFF791FC1A20FFF78EFCF5
:10102800B620FFF77BFC0A20FFF788FCA220FFF719
:1010380085FCF220FFF772FC0020FFF77FFC2620DA
:10104800FFF76CFC0120FFF779FCE020FFF766FC56
:101058000F20FFF773FC2A20FFF770FC2820FFF70A
:101068006DFC0820FFF76AFC0E20FFF767FC0820DC
:10107800FFF764FC5420FFF761FCA920FFF75EFC32
:101088004320FFF75BFC0A20FFF758FC0F20FFF70F
:1010980055FC0020FFF752FC0020FFF74FFC002012
:1010A800FFF74CFC0020FFF749FCE120FFF736FC76
:1010B8000020FFF743FC1520FFF740FC1720FFF73F
:1010C8003DFC0720FFF73AFC1120FFF737FC06200C
:1010D800FFF734FC2B20FFF731FC5620FFF72EFCDE
:1010E8003C20FFF72BFC0520FFF728FC1020FFF71A
:1010F80025FC0F20FFF722FC3F20FFF71FFC3F20B5
:10110800FFF71CFC0F20FFF719FC2B20FFF706FC4C
:101118000020FFF713FC0020FFF710FC0120FFF769
:101128000DFC3F20FFF70AFC2A20FFF7F7FB002001
:10113800FFF704FC0020FFF701FC0020FFF7FEFB8F
:10114800EF20FFF7FBFB1120FFF7E8FB782000F00A
:101158002DFF2920FFF7E2FB01224FF4807104489C
:1011680001F0F6F900BF80BD00080240A800002089
:101178000000024090B58BB004AFBA601A4603462F
:10118800FB810B46BB811346FB80FB89BB82002396
:10119800FB7548E0FB7D002B45D1FA89264B1B885F
:1011A800194697F82C305B08DBB2CB1A9A423FDC21
:1011B800BA89214B5B88194697F82C30CB1A9A428A
:1011C80036DCBB681B78802B02D90123FB752AE02B
:1011D800BB681B780D2B0BD197F82C309AB2BB89C2
:1011E8001344BB81BB8AFB81BB680133BB6017E03A
:1011F800BB681A78FC88B989F88997F83030029367
:1012080097F82C3001933B8D00932346FFF708FD98
:1012180097F82C305B08DBB29AB2FB891344FB8148
:10122800BB680133BB60BB681B78002BB2D100E000
:1012380000BF1C37BD4690BDA800002080B58AB00D
:1012480004AFBA601A460346FB810B46BB811346BE
:10125800FB80B868FEF7B4FF0346FB820F4B1B8880
:101268001A46FB8ADB00D31ADA0F13445B10BB82E1
:10127800FA89BB8A134498B2FA88B98997F8283052
:10128800029397F8243001933B8C00931346BA6875
:10129800FFF770FF00BF1837BD4680BDA8000020CB
:1012A80080B500AF3F4B1B88DBB29AB23D4B1A802A
:1012B8003D4B1B881A463D4B9B5C1B021AB2394BAF
:1012C8001B881BB213431BB29AB2364B1A80364B9B
:1012D8001B88032B46D801A252F823F0F512000808
:1012E80013130008311300084F1300082D4B1B88F7
:1012F80043F0B0039AB22B4B1A802A4B1B8823F079
:1013080040039AB2274B1A802DE0264B1B8843F0E6
:10131800D0039AB2234B1A80224B1B8823F0200358
:101328009AB2204B1A801EE01E4B1B8843F0E00344
:101338009AB21C4B1A801B4B1B8823F010039AB2DD
:10134800184B1A800FE0174B1B8843F070039AB2B2
:10135800144B1A80134B1B8823F080039AB2114B4D
:101368001A8000E000BF104B1B8801335A4203F07B
:10137800030302F0030258BF53429AB20A4B1A8081
:10138800002240210A4801F0E3F80123022205491E
:10139800084801F0E4FD01224021054801F0D8F891
:1013A80000BF80BD04000020AE0000200000002027
:1013B80000180240C000002080B500AF00F084FD96
:1013C80000F01CF8FFF7CAF900F076FC00F07EFB8D
:1013D800FFF7F4F800F0BCFC00F07AF800BF064B09
:1013E8001B78002BFBD0044B00221A70FFF77AF809
:1013F80000F0CEF9F2E700BFB400002080B594B049
:1014080000AF07F1200330220021184603F05CF8F2
:1014180007F10C0300221A605A609A60DA601A61B8
:101428000023BB60284B1B6C274A43F0805313648E
:10143800254B1B6C03F08053BB60BB6800237B60AB
:10144800224B1B68214A43F4804313601F4B1B68DF
:1014580003F480437B607B6801233B624FF4803355
:101468007B620223BB634FF48003FB6304233B646A
:10147800A8237B640223BB640423FB6407F12003D5
:10148800184601F07FF80346002B01D000F0A6FAB9
:101498000F23FB6002233B6100237B614FF4A053C1
:1014A800BB614FF4A053FB6107F10C0305211846FB
:1014B80001F0E0FA0346002B01D000F08FFA00BFDC
:1014C8005037BD4680BD00BF003802400070004064
:1014D80080B500AF002220210D4801F039F8002224
:1014E80040210B4801F034F800221021084801F08F
:1014F8002FF8FEF7EBFFFFF7DDFC00F075FA32205E
:1015080000F07CFA4FF47A7000F050FD00BF80BD07
:101518000010024080B400AF054BDB88012B01D1DD
:10152800012300E000231846BD465DF8047B7047A0
:101538003000002080B400AF054BDB89012B01D1BE
:10154800012300E000231846BD465DF8047B704780
:101558003000002080B400AF054BDB8A012B01D19D
:10156800012300E000231846BD465DF8047B704760
:101578003000002080B400AF054BDB8B012B01D17C
:10158800012300E000231846BD465DF8047B704740
:101598003000002080B400AF054B1B88C82B01D158
:1015A800012300E000231846BD465DF8047B704720
:1015B8000600002080B400AF054B1B88642B01D1C6
:1015C800012300E000231846BD465DF8047B704700
:1015D8000600002080B582B002AF104B1B88013B8B
:1015E80099B20E4B1B88013B9BB248F25C72009289
:1015F800DE227A20FFF78FFA084B1988084B0093F0
:101608003A235A227A20FFF7DBFB044B1B8801336D
:101618009AB2024B1A8000BFBD4680BD060000206A
:101628001408010880B582B002AF104B1B883A330A
:1016380099B20E4B1B883A339BB248F25C72009207
:10164800DE227A20FFF767FA084B1988084B0093C7
:101658003A235A227A20FFF7B3FB044B1B88013B3D
:101668009AB2024B1A8000BFBD4680BD060000201A
:101678001408010880B582B002AF064B1988064BE2
:1016880000933A235A227A20FFF79AFB00BFBD46FF
:1016980080BD00BF060000201408010880B582B094
:1016A80002AF0C4B19880C4B00933A235A227A202C
:1016B800FFF786FB074B1988064B1B883A339BB20A
:1016C80048F25C72009269221420FFF7D7F900BF34
:1016D800BD4680BD060000201408010880B582B010
:1016E80002AF134B1988134B00933A235A22142044
:1016F800FFF766FB0E4B1B88073399B20C4B1B8810
:101708003A339BB2002200926E226920FFF7B6F9A5
:10171800074B1988064B1B883A339BB248F25C7218
:101728000092D4227A20FFF7A9F900BFBD4680BDF8
:10173800060000201408010880B500AF134B1B8871
:10174800042B08D8FFF7AAFF104B1B8801339AB265
:101758000E4B1A8017E00D4B1B88042B0CD90B4B32
:101768001B88082B08D8FFF7B9FF084B1B880133E3
:101778009AB2064B1A8006E0044B1B88092B02D14B
:10178800024B00221A8000BF80BD00BFB2000020BB
:1017980080B584B004AF884B1B78062B00F2F98023
:1017A80001A252F823F000BFCD170008FD1700086A
:1017B8008118000811190008D11800084F180008EE
:1017C8005119000848F25C70FFF726F91F230093AF
:1017D8001423F02200210020FFF750F9774B0093E3
:1017E800D1235A2264214620FFF7EAFA724B0522D8
:1017F8001A70DDE000230293102301931F23009346
:101808004FF6FF736E4A02210020FFF717FDFFF71E
:1018180009FFFFF78FFE0346002B02D0664B02221A
:101828001A70FFF7C7FE0346002B02D0624B042252
:101838001A70FFF78FFE0346002B00F0AE805E4B58
:1018480003221A70A9E000230293102301931F2397
:1018580000934FF6FF735B4A02210020FFF7EEFC6E
:10186800FFF708FFFFF756FE0346002B00F09780AE
:10187800514B01221A7092E0002302931023019326
:101888001F2300934FF6FF734F4A02210020FFF7F2
:10189800D5FCFFF79FFEFFF73DFE0346002B02D065
:1018A800454B01221A70FFF775FE0346002B02D044
:1018B800414B05221A70FFF74DFE0346002B70D0EE
:1018C8003D4B03221A706CE000230293102301930E
:1018D8001F2300934FF6FF733C4A02210020FFF7B5
:1018E800ADFCFFF7C7FEFFF745FE0346002B02D00D
:1018F800314B06221A70FFF71DFE0346002B52D00B
:101908002D4B02221A704EE00023029310230193FC
:101918001F2300934FF6FF732D4A02210020FFF783
:101928008DFCFFF7A7FEFFF7F5FD0346002B02D05D
:10193800214B01221A70FFF7FDFD0346002B34D01E
:101948001D4B02221A7030E00023029310230193EA
:101958001F2300934FF6FF731E4A02210020FFF752
:101968006DFCFFF7E9FEFFF7F5FD0346002B1ED0DF
:10197800114B04221A70184B1988174B1B883A33DD
:101988009BB248F25C72009269221420FFF776F845
:101998000DE0094B00221A700AE000BF08E000BF02
:1019A80006E000BF04E000BF02E000BF00E000BFA7
:1019B80000BFBD4680BD00BFB000002020750008F4
:1019C800404500085045000860450008704500087B
:1019D80080450008904500080600002080B400AF4C
:1019E80072B600BFFEE7000080B500AF024802F003
:1019F80069F800BF80BD00BF1801002080B483B023
:101A080000AF78607B689AB2074B1A80064B1A8839
:101A1800064B1A80064B00221A7000BF0C37BD46D1
:101A28005DF8047B704700BFB8000020B6000020B6
:101A3800B400002080B582B000AF78607B681B6876
:101A4800B3F1804F14D11A4B1B88002B10D0184BC0
:101A58001B88013B9AB2164B1A80154B1B88002B2A
:101A680006D1144B01221A70134B1A88104B1A8096
:101A78007B681B68114A934216D1114B1B88002BB7
:101A880010D00F4B1B88013B9AB20D4B1A800C4BA0
:101A98001B88002B06D10B4B01221A700A4B1A889F
:101AA800074B1A80FFF7FCFB00BF0837BD4680BD17
:101AB800B6000020B4000020B80000200008004054
:101AC800BC000020BA000020BE00002080B500AF96
:101AD800174B184A1A60164B4FF482725A60144B0F
:101AE80000229A60124B0022DA60114B00221A6120
:101AF8000F4B00225A610E4B4FF400729A610C4B47
:101B08000022DA610A4B00221A62094B00225A624B
:101B1800074B00229A62064B0A22DA62044801F057
:101B280095F90346002B01D0FFF758FF00BF80BD91
:101B3800C00000200030014080B58AB000AF786056
:101B480007F1140300221A605A609A60DA601A6179
:101B58007B681B68194A93422BD100233B61184BC1
:101B68005B6C174A43F480535364154B5B6C03F466
:101B780080533B613B690023FB60114B1B6B104A90
:101B880043F0020313630E4B1B6B03F00203FB606D
:101B9800FB6838237B610223BB610023FB610323BD
:101BA8003B6205237B6207F114031946054800F0E0
:101BB80033FB00BF2837BD4680BD00BF0030014061
:101BC800003802400004024080B483B000AF002314
:101BD8007B60104B5B6C0F4A43F4804353640D4B9E
:101BE8005B6C03F480437B607B6800233B60094B9C
:101BF8001B6C084A43F080531364064B1B6C03F0BC
:101C080080533B603B6800BF0C37BD465DF8047BE2
:101C1800704700BF0038024080B400AFFEE780B4D0
:101C280000AFFEE780B400AFFEE780B400AFFEE788
:101C380080B400AFFEE780B400AF00BFBD465DF8DA
:101C4800047B704780B400AF00BFBD465DF8047BDD
:101C5800704780B400AF00BFBD465DF8047B704795
:101C680080B500AF00F082F900BF80BD80B500AF3D
:101C7800024801F097FF00BF80BD00BF1801002097
:101C880080B500AF024801F08DFF00BF80BD00BFE6
:101C98006001002080B400AF064BD3F88830054AB5
:101CA80043F47003C2F8883000BFBD465DF8047B7A
:101CB800704700BF00ED00E080B586B000AF07F1C7
:101CC800080300221A605A609A60DA603B460022D4
:101CD8001A605A601D4B4FF080421A601B4B40F24D
:101CE80047325A60194B00229A60184B6322DA6017
:101CF800164B00221A61154B00229A61134801F015
:101D080091FE0346002B01D0FFF768FE4FF4805385
:101D1800BB6007F1080319460C4802F04BF803466C
:101D2800002B01D0FFF75AFE00233B6000237B60A5
:101D38003B461946054802F067FA0346002B01D0D6
:101D4800FFF74CFE00BF1837BD4680BD18010020C4
:101D580080B586B000AF07F1080300221A605A6008
:101D68009A60DA603B4600221A605A601D4B1E4A90
:101D78001A601C4B40F247325A601A4B00229A6094
:101D8800184B6322DA60174B00221A61154B0022A8
:101D98009A61144801F046FE0346002B01D0FFF774
:101DA8001DFE4FF48053BB6007F1080319460D4828
:101DB80002F000F80346002B01D0FFF70FFE0023C6
:101DC8003B6000237B603B461946064802F01CFA3C
:101DD8000346002B01D0FFF701FE00BF1837BD46B0
:101DE80080BD00BF600100200008004080B584B0BD
:101DF80000AF78607B681B68B3F1804F16D1002371
:101E0800FB601A4B1B6C194A43F001031364174B10
:101E18001B6C03F00103FB60FB68002200211C20FF
:101E280000F0C3F91C2000F0DCF91AE07B681B689D
:101E38000F4A934215D10023BB600C4B1B6C0B4A15
:101E480043F004031364094B1B6C03F00403BB60E9
:101E5800BB68002200211E2000F0A7F91E2000F018
:101E6800C0F900BF1037BD4680BD00BF0038024032
:101E780000080040DFF834D00D480E490E4A002310
:101E880002E0D458C4500433C4188C42F9D30B4A26
:101E98000B4C002301E013600432A242FBD3FFF78E
:101EA800F9FE02F019FBFFF787FA704700000220DD
:101EB8000000002014000020FC300108140000205D
:101EC800AC010020FEE7000080B500AF0E4B1B6898
:101ED8000D4A43F4007313600B4B1B680A4A43F422
:101EE80080631360084B1B68074A43F480731360D0
:101EF800032000F04FF90F2000F008F8FFF764FE08
:101F08000023184680BD00BF003C024080B582B067
:101F180000AF7860124B1A68124B1B7819464FF4C1
:101F28007A73B3FBF1F3B2FBF3F3184600F067F9E9
:101F38000346002B01D001230EE07B680F2B0AD843
:101F4800002279684FF0FF3000F02FF9064A7B68CD
:101F58001360002300E0012318460837BD4680BD02
:101F680008000020100000200C00002080B400AF02
:101F7800064B1B781A46064B1B681344044A136029
:101F880000BFBD465DF8047B704700BF100000200D
:101F9800A801002080B400AF034B1B681846BD465B
:101FA8005DF8047B704700BFA801002080B584B0AD
:101FB80000AF7860FFF7EEFFB8607B68FB60FB68F6
:101FC800B3F1FF3F05D00A4B1B781A46FB68134450
:101FD800FB6000BFFFF7DEFF0246BB68D31AFA6852
:101FE8009A42F7D800BF00BF1037BD4680BD00BF7A
:101FF8001000002080B485B000AF78607B6803F0E3
:102008000703FB600C4BDB68BB60BA684FF6FF0345
:102018001340BB60FB681A02BB68134343F0BF63FD
:1020280043F40033BB60044ABB68D36000BF143775
:10203800BD465DF8047B704700ED00E080B400AF5A
:10204800044BDB681B0A03F007031846BD465DF81E
:10205800047B704700ED00E080B483B000AF034616
:10206800FB7197F90730002B0BDBFB7903F01F029C
:10207800074997F907305B09012000FA02F241F895
:10208800232000BF0C37BD465DF8047B704700BFB6
:1020980000E100E080B483B000AF03463960FB7113
:1020A80097F90730002B0ADB3B68DAB20C4997F93D
:1020B80007301201D2B20B4483F800230AE03B68D0
:1020C800DAB20849FB7903F00F03043B1201D2B2DC
:1020D8000B441A7600BF0C37BD465DF8047B704789
:1020E80000E100E000ED00E080B489B000AFF860E6
:1020F800B9607A60FB6803F00703FB61FB69C3F111
:102108000703042B28BF0423BB61FB690433062B98
:1021180002D9FB69033B00E000237B614FF0FF32EB
:10212800BB6902FA03F3DA43BB681A407B699A4039
:102138004FF0FF317B6901FA03F3D9437B680B4009
:10214800134318462437BD465DF8047B70470000EA
:1021580080B582B000AF78607B68013BB3F1807FC7
:1021680001D301230FE00A4A7B68013B53600F212A
:102178004FF0FF30FFF78EFF054B00229A60044BAB
:1021880007221A60002318460837BD4680BD00BFE5
:1021980010E000E080B582B000AF78607868FFF7A3
:1021A80029FF00BF0837BD4680BD80B586B000AFA7
:1021B8000346B9607A60FB7300237B61FFF73EFF3B
:1021C80078617A68B9687869FFF78EFF024697F9EF
:1021D8000F3011461846FFF75DFF00BF1837BD46A0
:1021E80080BD80B582B000AF0346FB7197F9073018
:1021F8001846FFF731FF00BF0837BD4680BD80B5E0
:1022080082B000AF78607868FFF7A2FF03461846EF
:102218000837BD4680BD000080B489B000AF786043
:10222800396000237B6100233B610023BB610023ED
:10223800FB616BE10122FB6902FA03F37B613B68F6
:102248001B687A6913403B613A697B699A4240F09E
:102258005A813B685B6803F00303012B05D03B6898
:102268005B6803F00303022B30D17B689B68BB617A
:10227800FB695B00032202FA03F3DB43BA691340EC
:10228800BB613B68DA68FB695B0002FA03F3BA6971
:102298001343BB617B68BA699A607B685B68BB6102
:1022A8000122FB6902FA03F3DB43BA691340BB61FD
:1022B8003B685B681B0903F00102FB6902FA03F340
:1022C800BA691343BB617B68BA695A603B685B684B
:1022D80003F00303032B17D07B68DB68BB61FB6942
:1022E8005B00032202FA03F3DB43BA691340BB61C4
:1022F8003B689A68FB695B0002FA03F3BA69134307
:10230800BB617B68BA69DA603B685B6803F003030A
:10231800022B23D1FB69DA087B68083253F8223094
:10232800BB61FB6903F007039B000F2202FA03F36A
:10233800DB43BA691340BB613B681A69FB6903F068
:1023480007039B0002FA03F3BA691343BB61FB69F5
:10235800DA087B680832B96943F822107B681B6881
:10236800BB61FB695B00032202FA03F3DB43BA6932
:102378001340BB613B685B6803F00302FB695B00C9
:1023880002FA03F3BA691343BB617B68BA691A603E
:102398003B685B6803F44033002B00F0B4800023F3
:1023A800FB60604B5B6C5F4A43F4804353645D4B56
:1023B8005B6C03F48043FB60FB685B4AFB699B082A
:1023C800023352F82330BB61FB6903F003039B001F
:1023D8000F2202FA03F3DB43BA691340BB617B683F
:1023E800524A93422BD07B68514A934225D07B684E
:1023F800504A93421FD07B684F4A934219D07B685A
:102408004E4A934213D07B684D4A93420DD07B6865
:102418004C4A934207D07B684B4A934201D1072329
:102428000EE008230CE006230AE0052308E0042355
:1024380006E0032304E0022302E0012300E0002376
:10244800FA6902F0030292009340BA691343BB6130
:102458003549FB699B080233BA6941F823203B4B95
:102468001B68BB613B69DB43BA691340BB613B68CE
:102478005B6803F48033002B03D0BA693B691343CC
:10248800BB61324ABB691360304B5B68BB613B6917
:10249800DB43BA691340BB613B685B6803F40033F4
:1024A800002B03D0BA693B691343BB61274ABB6958
:1024B8005360264B9B68BB613B69DB43BA69134099
:1024C800BB613B685B6803F48013002B03D0BA69D7
:1024D8003B691343BB611D4ABB6993601B4BDB68B7
:1024E800BB613B69DB43BA691340BB613B685B680E
:1024F80003F40013002B03D0BA693B691343BB6193
:10250800124ABB69D360FB690133FB61FB690F2B7E
:102518007FF690AE00BF00BF2437BD465DF8047B50
:10252800704700BF003802400038014000000240F8
:102538000004024000080240000C02400010024063
:102548000014024000180240001C0240003C0140F8
:1025580080B483B000AF78600B467B8013467B70F5
:102568007B78002B03D07A887B689A6103E07B88AC
:102578001A047B689A6100BF0C37BD465DF8047B7E
:102588007047000080B586B000AF78607B68002B8C
:1025980001D1012367E27B681B6803F00103002B6C
:1025A80075D0884B9B6803F00C03042B0CD0854B2B
:1025B8009B6803F00C03082B12D1824B5B6803F471
:1025C8008003B3F5800F0BD17E4B1B6803F40033F7
:1025D800002B5BD07B685B68002B57D1012342E25C
:1025E8007B685B68B3F5803F06D1764B1B68754AFC
:1025F80043F4803313601DE07B685B68B3F5A02F5C
:102608000CD1704B1B686F4A43F4802313606D4BE9
:102618001B686C4A43F4803313600BE0694B1B68FA
:10262800684A23F480331360664B1B68654A23F4B9
:10263800802313607B685B68002B13D0FFF7AAFC2C
:10264800386108E0FFF7A6FC02463B69D31A642B01
:1026580001D9032307E25B4B1B6803F40033002B0B
:10266800F0D014E0FFF796FC386108E0FFF792FC21
:1026780002463B69D31A642B01D90323F3E1514B7A
:102688001B6803F40033002BF0D100E000BF7B6827
:102698001B6803F00203002B63D04A4B9B6803F0CE
:1026A8000C03002B0BD0474B9B6803F00C03082B43
:1026B8001CD1444B5B6803F48003002B16D1414BBB
:1026C8001B6803F00203002B05D07B68DB68012B35
:1026D80001D00123C7E13B4B1B6823F0F8027B685C
:1026E8001B69DB00374913430B603AE07B68DB6802
:1026F800002B20D0344B01221A60FFF74BFC3861C5
:1027080008E0FFF747FC02463B69D31A022B01D9C0
:102718000323A8E12B4B1B6803F00203002BF0D026
:10272800284B1B6823F0F8027B681B69DB002549EE
:1027380013430B6015E0244B00221A60FFF72AFCB4
:10274800386108E0FFF726FC02463B69D31A022BE2
:1027580001D9032387E11B4B1B6803F00203002BFD
:10276800F0D17B681B6803F00803002B36D07B6828
:102778005B69002B16D0154B01221A60FFF70AFC83
:10278800386108E0FFF706FC02463B69D31A022BC2
:1027980001D9032367E10B4B5B6F03F00203002BA6
:1027A800F0D01BE0094B00221A60FFF7F3FB3861F9
:1027B8000EE0FFF7EFFB02463B69D31A022B07D95D
:1027C800032350E10038024000004742800E474290
:1027D800884B5B6F03F00203002BEAD17B681B6810
:1027E80003F00403002B00F097800023FB75814B56
:1027F8001B6C03F08053002B0FD10023BB607D4B73
:102808001B6C7C4A43F0805313647A4B1B6C03F0B7
:102818008053BB60BB680123FB75774B1B6803F4CF
:102828008073002B18D1744B1B68734A43F4807370
:102838001360FFF7AFFB386108E0FFF7ABFB024618
:102848003B69D31A022B01D903230CE16A4B1B689D
:1028580003F48073002BF0D07B689B68012B06D1B2
:10286800644B1B6F634A43F0010313671CE07B68EA
:102878009B68052B0CD15F4B1B6F5E4A43F004032A
:1028880013675C4B1B6F5B4A43F0010313670BE054
:10289800584B1B6F574A23F001031367554B1B6FA7
:1028A800544A23F0040313677B689B68002B15D0F8
:1028B800FFF770FB38610AE0FFF76CFB02463B69E3
:1028C800D31A41F28832934201D90323CBE0494B12
:1028D8001B6F03F00203002BEED014E0FFF75AFB46
:1028E80038610AE0FFF756FB02463B69D31A41F20A
:1028F8008832934201D90323B5E03E4B1B6F03F0A6
:102908000203002BEED1FB7D012B05D1394B1B6C4B
:10291800384A23F0805313647B689B69002B00F0CE
:10292800A180344B9B6803F00C03082B5CD07B68B8
:102938009B69022B41D1314B00221A60FFF72AFB19
:10294800386108E0FFF726FB02463B69D31A022BE1
:1029580001D9032387E0274B1B6803F00073002B82
:10296800F0D17B68DA697B681B6A1A437B685B6A0B
:102978009B011A437B689B6A5B08013B1B041A4353
:102988007B68DB6A1B061B4913434B601B4B012208
:102998001A60FFF7FFFA386108E0FFF7FBFA024612
:1029A8003B69D31A022B01D903235CE0114B1B6846
:1029B80003F00073002BF0D054E0104B00221A6093
:1029C800FFF7E8FA386108E0FFF7E4FA02463B69E6
:1029D800D31A022B01D9032345E0064B1B6803F0E9
:1029E8000073002BF0D13DE07B689B69012B07D178
:1029F800012338E000380240007000406000474280
:102A08001B4B5B68FB607B689B69012B28D0FB68CC
:102A180003F480027B68DB699A4221D1FB6803F0EA
:102A28003F027B681B6A9A421AD1FA6847F6C0735C
:102A380013407A68526A9201934211D1FB6803F4F9
:102A480040327B689B6A5B08013B1B049A4207D1B2
:102A5800FB6803F070627B68DB6A1B069A4201D050
:102A6800012300E0002318461837BD4680BD00BF8B
:102A78000038024080B584B000AF786039607B6868
:102A8800002B01D10123CCE0684B1B6803F007033E
:102A98003A689A420CD9654B3A68D2B21A70634BBD
:102AA8001B6803F007033A689A4201D00123B8E093
:102AB8007B681B6803F00203002B20D07B681B682F
:102AC80003F00403002B05D0594B9B68584A43F484
:102AD800E05393607B681B6803F00803002B05D064
:102AE800534B9B68524A43F460439360504B9B6836
:102AF80023F0F0027B689B684D4913438B607B6829
:102B08001B6803F00103002B44D07B685B68012B32
:102B180007D1474B1B6803F40033002B19D101235D
:102B28007FE07B685B68022B03D07B685B68032BC4
:102B380007D13F4B1B6803F00073002B09D1012319
:102B48006FE03B4B1B6803F00203002B01D101230C
:102B580067E0374B9B6823F003027B685B68344966
:102B680013438B60FFF716FAF8600AE0FFF712FAD2
:102B78000246FB68D31A41F28832934201D90323F3
:102B88004FE02B4B9B6803F00C027B685B689B0053
:102B98009A42EBD1254B1B6803F007033A689A4227
:102BA8000CD2224B3A68D2B21A70204B1B6803F041
:102BB80007033A689A4201D0012332E07B681B6818
:102BC80003F00403002B08D0194B9B6823F4E05250
:102BD8007B68DB68164913438B607B681B6803F0CE
:102BE8000803002B09D0124B9B6823F460427B68D2
:102BF8001B69DB000E4913438B6000F021F8024685
:102C08000B4B9B681B0903F00F030A49CB5C22FAA4
:102C180003F3094A1360094B1B681846FFF776F956
:102C2800002318461037BD4680BD00BF003C024057
:102C380000380240DC300108080000200C000020A9
:102C48002DE9B04F94B000AF00237B640023FB64F0
:102C580000233B640023BB64794B9B6803F00C039F
:102C6800082B0DD0082B00F2E180002B02D0042B9A
:102C780003D0DBE0734BBB64DBE0734BBB64D8E091
:102C88006F4B5B6803F03F037B646D4B5B6803F439
:102C98008003002B63D06A4B5B689B090022BB63EF
:102CA800FA63BB6BC3F308033B6300237B63D7E979
:102CB8000C4522462B464FF000004FF00001590109
:102CC80041EAD261500102460B462146511A396148
:102CD800294663EB01037B614FF000024FF00003CC
:102CE800D7E904AB59468B01514643EA91635146F3
:102CF8008A015146B2EB0108594663EB01094FF0CE
:102D080000024FF000034FEAC90343EA58734FEA41
:102D1800C80290469946234618EB0303BB602B462E
:102D280049EB0303FB604FF000024FF00003D7E9C3
:102D3800024529464B02214643EAD15321464A021D
:102D4800104619467B6C0022BB62FA62D7E90A2357
:102D5800FDF73EFA02460B461346FB6458E0384B33
:102D68005B689B09002218461146C0F308033B62C2
:102D780000237B62D7E9088942464B464FF00000A2
:102D88004FF00001590141EAD261500102460B4659
:102D98004146B2EB010A494663EB010B4FF00002D2
:102DA8004FF000034FEA8B1343EA9A634FEA8A1203
:102DB800B2EB0A0463EB0B054FF000024FF000037F
:102DC800EB0043EA5473E20014461D464346E318F9
:102DD8003B604B4645EB03037B604FF000024FF02E
:102DE8000003D7E9004529468B02214643EA91535F
:102DF80021468A02104619467B6C0022BB61FA61A3
:102E0800D7E90623FDF7E4F902460B461346FB64AF
:102E18000B4B5B681B0C03F0030301335B003B6443
:102E2800FA6C3B6CB2FBF3F3BB6402E0054BBB648A
:102E380000BFBB6C18465037BD46BDE8B08F00BF19
:102E4800003802400024F40000127A0080B582B0F5
:102E580000AF78607B68002B01D101237BE07B68A1
:102E68005B6A002B08D17B685B68B3F5827F09D069
:102E78007B680022DA6105E07B6800221A617B68C2
:102E880000225A617B6800229A627B6893F851306D
:102E9800DBB2002B06D17B68002283F850207868CB
:102EA800FEF74AFE7B68022283F851207B681B6884
:102EB8001A687B681B6822F040021A607B685B68AE
:102EC80003F482727B689B6803F404431A437B68AB
:102ED800DB6803F400631A437B681B6903F0020391
:102EE8001A437B685B6903F001031A437B689B699B
:102EF80003F400731A437B68DB6903F038031A4351
:102F08007B681B6A03F0800342EA03017B689B6AC3
:102F180003F400527B681B680A431A607B689B694C
:102F28001B0C03F004017B685B6A03F010027B68EA
:102F38001B680A435A607B681B68DA697B681B68F0
:102F480022F40062DA617B6800225A657B680122FC
:102F580083F85120002318460837BD4680BD80B548
:102F680088B000AFF860B9603B601346FB8000236F
:102F7800FB77FB6893F85030012B01D1022326E13F
:102F8800FB68012283F85020FFF704F8B861FB883A
:102F9800FB82FB6893F85130DBB2012B02D002238D
:102FA800FB770BE1BB68002B02D0FB88002B02D11A
:102FB8000123FB7702E1FB68032283F85120FB68B9
:102FC80000225A65FB68BA681A63FB68FA889A8611
:102FD800FB68FA88DA86FB6800229A63FB6800229D
:102FE8009A87FB680022DA87FB6800225A64FB682C
:102FF80000221A64FB689B68B3F5004F0FD1FB6889
:103008001B681A68FB681B6822F040021A60FB689C
:103018001B681A68FB681B6842F480421A60FB68E8
:103028001B681B6803F04003402B07D0FB681B6834
:103038001A68FB681B6842F040021A60FB68DB688C
:10304800B3F5006F4BD1FB685B68002B02D0FB8A9D
:10305800012B3ED1FB681B6B1A88FB681B68DA6082
:10306800FB681B6B9A1CFB681A63FB68DB8E9BB2C0
:10307800013B9AB2FB68DA862BE0FB681B689B6809
:1030880003F00203022B12D1FB681B6B1A88FB6842
:103098001B68DA60FB681B6B9A1CFB681A63FB6889
:1030A800DB8E9BB2013B9AB2FB68DA8611E0FEF731
:1030B80071FF0246BB69D31A3A689A4203D83B6843
:1030C800B3F1FF3F02D13B68002B02D10323FB770A
:1030D80074E0FB68DB8E9BB2002BCED14CE0FB6822
:1030E8005B68002B02D0FB8A012B40D1FB681A6B6E
:1030F800FB681B680C3312781A70FB681B6B5A1C30
:10310800FB681A63FB68DB8E9BB2013B9AB2FB68D3
:10311800DA862CE0FB681B689B6803F00203022B2D
:1031280013D1FB681A6BFB681B680C3312781A7092
:10313800FB681B6B5A1CFB681A63FB68DB8E9BB22F
:10314800013B9AB2FB68DA8611E0FEF723FF0246DC
:10315800BB69D31A3A689A4203D83B68B3F1FF3F78
:1031680002D13B68002B02D10323FB7726E0FB68E2
:10317800DB8E9BB2002BCDD1BA693968F86800F0B4
:10318800CBFB0346002B02D0FB6820225A65FB6864
:103198009B68002B0AD100233B61FB681B68DB6836
:1031A8003B61FB681B689B683B613B69FB685B6D27
:1031B800002B02D00123FB7700E000BFFB6801224F
:1031C80083F85120FB68002283F85020FB7F1846C3
:1031D8002037BD4680BD80B588B002AFF860B960C1
:1031E8003B601346FB800023FB75FB685B68B3F507
:1031F800827F12D1FB689B68002B0ED1FB680422EA
:1032080083F85120FA883B6800931346BA68B96876
:10321800F86800F0F1F80346EAE0FB6893F85030EC
:10322800012B01D10223E3E0FB68012283F850203F
:10323800FEF7B0FE3861FB6893F85130DBB2012B22
:1032480002D00223FB75CAE0BB68002B02D0FB88C2
:10325800002B02D10123FB75C1E0FB68042283F82F
:103268005120FB6800225A65FB68BA689A63FB68BC
:10327800FA889A87FB68FA88DA87FB6800221A635B
:10328800FB6800229A86FB680022DA86FB68002227
:103298001A64FB6800225A64FB689B68B3F5004F08
:1032A8000FD1FB681B681A68FB681B6822F0400294
:1032B8001A60FB681B681A68FB681B6822F4804266
:1032C8001A60FB681B681B6803F04003402B07D09B
:1032D800FB681B681A68FB681B6842F040021A60AA
:1032E800FB68DB68002B62D12EE0FB681B689B68DB
:1032F80003F00103012B15D1FB681B6803F10C02D5
:10330800FB689B6B1278D2B21A70FB689B6B5A1CD5
:10331800FB689A63FB68DB8F9BB2013B9AB2FB6840
:10332800DA8711E0FEF736FE02463B69D31A3A689F
:103338009A4203D83B68B3F1FF3F02D13B68002BA8
:1033480002D10323FB754AE0FB68DB8F9BB2002B9D
:10335800CBD131E0FB681B689B6803F00103012BAC
:1033680013D1FB681B68DA68FB689B6B92B21A8002
:10337800FB689B6B9A1CFB689A63FB68DB8F9BB2AC
:10338800013B9AB2FB68DA8711E0FEF703FE0246BA
:103398003B69D31A3A689A4203D83B68B3F1FF3FB6
:1033A80002D13B68002B02D10323FB7517E0FB68B1
:1033B800DB8F9BB2002BCDD13A693968F86800F0F1
:1033C80045FA0346002B02D0FB6820225A65FB68A9
:1033D8005B6D002B02D00123FB7500E000BFFB688A
:1033E800012283F85120FB68002283F85020FB7DDE
:1033F80018461837BD4680BD80B58CB000AFF86060
:10340800B9607A607B800123FB62002387F82B3048
:10341800FB6893F85030012B01D102238AE1FB6845
:10342800012283F85020FEF7B5FD7862FB6893F817
:10343800513087F82330FB685B68FB617B887B83AE
:1034480097F82330012B0FD0FB69B3F5827F07D1A2
:10345800FB689B68002B03D197F82330042B03D01B
:10346800022387F82B305BE1BB68002B05D07B6813
:10347800002B02D07B88002B03D1012387F82B3047
:103488004EE1FB6893F85130DBB2042B03D0FB68A4
:10349800052283F85120FB6800225A65FB687A6888
:1034A8009A63FB687A88DA87FB687A889A87FB6868
:1034B800BA681A63FB687A88DA86FB687A889A861B
:1034C800FB6800221A64FB6800225A64FB681B68C8
:1034D8001B6803F04003402B07D0FB681B681A6881
:1034E800FB681B6842F040021A60FB68DB68B3F5B2
:1034F800006F78D1FB685B68002B02D07B8B012BB7
:1035080066D1FB681B6B1A88FB681B68DA60FB686E
:103518001B6B9A1CFB681A63FB68DB8E9BB2013B32
:103528009AB2FB68DA8653E0FB681B689B6803F075
:103538000203022B1BD1FB68DB8E9BB2002B16D03B
:10354800FB6A012B13D1FB681B6B1A88FB681B688D
:10355800DA60FB681B6B9A1CFB681A63FB68DB8EDE
:103568009BB2013B9AB2FB68DA860023FB62FB68D8
:103578001B689B6803F00103012B19D1FB68DB8FE3
:103588009BB2002B14D0FB681B68DA68FB689B6B46
:1035980092B21A80FB689B6B9A1CFB689A63FB6863
:1035A800DB8F9BB2013B9AB2FB68DA870123FB628F
:1035B800FEF7F0FC02467B6AD31ABA6B9A4207D828
:1035C800BB6BB3F1FF3F03D0032387F82B30A7E091
:1035D800FB68DB8E9BB2002BA6D1FB68DB8F9BB20E
:1035E800002BA1D17CE0FB685B68002B02D07B8BB1
:1035F800012B6BD1FB681A6BFB681B680C331278C4
:103608001A70FB681B6B5A1CFB681A63FB68DB8E1D
:103618009BB2013B9AB2FB68DA8657E0FB681B68ED
:103628009B6803F00203022B1CD1FB68DB8E9BB264
:10363800002B17D0FB6A012B14D1FB681A6BFB68AF
:103648001B680C3312781A70FB681B6B5A1CFB68DA
:103658001A63FB68DB8E9BB2013B9AB2FB68DA8681
:103668000023FB62FB681B689B6803F00103012BC6
:1036780019D1FB68DB8F9BB2002B14D0FB681B6849
:10368800DA68FB689B6BD2B21A70FB689B6B5A1C9A
:10369800FB689A63FB68DB8F9BB2013B9AB2FB68BD
:1036A800DA870123FB62FEF775FC02467B6AD31AB0
:1036B800BA6B9A4203D8BB6BB3F1FF3F02D1BB6B25
:1036C800002B03D1032387F82B3029E0FB68DB8E1E
:1036D8009BB2002BA2D1FB68DB8F9BB2002B9DD144
:1036E8007A6AB96BF86800F017F90346002B06D020
:1036F800012387F82B30FB6820225A6510E0FB680D
:103708009B68002B0BD100237B61FB681B68DB687F
:103718007B61FB681B689B687B617B6900E000BF7D
:10372800FB68012283F85120FB68002283F85020AF
:1037380097F82B3018463037BD4680BD80B588B025
:1037480000AFF860B9603B601346FB71FEF722FCDE
:103758000246BB6A9B1A3A681344FB61FEF71AFCDF
:10376800B861394B1B685B011B0DFA6902FB03F357
:103778007B6154E03B68B3F1FF3F50D0FEF70AFC91
:103788000246BB69D31AFA699A4202D9FB69002B2F
:103798003DD1FB681B685A68FB681B6822F0E00291
:1037A8005A60FB685B68B3F5827F11D1FB689B6840
:1037B800B3F5004F04D0FB689B68B3F5806F07D161
:1037C800FB681B681A68FB681B6822F040021A60D5
:1037D800FB689B6AB3F5005F0FD1FB681B681A682A
:1037E800FB681B6822F400521A60FB681B681A68A1
:1037F800FB681B6842F400521A60FB68012283F8D8
:103808005120FB68002283F85020032317E07B69CE
:10381800002B01D10023FB617B69013B7B61FB68C5
:103828001B689A68BB681340BA689A420CBF0123A8
:103838000023DBB21A46FB799A429BD10023184633
:103848002037BD4680BD00BF0800002080B586B087
:1038580002AFF860B9607A60FB685B68B3F5827F95
:1038680011D1FB689B68B3F5004F04D0FB689B68D7
:10387800B3F5806F07D1FB681B681A68FB681B6883
:1038880022F040021A60FB685B68B3F5827F2AD198
:10389800FB689B68B3F5806F12D07B680093BB68A8
:1038A80000228021F868FFF749FF0346002B2DD03E
:1038B800FB685B6D43F02002FB685A65032326E032
:1038C8007B680093BB6800220121F868FFF736FF88
:1038D8000346002B1AD0FB685B6D43F02002FB689F
:1038E8005A65032313E07B680093BB68002201211B
:1038F800F868FFF723FF0346002B07D0FB685B6DD2
:1039080043F02002FB685A65032300E000231846B1
:103918001037BD4680BD000080B588B002AFF860A2
:10392800B9607A601B4B1B681B4AA2FB03235B0D23
:103938004FF47A7202FB03F37B61FB685B68B3F5B3
:10394800827F12D17B680093BB6800228021F868CF
:10395800FFF7F4FE0346002B16D0FB685B6D43F0BF
:103968002002FB685A6503230FE07B69002B0AD00D
:103978007B69013B7B61FB681B689B6803F08003E4
:10398800802BF2D000E000BF002318461837BD4650
:1039980080BD00BF08000020819F5E1680B584B0FE
:1039A80000AFF860B9607A60FB68002B01D1012391
:1039B80034E0FB6893F84930DBB2002B06D1FB6892
:1039C800002283F84820F868FCF7BEFEFB681A68F6
:1039D800FB6808331946104600F0A6FCFB68186817
:1039E800FB689B681A46B96800F0F0FCFB685868E9
:1039F800FB689A68FB681B6B796800F025FDFB681B
:103A08001B68FA68926853F82210FB681B68FA680A
:103A1800926841F0010143F822100023184610373C
:103A2800BD4680BD80B582B000AF78607B68002B52
:103A380001D1012341E07B6893F83D30DBB2002BD4
:103A480006D17B68002283F83C207868FEF7CEF91F
:103A58007B68022283F83D207B681A687B68043300
:103A68001946104600F096FA7B68012283F8462032
:103A78007B68012283F83E207B68012283F83F207F
:103A88007B68012283F840207B68012283F841206B
:103A98007B68012283F842207B68012283F8432057
:103AA8007B68012283F844207B68012283F8452043
:103AB8007B68012283F83D20002318460837BD465D
:103AC80080BD000080B485B000AF78607B6893F853
:103AD8003D30DBB2012B01D001234EE07B6802228E
:103AE80083F83D207B681B68DA687B681B6842F0B6
:103AF8000102DA607B681B68234A934222D07B6804
:103B08001B68B3F1804F1DD07B681B681F4A934226
:103B180018D07B681B681E4A934213D07B681B68C9
:103B28001C4A93420ED07B681B681B4A934209D0FB
:103B38007B681B68194A934204D07B681B68184A43
:103B4800934211D17B681B689B6803F00703FB60F5
:103B5800FB68062B10D07B681B681A687B681B689B
:103B680042F001021A6007E07B681B681A687B68EC
:103B78001B6842F001021A60002318461437BD463C
:103B88005DF8047B704700BF00000140000400405E
:103B980000080040000C00400004014000400140C3
:103BA8000018004080B582B000AF78607B681B6861
:103BB8001B6903F00203022B22D17B681B68DB68B8
:103BC80003F00203022B1BD17B681B686FF0020213
:103BD8001A617B6801221A777B681B689B6903F06E
:103BE8000303002B03D0786800F0B5F905E0786886
:103BF80000F0A7F9786800F0B8F97B6800221A7716
:103C08007B681B681B6903F00403042B22D17B68C3
:103C18001B68DB6803F00403042B1BD17B681B685B
:103C28006FF004021A617B6802221A777B681B68AE
:103C38009B6903F44073002B03D0786800F08BF97C
:103C480005E0786800F07DF9786800F08EF97B6807
:103C580000221A777B681B681B6903F00803082B8E
:103C680022D17B681B68DB6803F00803082B1BD193
:103C78007B681B686FF008021A617B6804221A7758
:103C88007B681B68DB6903F00303002B03D07868AB
:103C980000F061F905E0786800F053F9786800F001
:103CA80064F97B6800221A777B681B681B6903F03C
:103CB8001003102B22D17B681B68DB6803F010030C
:103CC800102B1BD17B681B686FF010021A617B6890
:103CD80008221A777B681B68DB6903F44073002BA2
:103CE80003D0786800F037F905E0786800F029F922
:103CF800786800F03AF97B6800221A777B681B68BD
:103D08001B6903F00103012B0ED17B681B68DB687C
:103D180003F00103012B07D17B681B686FF00102D8
:103D28001A617868FDF786FE7B681B681B6903F0DB
:103D38008003802B0ED17B681B68DB6803F080034F
:103D4800802B07D17B681B686FF080021A61786846
:103D580000F0E0FA7B681B681B6903F04003402B06
:103D68000ED17B681B68DB6803F04003402B07D14A
:103D78007B681B686FF040021A61786800F0FFF8F2
:103D88007B681B681B6903F02003202B0ED17B681E
:103D98001B68DB6803F02003202B07D17B681B68B6
:103DA8006FF020021A61786800F0AAFA00BF08379D
:103DB800BD4680BD80B584B000AF7860396000230F
:103DC800FB737B6893F83C30012B01D10223B4E0EC
:103DD8007B68012283F83C207B68022283F83D201F
:103DE8007B681B689B68BB60BB6823F07703BB607C
:103DF800BB6823F47F43BB607B681B68BA689A6022
:103E08003B681B68B3F5005F3ED0B3F5005F00F276
:103E18008780B3F5805F00F08680B3F5805F7FD838
:103E2800702B1AD0702B7BD8602B50D0602B77D892
:103E3800502B3CD0502B73D8402B58D0402B6FD8E8
:103E4800302B64D0302B6BD8202B60D0202B67D838
:103E5800002B5CD0102B5AD062E07B6818683B6856
:103E680099683B685A683B68DB6800F0ADF97B6885
:103E78001B689B68BB60BB6843F07703BB607B68CB
:103E88001B68BA689A604FE07B6818683B68996855
:103E98003B685A683B68DB6800F096F97B681B68EA
:103EA8009A687B681B6842F480429A603CE07B68B1
:103EB80018683B6859683B68DB681A4600F00AF9DD
:103EC8007B681B685021184600F063F92CE07B687A
:103ED80018683B6859683B68DB681A4600F029F99E
:103EE8007B681B686021184600F053F91CE07B686A
:103EF80018683B6859683B68DB681A4600F0EAF8BE
:103F08007B681B684021184600F043F90CE07B6889
:103F18001A683B681B681946104600F03AF903E036
:103F28000123FB7300E000BF7B68012283F83D207A
:103F38007B68002283F83C20FB7B18461037BD467F
:103F480080BD80B483B000AF786000BF0C37BD4639
:103F58005DF8047B704780B483B000AF786000BF21
:103F68000C37BD465DF8047B704780B483B000AF62
:103F7800786000BF0C37BD465DF8047B704780B49D
:103F880083B000AF786000BF0C37BD465DF8047B96
:103F98007047000080B485B000AF786039607B68F6
:103FA8001B68FB607B68404A934213D07B68B3F17F
:103FB800804F0FD07B683D4A93420BD07B683C4AC8
:103FC800934207D07B683B4A934203D07B683A4AC6
:103FD800934208D1FB6823F07003FB603B685B6881
:103FE800FA681343FB607B682F4A93422BD07B68A7
:103FF800B3F1804F27D07B682C4A934223D07B684B
:104008002B4A93421FD07B682A4A93421BD07B6875
:10401800294A934217D07B68284A934213D07B6879
:10402800274A93420FD07B68264A93420BD07B687D
:10403800254A934207D07B68244A934203D07B6881
:10404800234A934208D1FB6823F44073FB603B6822
:10405800DB68FA681343FB60FB6823F080023B6867
:104068005B691343FB607B68FA681A603B689A686F
:104078007B68DA623B681A687B689A627B680A4ADE
:10408800934203D07B680C4A934203D13B681A6978
:104098007B681A637B6801225A6100BF1437BD46EA
:1040A8005DF8047B704700BF000001400004004039
:1040B80000080040000C004000040140004001409E
:1040C800004401400048014000180040001C004026
:1040D8000020004080B487B000AFF860B9607A6013
:1040E800FB681B6A7B61FB681B6A23F00102FB68A3
:1040F8001A62FB689B693B613B6923F0F0033B61F3
:104108007B681B013A6913433B617B6923F00A030F
:104118007B617A69BB6813437B61FB683A699A6182
:10412800FB687A691A6200BF1C37BD465DF8047BDC
:10413800704780B487B000AFF860B9607A60FB68F8
:104148001B6A23F01002FB681A62FB689B697B619B
:10415800FB681B6A3B617B6923F470437B617B6866
:104168001B037A6913437B613B6923F0A0033B611E
:10417800BB681B013A6913433B61FB687A699A6122
:10418800FB683A691A6200BF1C37BD465DF8047BBC
:10419800704780B485B000AF786039607B689B68F1
:1041A800FB60FB6823F07003FB603A68FB6813430D
:1041B80043F00703FB607B68FA689A6000BF143716
:1041C800BD465DF8047B704780B487B000AFF860E7
:1041D800B9607A603B60FB689B687B617B6923F40C
:1041E8007F437B613B681A027B681A43BB681343B1
:1041F8007A6913437B61FB687A699A6000BF1C3750
:10420800BD465DF8047B704780B485B000AF786028
:1042180039607B6893F83C30012B01D102235AE0C6
:104228007B68012283F83C207B68022283F83D20CA
:104238007B681B685B68FB607B681B689B68BB606E
:10424800FB6823F07003FB603B681B68FA68134344
:10425800FB607B681B68FA685A607B681B68214AA8
:10426800934222D07B681B68B3F1804F1DD07B68D6
:104278001B681D4A934218D07B681B681B4A9342EF
:1042880013D07B681B681A4A93420ED07B681B6860
:10429800184A934209D07B681B68174A934204D096
:1042A8007B681B68154A93420CD1BB6823F08003D6
:1042B800BB603B685B68BA681343BB607B681B687C
:1042C800BA689A607B68012283F83D207B680022E7
:1042D80083F83C20002318461437BD465DF8047B5C
:1042E800704700BF00000140000400400008004083
:1042F800000C00400004014000400140001800404C
:1043080080B483B000AF786000BF0C37BD465DF85D
:10431800047B704780B483B000AF786000BF0C376F
:10432800BD465DF8047B704780B485B000AF786007
:1043380039600023FB603B681A687B6853F82230B9
:10434800FB60FA68204B1340FB603B685A683B6887
:104358009B681A433B68DB681A433B681B691A432E
:104368003B685B691A433B689B691A433B68DB6996
:104378001A433B681B6A1A433B685B6A1A433B68EB
:104388009B6A1A433B68DB6A1A433B68DB6B1A4338
:104398003B681B6B1343FA681343FB603B689B68DD
:1043A800082B03D1FB6843F04003FB603B681A68A5
:1043B8007B68F96843F82210002318461437BD4675
:1043C8005DF8047B704700BF8000F0FF80B487B0C1
:1043D80000AFF860B9607A6000237B617B685A1C83
:1043E800FB6853F822307B617B6903F040437B61B3
:1043F800BB681A68BB685B681B011A43BB689B688B
:104408001B021A43BB68DB681B041A43BB681B69A1
:10441800013B1B051A43BB685B69023B1B061A4339
:10442800BB689B6913437A6913437B617B685A1C99
:10443800FB68796943F82210002318461C37BD46EB
:104448005DF8047B7047000080B487B000AFF86067
:10445800B9607A603B6000237B613B68B3F5804FAD
:1044680022D1FB687A6853F822307B617A69154B50
:1044780013407B61BB681A68BB685B681B011A4301
:10448800BB689B681B021A43BB68DB681B041A43A2
:10449800BB689B6913437A6913437B61FB687A683D
:1044A800796943F8221005E0FB687A686FF070417B
:1044B80043F82210002318461C37BD465DF8047BDC
:1044C800704700BF0000F0CF02440346934200D17A
:1044D800704703F8011BF9E770B50D4D0D4C641BCF
:1044E800A4100026A64209D10B4D0C4C00F018F878
:1044F800641BA4100026A64205D170BD55F8043BE4
:1045080098470136EEE755F8043B98470136F2E73D
:10451800F4300108F4300108F4300108F8300108DB
:10452800F8B500BFF8BC08BC9E467047F8B500BF98
:08453800F8BC08BC9E46704768
:104540002020204D4F56494E472055502020200016
:10455000424F54544F4D20504F534954494F4E00F1
:1045600020204D4F56494E4720444F574E202000A3
:104570002020544F5020504F5354494F4E2020007C
:10458000202053544F50204D4F56494E4720200075
:1045900020202020464C59494E4720202020000052
:1045A000000000000000000000000000000000000B
:1045B0000000000808080808080800001818000093
:1045C00000486C2412000000000000000000000001
:1045D0000000002424247F1212127F121212000005
:1045E0000000081C2A2A0A0C1828282A2A1C080855
:1045F00000000022251515152A5854545422000095
:104600000000000C1212120A76252911916E00008A
:104610000006060403000000000000000000000087
:10462000004020101008080808080810102040005A
:1046300000020408081010101010100808040200EE
:104640000000000008086B1C1C6B0808000000003C
:1046500000000000080808087F080808080000009B
:104660000000000000000000000000000606040337
:104670000000000000000000FE000000000000003C
:10468000000000000000000000000000060600001E
:10469000000080404020201010080804040202009E
:1046A00000000018244242424242424224180000C4
:1046B000000000080E08080808080808083E000066
:1046C0000000003C4242422020100804427E0000CC
:1046D0000000003C4242201820404042221C0000C2
:1046E000000000203028242422227E202078000090
:1046F0000000007E0202021A26404042221C0000F6
:10470000000000382402021A264242422418000007
:104710000000007E22221010080808080808000087
:104720000000003C4242422418244242423C000025
:10473000000000182442424264584040241C0000FB
:104740000000000000001818000000001818000009
:10475000000000000000000800000000000808043D
:10476000000000402010080402040810204000004F
:104770000000000000007F0000007F00000000003B
:10478000000000020408102040201008040200006D
:104790000000003C42424640201010001818000063
:1047A0000000001C225A555555552D42221C000070
:1047B0000000000808181414243C224242E70000BC
:1047C0000000001F2222221E22424242221F00001D
:1047D0000000007C4242010101010142221C000054
:1047E0000000001F2242424242424242221F000079
:1047F0000000003F4212121E12120242423F00000D
:104800000000003F4212121E1212020202070000B4
:104810000000003C2222010101712122221C000023
:10482000000000E7424242427E42424242E700002C
:104830000000003E0808080808080808083E0000B4
:104840000000007C10101010101010101010110F2C
:104850000000007722120A0E0A12122222770000AC
:10486000000000070202020202020202427F000070
:1048700000000077363636362A2A2A2A2A6B0000AC
:10488000000000E346464A4A525252626247000024
:104890000000001C2241414141414141221C0000D5
:1048A0000000003F424242423E0202020207000074
:1048B0000000001C2241414141414D53321C600027
:1048C0000000003F4242423E1212222242C7000034
:1048D0000000007C4242020418204042423E000098
:1048E0000000007F4908080808080808081C0000A4
:1048F000000000E74242424242424242423C000043
:10490000000000E742422224241414180808000082
:104910000000006B494949495555362222220000C2
:10492000000000E7422424181818242442E700005D
:10493000000000772222141408080808081C000050
:104940000000007E2120101008040442423F0000B5
:104950000078080808080808080808080808780007
:104960000000020204040808081010202020404023
:10497000001E1010101010101010101010101E003B
:1049800000384400000000000000000000000000AB
:10499000000000000000000000000000000000FF18
:1049A00000060800000000000000000000000000F9
:1049B000000000000000003C4278444242FC00003D
:1049C000000000030202021A26424242261A000098
:1049D00000000000000000384402020244380000D9
:1049E00000000060404040784442424264D80000E9
:1049F000000000000000003C427E0202423C000039
:104A0000000000F08808087E08080808083E00003A
:104A1000000000000000007C22221C023C42423CBC
:104A2000000000030202023A4642424242E700000E
:104A30000000000C0C00000E08080808083E0000EA
:104A40000000003030000038202020202020221ECE
:104A50000000000302020272120A161222770000FE
:104A60000000000E0808080808080808083E0000B2
:104A7000000000000000007F9292929292B7000026
:104A8000000000000000003B4642424242E70000B6
:104A9000000000000000003C42424242423C000054
:104AA000000000000000001B26424242221E0207B6
:104AB000000000000000007844424242447840E098
:104AC00000000000000000774C040404041F0000F4
:104AD000000000000000007C42023C40423E00001A
:104AE000000000000008083E080808080830000020
:104AF00000000000000000634242424262DC00000D
:104B000000000000000000E7422424140808000010
:104B100000000000000000EB49495555222200002A
:104B2000000000000000007624181818246E000011
:104B300000000000000000E74224241418080807C1
:104B4000000000000000007E22100808447E0000E3
:104B500000C0202020202010202020202020C00065
:104B60001010101010101010101010101010101045
:104B700000060808080808100808080808080600C1
:104B80000C32C20000000000000000000000000025
:104B90000000000000000000000000000000000015
:104BA0000000000000000000000000000000000005
:104BB00000000000000000000000000000000000F5
:104BC0000000000000000000E000E000E000E00065
:104BD000E000400040004000400040004000000075
:104BE00000000000E000E000E00000000000000025
:104BF0000000000060066006300398018800440051
:104C000000000000000000000000000000000000A4
:104C10000000000000000000000000000000000094
:104C20000000000000000000000008020802080266
:104C30000802FE07FE070802080204010401FE073D
:104C4000FE0704010401040104010000000000004B
:104C500000000000000040004000F00158034C0339
:104C60004C034C0058007000E000C001C00140033C
:104C70004C034C034C034801F0004000400000008E
:104C8000000000000000000000000E030A011101F6
:104C900091009100D1005100FA03AE02600450046B
:104CA00050045804480488028403000000000000F7
:104CB00000000000000000000000380064006400F4
:104CC00064006400A4031C010C011A019200B300EB
:104CD000E3006300C300A6041C0300000000000002
:104CE000000000000C001C0010001000080006006E
:104CF00000000000000000000000000000000000B4
:104D000000000000000000000000000000000000A3
:104D10000000000000040002000180018000C000CB
:104D2000C000600060006000600060006000600023
:104D3000C000C000800080010001000200040000EB
:104D400000000000020004000800180010003000FD
:104D50003000600060006000600060006000600083
:104D600030003000100018000800040002000000AD
:104D700000000000000000000000000040004000B3
:104D800040004E0E5C07F001F0015C074E0E400043
:104D90004000400000000000000000000000000093
:104DA00000000000000000000000000000004000C3
:104DB0004000400040004000FE0F40004000400026
:104DC0004000400000000000000000000000000063
:104DD00000000000000000000000000000000000D3
:104DE00000000000000000000000000000000000C3
:104DF000000000000C001C0010001000080006005D
:104E000000000000000000000000000000000000A2
:104E10000000000000000000FE070000000000008D
:104E20000000000000000000000000000000000082
:104E30000000000000000000000000000000000072
:104E40000000000000000000000000000000000062
:104E5000000000001C001C001C00000000000000FE
:104E60000000000000040006000200030001000131
:104E70008000800040004000600020002000100002
:104E80001000080008000C000400060002000000EA
:104E900000000000000000000000F00098010C037A
:104EA0000C0306060606060606060606060606069F
:104EB00006060C030C039801F0000000000000003F
:104EC00000000000000000000000400060007C00C6
:104ED00060006000600060006000600060006000D2
:104EE0006000600060006000FC0300000000000043
:104EF00000000000000000000000F8008401020330
:104F000006030603000380018001C000200010009A
:104F1000080204020202FE03FE030000000000007B
:104F2000000000000000000000007800C4008601BE
:104F3000860186018001C00070008001000100032D
:104F40000603060306038401F800000000000000C9
:104F5000000000000000000000018001C001C0014D
:104F6000A001900190018801840184018201FE0763
:104F70008001800180018001E00700000000000046
:104F800000000000000000000000FC03FC0304001F
:104F9000040004000400F4008C0104030003000377
:104FA0000603060382018401F800000000000000EF
:104FB00000000000000000000000E00118030C03E6
:104FC0000C0004000600E60116030E06060606069F
:104FD000060604060C021803F000000000000000A2
:104FE00000000000000000000000F807FC070C02B1
:104FF00004010401000180008000400040004000E6
:1050000060006000600060006000000000000000C0
:1050100000000000000000000000F8010C0306067C
:10502000060606060E023C03F000CC010403060649
:105030000606060606060C03F0010000000000004C
:1050400000000000000000000000F0000C010C0354
:10505000060206060606060606078C067806000601
:10506000000300030C018C01780000000000000028
:105070000000000000000000000000000000000030
:105080000000E000E000E000000000000000000080
:1050900000000000E000E000E00000000000000070
:1050A0000000000000000000000000000000000000
:1050B0000000000060006000000000000000000030
:1050C00000000000000060006000400020000000C0
:1050D0000000000000000000000400020001800049
:1050E000400020001000080004000800100020000C
:1050F00040008000000100020004000000000000E9
:10510000000000000000000000000000000000009F
:1051100000000000FE070000000000000000FE0785
:10512000000000000000000000000000000000007F
:105130000000000000000000040008001000200033
:105140004000800000010002000400020001800015
:1051500040002000100008000400000000000000D3
:105160000000000000000000F0010C03020602062F
:1051700006060606000380016000200020002000D3
:1051800000000000700070007000000000000000CF
:1051900000000000000000000000E00138060804E4
:1051A000CC0A640B260926091609160996099605E4
:1051B00066030C080C041802E00100000000000067
:1051C00000000000000000000000600060007000AF
:1051D000D000D000C800880188018801F8010403CC
:1051E00004030403040606060F0F0000000000007D
:1051F00000000000000000000000FF008601060320
:105200000603060306038601FE00060306020606E1
:105210000606060606060603FF0100000000000061
:1052200000000000000000000000E00718060C0469
:105230000C04040006000600060006000600060036
:1052400006040C040C021801F0000000000000002D
:10525000000000000000000000007F00860106033F
:1052600006030606060606060606060606060606E1
:10527000060606030603C6017F00000000000000CA
:1052800000000000000000000000FF03060206040A
:105290000600060086008600FE00860086000600E6
:1052A0000600060406040602FF03000000000000DA
:1052B00000000000000000000000FF0306030604D9
:1052C0000604060086008600FE00860086000600B2
:1052D00006000600060006000F00000000000000A7
:1052E00000000000000000000000F00218030C02A3
:1052F0000C0204000600060006000600C60F0603A6
:1053000006030C030C031803F0000000000000006B
:10531000000000000000000000000F0F0606060657
:105320000606060606060606FE0706060606060624
:1053300006060606060606060F0F0000000000001F
:1053400000000000000000000000FC03600060009E
:10535000600060006000600060006000600060004D
:105360006000600060006000FC03000000000000BE
:1053700000000000000000000000F00F800180012C
:105380008001800180018001800180018001800115
:10539000800180018001800180018601C6007C00BF
:1053A00000000000000000000000CF07060186009A
:1053B00046004600260036003E006E00E600C600AD
:1053C000C6018601060306078F0F000000000000DB
:1053D000000000000000000000000F0006000600B2
:1053E000060006000600060006000600060006008D
:1053F0000600060406040602FF0300000000000089
:10540000000000000000000000000F0F0E070E0754
:105410000E079A069A069A069A065A0672067206A7
:105420007206720622062206270F00000000000006
:1054300000000000000000000000070E0E040E0433
:105440001A041A04320462046204C204C20482050B
:10545000020702070206020607040000000000001F
:1054600000000000000000000000F00098010C03A4
:105470000C020606060606060606060606060606CA
:1054800006060C020C039801F0000000000000006A
:1054900000000000000000000000FF0106030606F7
:1054A00006060606060606060603FE0106000600B8
:1054B00006000600060006000F00000000000000C5
:1054C00000000000000000000000F00098010C0344
:1054D0000C0206060606060606060606060606066A
:1054E00076064C028C038801F0018007000300005F
:1054F00000000000000000000000FF010603060697
:105500000606060606060603FE006600C600C6007E
:1055100086018601060306030F0E0000000000004E
:1055200000000000000000000000F8040C07060462
:10553000060406000E003C00F000C0030003000655
:105540000206020606060E03F2010000000000003B
:1055500000000000000000000000FE076204610877
:105560006108600060006000600060006000600032
:105570006000600060006000F000000000000000BB
:10558000000000000000000000000F0E06040604EA
:1055900006040604060406040604060406040604BB
:1055A0000604060406040C02F801000000000000D6
:1055B000000000000000000000001F0F0E060C029B
:1055C0000C020C020C011801180118011801B0009E
:1055D000B000B000F00060006000000000000000BB
:1055E00000000000000000000000EF0E66046604EA
:1055F00066026602E602EC02EC02DC01DC01DC0180
:10560000DC019C0188008800880000000000000088
:10561000000000000000000000009E070C031801BD
:1056200018019800B000700060006000E000D00039
:10563000D001980188010C039E07000000000000C3
:10564000000000000000000000001F0F0E060C020A
:105650000C0118011801B000B0007000600060007B
:105660006000600060006000F801000000000000C1
:1056700000000000000000000000FC07040382039B
:105680008001C001C000C000600060003000300038
:10569000180018041C040C02FE03000000000000A7
:1056A00000000000E0072000200020002000200073
:1056B00020002000200020002000200020002000EA
:1056C000200020002000200020002000E007000033
:1056D00000000000000000000400080008000800AE
:1056E000100010002000200020004000400080003A
:1056F000800080000001000100020002000200049E
:1057000000000000FC00800080008000800080001D
:105710008000800080008000800080008000800089
:10572000800080008000800080008000FC0000007D
:1057300000000000E000B0010802000000000000CE
:105740000000000000000000000000000000000059
:105750000000000000000000000000000000000049
:105760000000000000000000000000000000000039
:105770000000000000000000000000000000000029
:105780000000000000000000000000000000FF0F0B
:105790000000000018006000000000000000000091
:1057A00000000000000000000000000000000000F9
:1057B00000000000000000000000000000000000E9
:1057C00000000000000000000000000000000000D9
:1057D00000000000F0010C030C03E00338030C038D
:1057E0000603060306038E0B7C0F0000000000007A
:1057F000000000000000000008000E000C000C007B
:105800000C000C00CC013C031C060C060C060C061C
:105810000C060C060C021C03F40100000000000042
:105820000000000000000000000000000000000078
:1058300000000000F0008C018C01860106000600CB
:10584000060006020C020C01F0000000000000003F
:1058500000000000000000000002800300030003BD
:105860000003000378038C030C03060306030603FE
:105870000603060304038C07780100000000000003
:105880000000000000000000000000000000000018
:1058900000000000E001180308060C06FC070C00DD
:1058A0000C000C0018043802E001000000000000A9
:1058B00000000000000000000000C0036006300689
:1058C00030003000FE033000300030003000300087
:1058D0003000300030003000FC010000000000000B
:1058E00000000000000000000000000000000000B8
:1058F00000000000F00E98090C030C030C03980143
:10590000F8000C007C00F803060606060E07F801F6
:10591000000000000000000008000E000C000C0059
:105920000C000C00EC011C030C030C030C030C0317
:105930000C030C030C030C039E0700000000000086
:105940000000000000000000000060006000000097
:10595000000000007C0060006000600060006000EB
:105960006000600060006000FC03000000000000B8
:105970000000000000000000000080018001000025
:1059800000000000F00180018001800180018001A1
:10599000800180018001800180018001CC007C00B9
:1059A000000000000000000008000E000C000C00C9
:1059B0000C000C00CC038C00CC004C006C007C0074
:1059C000DC00CC008C018C019E0700000000000070
:1059D000000000000000000040007C00600060004B
:1059E00060006000600060006000600060006000B7
:1059F0006000600060006000FC0300000000000028
:105A00000000000000000000000000000000000096
:105A1000000000007707EE06660666066606660664
:105A20006606660666066606EF0E000000000000C9
:105A30000000000000000000000000000000000066
:105A400000000000CE013C030C030C030C030C030C
:105A50000C030C030C030C039E0700000000000065
:105A60000000000000000000000000000000000036
:105A700000000000F00098010C030606060606066A
:105A8000060606060C030C03F000000000000000F0
:105A90000000000000000000000000000000000006
:105AA00000000000EE011C030C060C060C060C06A0
:105AB0000C060C060C031C03EC010C000C003E0051
:105AC00000000000000000000000000000000000D6
