:020000040800F2
:1000000000000220C9100008250E00082D0E00086F
:10001000350E00083D0E0008450E000800000000E7
:100020000000000000000000000000004D0E00086D
:100030005B0E000800000000690E0008770E000843
:1000400019110008191100081911000819110008E8
:1000500019110008191100081911000819110008D8
:1000600019110008191100081911000819110008C8
:1000700019110008191100081911000819110008B8
:1000800019110008191100081911000819110008A8
:100090001911000819110008191100081911000898
:1000A0001911000819110008191100081911000888
:1000B000850E0008990E0008AD0E00081911000801
:1000C000191100081911000819110008C10E0008C3
:1000D0001911000819110008191100081911000858
:1000E0001911000819110008191100081911000848
:1000F0001911000819110008191100081911000838
:100100001911000819110008191100081911000827
:100110001911000819110008191100081911000817
:100120001911000819110008191100081911000807
:1001300019110008191100081911000819110008F7
:1001400019110008191100081911000819110008E7
:1001500019110008191100081911000819110008D7
:1001600019110008191100081911000819110008C7
:1001700019110008191100081911000800000000E9
:08018000191100081911000813
:1001880010B5054C237833B9044B13B10448AFF3C9
:1001980000800123237010BD1C0000200000000017
:1001A8005431000808B5034B1BB103490348AFF3AA
:1001B800008008BD00000000200000205431000825
:1001C80053B94AB9002908BF00281CBF4FF0FF31B6
:1001D8004FF0FF3000F088B9ADF1080C6DE904CE9E
:1001E80000F006F8DDF804E0DDE9022304B070470A
:1001F8002DE9F047089D8E4604468846002B4AD1D3
:100208008A42174662D9B2FA82F64EB1C6F1200385
:1002180001FA06F820FA03F3B74043EA0808B440A5
:100228004FEA174E1FFA87FCB8FBFEF1230C0EFBB2
:10023800118843EA084301FB0CF29A4209D9FB18DA
:1002480001F1FF3080F0EA809A4240F2E7800239FB
:100258003B449A1AA3B2B2FBFEF00EFB102243EA0B
:10026800024300FB0CFC9C4509D9FB1800F1FF3246
:1002780080F0D6809C4540F2D3803B44023840EA67
:100288000140A3EB0C0300211DB1F3400022C5E996
:100298000032BDE8F0878B4205D90DB1C5E90001F0
:1002A80000210846F5E7B3FA83F1002946D17345E2
:1002B80002D3824200F20581841A6EEB0302012008
:1002C8009046002DE5D0C5E90048E2E7002A00F095
:1002D8009080B2FA82F6002E40F0A4808A1A030CAD
:1002E8004FEA174E80B2BCB20121B2FBFEFC0EFBF6
:1002F8001C2243EA024304FB0CF29A4207D9FB187A
:100308000CF1FF3802D29A4200F2E080C4469B1AF0
:10031800B3FBFEF20EFB123340EA034302FB04F484
:100328009C4207D9FB1802F1FF3002D29C4200F22E
:10033800CA8002461B1B42EA0C40A5E7C1F1200611
:100348008B4022FA06F71F430EFA01F420FA06F34F
:100358002EFA06FE4FEA1749234300FA01F81FFA5E
:1003680087FCBEFBF9F01C0C09FB10EE44EA0E44B6
:1003780000FB0CFEA64502FA01F209D93C1900F16E
:10038800FF3A80F09C80A64540F2998002383C44B0
:10039800A4EB0E041FFA83FEB4FBF9F309FB134424
:1003A8004EEA044403FB0CFCA44508D93C1903F1AC
:1003B800FF3E80F08280A4457FD9023B3C4443EA5B
:1003C8000040A4EB0C04A0FB02EC64457346E14634
:1003D80062D35FD05DB1B8EB030264EB090404FAA1
:1003E80006F622FA01F31E43CC40C5E90064002159
:1003F8004FE7B1FBF2FC010C41EA0E4180B240EA42
:1004080001423B4638463C46B846BE462026B1FB2C
:10041800F7F1A2EB080241EA0C4166E7014618E74A
:1004280010462CE7C6F120022EFA02F3B740B1407D
:1004380020FA02F24FEA174E0A43B3FBFEF8BCB2A9
:100448000EFB1833110C41EA034108FB04F9B040D4
:1004580089454FEA104380B23ED9791808F1FF3C2C
:1004680001D289451FD8A1EB0901B1FBFEF909FBAF
:1004780004F80EFB191192B242EA0142424529D210
:10048800BA1809F1FF31C4D24245C2D2A9F102011A
:100498003A44BEE7F0459DD2BEEB02036CEB070C75
:1004A8000138E14696E7A7EB09094944A8F1020C8F
:1004B800B1FBFEF909FB04F8DBE773467FE750461A
:1004C80066E70846FDE63B44023A33E7ACF1020C26
:1004D8003B441CE749469CE7A1EB0901C446B1FB34
:1004E800FEF909FB04F8C4E7704700BF80B58CB07B
:1004F80000AF07F11C0300221A605A609A60DA60A4
:100508001A610023BB615A4B1B6B594A43F0100315
:100518001363574B1B6B03F01003BB61BB690023CC
:100528007B61534B1B6B524A43F080031363504B60
:100538001B6B03F080037B617B6900233B614C4BA1
:100548001B6B4B4A43F001031363494B1B6B03F0CE
:1005580001033B613B690023FB60454B1B6B444A2D
:1005680043F004031363424B1B6B03F00403FB606B
:10057800FB680023BB603E4B1B6B3D4A43F04003C6
:1005880013633B4B1B6B03F04003BB60BB6800234A
:100598007B60374B1B6B364A43F008031363344BBD
:1005A8001B6B03F008037B607B6800233B60304BC8
:1005B8001B6B2F4A43F0020313632D4B1B6B03F095
:1005C80002033B603B68002270212A4801F0E4F8EE
:1005D80000224021284801F0DFF80022082127489E
:1005E80001F0DAF87023FB6101233B6200237B6290
:1005F8000023BB6207F11C0319461E4800F030FFB8
:10060800C023FB6100233B6200237B6207F11C03CC
:1006180019461B4800F024FF3023FB6100233B628E
:1006280000237B6207F11C031946164800F018FFE7
:100638004023FB6101233B6200237B620023BB62F2
:1006480007F11C0319460C4800F00AFF0823FB6158
:1006580001233B6200237B620023BB6207F11C037A
:100668001946064800F0FCFE00BF3037BD4680BD85
:10067800003802400010024000180240000C0240FE
:10068800000002400008024080B500AF404B1B88C4
:10069800DBB29AB23E4B1A803E4B1B881A463E4B41
:1006A8009B5C1BB21B021AB2394B1B881BB213434B
:1006B8001BB29AB2364B1A80364B1B88032B47D88D
:1006C80001A252F823F000BFE1060008FF06000867
:1006D8001D0700083B0700082D4B1B8843F0B0039B
:1006E8009AB22B4B1A802A4B1B8823F040039AB2EC
:1006F800274B1A802DE0264B1B8843F0D0039AB273
:10070800234B1A80224B1B8823F020039AB2204BDC
:100718001A801EE01E4B1B8843F0E0039AB21C4B64
:100728001A801B4B1B8823F010039AB2184B1A80AF
:100738000FE0174B1B8843F070039AB2144B1A80D2
:10074800134B1B8823F080039AB2114B1A8000E0E8
:1007580000BF104B1B8801335A4203F0030302F019
:10076800030258BF53429AB20A4B1A800022402112
:100778000A4801F011F8012302220549084801F04E
:1007880012FD01224021054801F006F800BF80BD96
:100798000E00002038000020000000200018024051
:1007A8005000002080B485B000AFF860B9601346EF
:1007B800FB71FB68002B0EDBFB68092B0BDC094A7D
:1007C800FB6813441A78FB79D31AD9B2064ABB6876
:1007D80013440A461A7000BF1437BD465DF8047BFF
:1007E800704700BF040000200000002080B483B0E0
:1007F80000AF0346FB71FB79012B07D10A4B1B881D
:1008080023F008039AB2084B1A8006E0064B1B88AF
:1008180043F008039AB2044B1A8000BF0C37BD4658
:100828005DF8047B704700BF0E00002080B500AF64
:1008380000F070FC00F012F8FFF758FE00F0DEF947
:1008480000F056FB00F0A0FB00F0ECFB00F070F8A5
:1008580000F0EEF800F000F900BFF9E780B594B0B9
:1008680000AF07F1200330220021184602F042FCB5
:1008780007F10C0300221A605A609A60DA601A6164
:100888000023BB60284B1B6C274A43F0805313643A
:10089800254B1B6C03F08053BB60BB6800237B6057
:1008A800224B1B68214A43F4804313601F4B1B688B
:1008B80003F480437B607B6802233B620123FB6275
:1008C80010233B630223BB630023FB6308233B64C1
:1008D800A8237B640223BB640423FB6407F1200381
:1008E800184600F073FF0346002B01D000F0C6F84D
:1008F8000F23FB6002233B6100237B614FF4A0536D
:10090800BB614FF4A053FB6107F10C0305211846A6
:1009180001F0D4F90346002B01D000F0AFF800BF76
:100928005037BD4680BD00BF00380240007000400F
:1009380080B500AF00F0A8F8322000F0B9F800F058
:10094800ADF84FF47A7000F0CFF800BF80BD00001A
:1009580080B500AF324B1B780133DAB2304B1A70D6
:100968002F4B1B783B2B08D92D4B00221A702D4B8F
:100978001B780133DAB22B4B1A702A4B1B783B2BAE
:1009880008D9284B00221A70274B1B780133DAB29A
:10099800254B1A70244B1B783B2B02D9224B002283
:1009A8001A70204B1B78214AA2FB0323DB08DBB219
:1009B800002200211846FFF7F5FE1A4B1A781B4B48
:1009C800A3FB0213D9080B469B000B445B00D31A08
:1009D800DBB2002201211846FFF7E4FE104B1B781A
:1009E800124AA2FB0323DB08DBB2002202211846CD
:1009F800FFF7D8FE0A4B1A780C4BA3FB0213D90851
:100A08000B469B000B445B00D31ADBB20022032188
:100A18001846FFF7C7FE0120FFF7E8FE00BF80BDBC
:100A28003A0000203B0000203C000020CDCCCCCC7C
:100A380080B500AF074B1B78012B08D1FFF788FF63
:100A48004FF47A7000F050F8024B00221A7000BF81
:100A580080BD00BF4200002080B500AF064B1B7868
:100A6800012B07D1FFF710FE012000F021F8024BFF
:100A780000221A7000BF80BD3D00002080B400AF86
:100A880072B600BF00BFFDE780B500AF024801F0B5
:100A9800FFFE00BF80BD00BFA800002080B500AFEA
:100AA800024801F0F5FE00BF80BD00BFF000002045
:100AB80080B483B000AF78607B689AB2074B1A8025
:100AC800064B1A88064B1A80064B00221A7000BF84
:100AD8000C37BD465DF8047B704700BF400000201E
:100AE8003E0000203D00002080B483B000AF786055
:100AF8007B689AB2074B1A80064B1A88064B1A80F5
:100B0800064B00221A7000BF0C37BD465DF8047B07
:100B1800704700BF4600002044000020420000202B
:100B280080B483B000AF78607B681B68B3F1804FF6
:100B380014D1274B1B88002B10D0254B1B88013B59
:100B48009AB2234B1A80224B1B88002B06D1214BCB
:100B580001221A70204B1A881D4B1A807B681B686B
:100B68001E4A934214D11E4B1B88002B10D01C4BDD
:100B78001B88013B9AB21A4B1A80194B1B88002B11
:100B880006D1184B01221A70174B1A88144B1A8079
:100B98007B681B68154A934214D1154B1B88002BA0
:100BA80010D0134B1B88013B9AB2114B1A80104B83
:100BB8001B88002B06D10F4B01221A700E4B1A8886
:100BC8000B4B1A8000BF0C37BD465DF8047B70479D
:100BD8003E0000203D0000204000002000040040AE
:100BE8004400002042000020460000200008004089
:100BF8004A000020480000204C00002080B500AFCB
:100C0800174B184A1A60164B4FF482725A60144BED
:100C180000229A60124B0022DA60114B00221A61FE
:100C28000F4B00225A610E4B4FF400729A610C4B25
:100C38000022DA610A4B00221A62094B00225A622A
:100C4800074B00229A62064B0A22DA62044801F036
:100C580021FA0346002B01D0FFF710FF00BF80BD2B
:100C6800500000200030014080B483B000AF002362
:100C78007B60104B5B6C0F4A43F4804353640D4B0D
:100C88005B6C03F480437B607B6800233B60094B0B
:100C98001B6C084A43F080531364064B1B6C03F02B
:100CA80080533B603B6800BF0C37BD465DF8047B52
:100CB800704700BF0038024080B58AB000AF786046
:100CC80007F1140300221A605A609A60DA601A6108
:100CD8007B681B681D4A934233D100233B611C4B40
:100CE8005B6C1B4A43F480535364194B5B6C03F4ED
:100CF80080533B613B690023FB60154B1B6B144A17
:100D080043F002031363124B1B6B03F00203FB60F7
:100D1800FB6838237B610223BB610023FB6103234B
:100D28003B6205237B6207F114031946094800F06A
:100D380097FB00220021232000F039FB232000F03C
:100D480052FB00BF2837BD4680BD00BF00300140C0
:100D5800003802400004024080B586B000AF7860D9
:100D68007B681B68B3F1804F16D100237B61284B49
:100D78001B6C274A43F001031364254B1B6C03F0DB
:100D880001037B617B69002200211C2000F00FFB1E
:100D98001C2000F028FB36E07B681B681D4A934244
:100DA80016D100233B611A4B1B6C194A43F002030E
:100DB8001364174B1B6C03F002033B613B69002271
:100DC80000211D2000F0F3FA1D2000F00CFB1AE0B2
:100DD8007B681B68104A934215D10023FB600C4BBB
:100DE8001B6C0B4A43F004031364094B1B6C03F0A0
:100DF8000403FB60FB68002200211E2000F0D7FAE4
:100E08001E2000F0F0FA00BF1837BD4680BD00BFB5
:100E180000380240000400400008004080B400AFE1
:100E280000BFFDE780B400AF00BFFDE780B400AFAE
:100E380000BFFDE780B400AF00BFFDE780B400AF9E
:100E480000BFFDE780B400AF00BFBD465DF8047B7E
:100E5800704780B400AF00BFBD465DF8047B7047A3
:100E680080B400AF00BFBD465DF8047B704780B515
:100E780000AF00F0A1F900BF80BD000080B500AF51
:100E8800024801F075FD00BF80BD00BFA80000202A
:100E980080B500AF024801F06BFD00BF80BD00BF08
:100EA800F000002080B500AF024801F061FD00BFEE
:100EB80080BD00BF3801002080B500AF024801F0B6
:100EC800AFFA00BF80BD00BF5000002080B400AF63
:100ED800064BD3F88830054A43F47003C2F88830CB
:100EE80000BFBD465DF8047B704700BF00ED00E021
:100EF80080B586B000AF07F1080300221A605A6077
:100F08009A60DA603B4600221A605A601D4B4FF027
:100F180080421A601B4B40F247325A60194B00223C
:100F28009A60184B6322DA60164B00221A61154B3F
:100F380000229A61134801F05BFC0346002B01D0A4
:100F4800FFF79CFD4FF48053BB6007F10803194677
:100F58000C4801F015FE0346002B01D0FFF78EFD6B
:100F680000233B6000237B603B461946054802F09E
:100F780031F80346002B01D0FFF780FD00BF18377A
:100F8800BD4680BDA800002080B586B000AF07F13F
:100F9800080300221A605A609A60DA603B46002211
:100FA8001A605A601D4B1E4A1A601C4B40F24732A9
:100FB8005A601A4B00229A60184B6322DA60174B6A
:100FC80000221A61154B00229A61144801F010FCA6
:100FD8000346002B01D0FFF751FD4FF48053BB604F
:100FE80007F1080319460D4801F0CAFD0346002B16
:100FF80001D0FFF743FD00233B6000237B603B46A5
:101008001946064801F0E6FF0346002B01D0FFF71A
:1010180035FD00BF1837BD4680BD00BFF000002079
:101028000004004080B586B000AF07F10803002235
:101038001A605A609A60DA603B4600221A605A6069
:101048001D4B1E4A1A601C4B40F247325A601A4B1D
:1010580000229A60184B6322DA60174B00221A614B
:10106800154B00229A61144801F0C2FB0346002B7D
:1010780001D0FFF703FD4FF48053BB6007F108036D
:1010880019460D4801F07CFD0346002B01D0FFF7FF
:10109800F5FC00233B6000237B603B46194606486D
:1010A80001F098FF0346002B01D0FFF7E7FC00BFD3
:1010B8001837BD4680BD00BF380100200008004039
:1010C800DFF834D00D480E490E4A002302E0D45808
:1010D800C4500433C4188C42F9D30B4A0B4C002378
:1010E80001E013600432A242FBD3FFF7EFFE02F0E7
:1010F80009F8FFF79BFB7047000002200000002062
:101108001C0000208C3100081C00002084010020F5
:10111800FEE7000080B500AF0E4B1B680D4A43F494
:10112800007313600B4B1B680A4A43F48063136017
:10113800084B1B68074A43F480731360032000F0D0
:101148002BF90F2000F008F8FFF78EFD0023184652
:1011580080BD00BF003C024080B582B000AF78601F
:10116800124B1A68124B1B7819464FF47A73B3FB6B
:10117800F1F3B2FBF3F3184600F043F90346002BF2
:1011880001D001230EE07B680F2B0AD80022796872
:101198004FF0FF3000F00BF9064A7B68136000231C
:1011A80000E0012318460837BD4680BD1000002026
:1011B800180000201400002080B400AF064B1B78F4
:1011C8001A46064B1B681344044A136000BFBD4609
:1011D8005DF8047B704700BF1800002080010020E4
:1011E80080B400AF034B1B681846BD465DF8047B0E
:1011F800704700BF8001002080B485B000AF7860E0
:101208007B6803F00703FB600C4BDB68BB60BA68C4
:101218004FF6FF031340BB60FB681A02BB68134319
:1012280043F0BF6343F40033BB60044ABB68D36038
:1012380000BF1437BD465DF8047B704700ED00E041
:1012480080B400AF044BDB681B0A03F007031846A1
:10125800BD465DF8047B704700ED00E080B483B0C4
:1012680000AF0346FB7197F90730002B0BDBFB79C6
:1012780003F01F02074997F907305B09012000FABC
:1012880002F241F8232000BF0C37BD465DF8047B0D
:10129800704700BF00E100E080B483B000AF0346B0
:1012A8003960FB7197F90730002B0ADB3B68DAB22B
:1012B8000C4997F907301201D2B20B4483F8002386
:1012C8000AE03B68DAB20849FB7903F00F03043BF4
:1012D8001201D2B20B441A7600BF0C37BD465DF836
:1012E800047B704700E100E000ED00E080B489B0C5
:1012F80000AFF860B9607A60FB6803F00703FB6130
:10130800FB69C3F10703042B28BF0423BB61FB69F6
:101318000433062B02D9FB69033B00E000237B6101
:101328004FF0FF32BB6902FA03F3DA43BB681A4095
:101338007B699A404FF0FF317B6901FA03F3D94387
:101348007B680B40134318462437BD465DF8047B81
:101358007047000080B582B000AF78607B68013BC1
:10136800B3F1807F01D301230FE00A4A7B68013B78
:1013780053600F214FF0FF30FFF78EFF054B00221F
:101388009A60044B07221A60002318460837BD46A6
:1013980080BD00BF10E000E080B582B000AF78608B
:1013A8007868FFF729FF00BF0837BD4680BD80B5C4
:1013B80086B000AF0346B9607A60FB7300237B6197
:1013C800FFF73EFF78617A68B9687869FFF78EFFA2
:1013D800024697F90F3011461846FFF75DFF00BF28
:1013E8001837BD4680BD80B582B000AF0346FB719B
:1013F80097F907301846FFF731FF00BF0837BD4699
:1014080080BD80B582B000AF78607868FFF7A2FF32
:10141800034618460837BD4680BD80B483B000AF88
:1014280078607B6893F83530DBB2022B04D07B6898
:1014380080225A6501230CE07B68052283F8352059
:101448007B681B681A687B681B6822F001021A60B7
:10145800002318460C37BD465DF8047B7047000032
:1014680080B489B000AF7860396000237B610023C5
:101478003B610023BB610023FB616BE10122FB6937
:1014880002FA03F37B613B681B687A6913403B618E
:101498003A697B699A4240F05A813B685B6803F07D
:1014A8000303012B05D03B685B6803F00303022BA1
:1014B80030D17B689B68BB61FB695B00032202FA41
:1014C80003F3DB43BA691340BB613B68DA68FB6925
:1014D8005B0002FA03F3BA691343BB617B68BA691C
:1014E8009A607B685B68BB610122FB6902FA03F3BF
:1014F800DB43BA691340BB613B685B681B0903F0B7
:101508000102FB6902FA03F3BA691343BB617B6802
:10151800BA695A603B685B6803F00303032B17D072
:101528007B68DB68BB61FB695B00032202FA03F39B
:10153800DB43BA691340BB613B689A68FB695B008F
:1015480002FA03F3BA691343BB617B68BA69DA60CC
:101558003B685B6803F00303022B23D1FB69DA08BD
:101568007B68083253F82230BB61FB6903F007033C
:101578009B000F2202FA03F3DB43BA691340BB61F5
:101588003B681A69FB6903F007039B0002FA03F33F
:10159800BA691343BB61FB69DA087B680832B96929
:1015A80043F822107B681B68BB61FB695B00032260
:1015B80002FA03F3DB43BA691340BB613B685B681B
:1015C80003F00302FB695B0002FA03F3BA691343F1
:1015D800BB617B68BA691A603B685B6803F4403397
:1015E800002B00F0B4800023FB60604B5B6C5F4A0B
:1015F80043F4804353645D4B5B6C03F48043FB60AE
:10160800FB685B4AFB699B08023352F82330BB61D5
:10161800FB6903F003039B000F2202FA03F3DB4389
:10162800BA691340BB617B68524A93422BD07B68EE
:10163800514A934225D07B68504A93421FD07B6819
:101648004F4A934219D07B684E4A934213D07B6825
:101658004D4A93420DD07B684C4A934207D07B6831
:101668004B4A934201D107230EE008230CE00623DE
:101678000AE0052308E0042306E0032304E002232C
:1016880002E0012300E00023FA6902F0030292005D
:101698009340BA691343BB613549FB699B08023320
:1016A800BA6941F823203B4B1B68BB613B69DB43AC
:1016B800BA691340BB613B685B6803F48033002B55
:1016C80003D0BA693B691343BB61324ABB691360F3
:1016D800304B5B68BB613B69DB43BA691340BB6154
:1016E8003B685B6803F40033002B03D0BA693B699D
:1016F8001343BB61274ABB695360264B9B68BB6198
:101708003B69DB43BA691340BB613B685B6803F420
:101718008013002B03D0BA693B691343BB611D4A90
:10172800BB6993601B4BDB68BB613B69DB43BA69F0
:101738001340BB613B685B6803F40013002B03D0C4
:10174800BA693B691343BB61124ABB69D360FB6941
:101758000133FB61FB690F2B7FF690AE00BF00BF22
:101768002437BD465DF8047B704700BF003802404F
:101778000038014000000240000402400008024016
:10178800000C024000100240001402400018024001
:10179800001C0240003C014080B483B000AF786078
:1017A8000B467B8013467B707B78002B03D07A88AE
:1017B8007B689A6103E07B881A047B689A6100BFA2
:1017C8000C37BD465DF8047B7047000080B586B0D5
:1017D80000AF78607B68002B01D1012367E27B684A
:1017E8001B6803F00103002B75D0884B9B6803F03E
:1017F8000C03042B0CD0854B9B6803F00C03082BBF
:1018080012D1824B5B6803F48003B3F5800F0BD1D0
:101818007E4B1B6803F40033002B5BD07B685B684E
:10182800002B57D1012342E27B685B68B3F5803F08
:1018380006D1764B1B68754A43F4803313601DE06C
:101848007B685B68B3F5A02F0CD1704B1B686F4A9F
:1018580043F4802313606D4B1B686C4A43F4803358
:1018680013600BE0694B1B68684A23F480331360EC
:10187800664B1B68654A23F4802313607B685B68AA
:10188800002B13D0FFF7ACFC386108E0FFF7A8FC89
:1018980002463B69D31A642B01D9032307E25B4B49
:1018A8001B6803F40033002BF0D014E0FFF798FC1A
:1018B800386108E0FFF794FC02463B69D31A642BB1
:1018C80001D90323F3E1514B1B6803F40033002BC8
:1018D800F0D100E000BF7B681B6803F00203002B17
:1018E80063D04A4B9B6803F00C03002B0BD0474B8B
:1018F8009B6803F00C03082B1CD1444B5B6803F472
:101908008003002B16D1414B1B6803F00203002B08
:1019180005D07B68DB68012B01D00123C7E13B4B75
:101928001B6823F0F8027B681B69DB003749134307
:101938000B603AE07B68DB68002B20D0344B012237
:101948001A60FFF74DFC386108E0FFF749FC0246D2
:101958003B69D31A022B01D90323A8E12B4B1B683F
:1019680003F00203002BF0D0284B1B6823F0F80289
:101978007B681B69DB00254913430B6015E0244B8A
:1019880000221A60FFF72CFC386108E0FFF728FCFA
:1019980002463B69D31A022B01D9032387E11B4B6B
:1019A8001B6803F00203002BF0D17B681B6803F06F
:1019B8000803002B36D07B685B69002B16D0154BCB
:1019C80001221A60FFF70CFC386108E0FFF708FCF9
:1019D80002463B69D31A022B01D9032367E10B4B5B
:1019E8005B6F03F00203002BF0D01BE0094B0022D1
:1019F8001A60FFF7F5FB38610EE0FFF7F1FB0246CE
:101A08003B69D31A022B07D9032350E1003802405F
:101A180000004742800E4742884B5B6F03F0020389
:101A2800002BEAD17B681B6803F00403002B00F04D
:101A380097800023FB75814B1B6C03F08053002BB0
:101A48000FD10023BB607D4B1B6C7C4A43F0805355
:101A580013647A4B1B6C03F08053BB60BB68012393
:101A6800FB75774B1B6803F48073002B18D1744BFC
:101A78001B68734A43F480731360FFF7B1FB386146
:101A880008E0FFF7ADFB02463B69D31A022B01D9E8
:101A980003230CE16A4B1B6803F48073002BF0D01E
:101AA8007B689B68012B06D1644B1B6F634A43F02C
:101AB800010313671CE07B689B68052B0CD15F4B07
:101AC8001B6F5E4A43F0040313675C4B1B6F5B4A52
:101AD80043F0010313670BE0584B1B6F574A23F081
:101AE80001031367554B1B6F544A23F00403136714
:101AF8007B689B68002B15D0FFF772FB38610AE002
:101B0800FFF76EFB02463B69D31A41F288329342D3
:101B180001D90323CBE0494B1B6F03F00203002BD1
:101B2800EED014E0FFF75CFB38610AE0FFF758FBE2
:101B380002463B69D31A41F28832934201D9032302
:101B4800B5E03E4B1B6F03F00203002BEED1FB7D8B
:101B5800012B05D1394B1B6C384A23F08053136491
:101B68007B689B69002B00F0A180344B9B6803F0D5
:101B78000C03082B5CD07B689B69022B41D1314B4D
:101B880000221A60FFF72CFB386108E0FFF728FBFA
:101B980002463B69D31A022B01D9032387E0274B5E
:101BA8001B6803F00073002BF0D17B68DA697B684F
:101BB8001B6A1A437B685B6A9B011A437B689B6AB2
:101BC8005B08013B1B041A437B68DB6A1B061B4945
:101BD80013434B601B4B01221A60FFF701FB38616E
:101BE80008E0FFF7FDFA02463B69D31A022B01D938
:101BF80003235CE0114B1B6803F00073002BF0D04B
:101C080054E0104B00221A60FFF7EAFA386108E046
:101C1800FFF7E6FA02463B69D31A022B01D90323E0
:101C280045E0064B1B6803F00073002BF0D13DE044
:101C38007B689B69012B07D1012338E000380240FB
:101C480000700040600047421B4B5B68FB607B688C
:101C58009B69012B28D0FB6803F480027B68DB6951
:101C68009A4221D1FB6803F03F027B681B6A9A42C3
:101C78001AD1FA6847F6C07313407A68526A92011B
:101C8800934211D1FB6803F440327B689B6A5B087E
:101C9800013B1B049A4207D1FB6803F070627B6822
:101CA800DB6A1B069A4201D0012300E00023184694
:101CB8001837BD4680BD00BF0038024080B584B0EB
:101CC80000AF786039607B68002B01D10123CCE03C
:101CD800684B1B6803F007033A689A420CD9654BB6
:101CE8003A68D2B21A70634B1B6803F007033A686C
:101CF8009A4201D00123B8E07B681B6803F0020315
:101D0800002B20D07B681B6803F00403002B05D050
:101D1800594B9B68584A43F4E05393607B681B68AF
:101D280003F00803002B05D0534B9B68524A43F439
:101D380060439360504B9B6823F0F0027B689B687C
:101D48004D4913438B607B681B6803F00103002B2C
:101D580044D07B685B68012B07D1474B1B6803F4B1
:101D68000033002B19D101237FE07B685B68022BCD
:101D780003D07B685B68032B07D13F4B1B6803F0DC
:101D88000073002B09D101236FE03B4B1B6803F064
:101D98000203002B01D1012367E0374B9B6823F036
:101DA80003027B685B68344913438B60FFF718FABA
:101DB800F8600AE0FFF714FA0246FB68D31A41F20A
:101DC8008832934201D903234FE02B4B9B6803F0E1
:101DD8000C027B685B689B009A42EBD1254B1B6821
:101DE80003F007033A689A420CD2224B3A68D2B2FF
:101DF8001A70204B1B6803F007033A689A4201D017
:101E0800012332E07B681B6803F00403002B08D031
:101E1800194B9B6823F4E0527B68DB68164913432F
:101E28008B607B681B6803F00803002B09D0124BFA
:101E38009B6823F460427B681B69DB000E491343EF
:101E48008B6000F021F802460B4B9B681B0903F0DE
:101E58000F030A49CB5C22FA03F3094A1360094BC2
:101E68001B681846FFF778F9002318461037BD4657
:101E780080BD00BF003C0240003802406C310008C1
:101E880010000020140000202DE9B04F94B000AFDE
:101E980000237B640023FB6400233B640023BB64B2
:101EA800794B9B6803F00C03082B0DD0082B00F22C
:101EB800E180002B02D0042B03D0DBE0734BBB6422
:101EC800DBE0734BBB64D8E06F4B5B6803F03F0308
:101ED8007B646D4B5B6803F48003002B63D06A4B13
:101EE8005B689B090022BB63FA63BB6BC3F30803FF
:101EF8003B6300237B63D7E90C4522462B464FF012
:101F080000004FF00001590141EAD2615001024638
:101F18000B462146511A3961294663EB01037B615F
:101F28004FF000024FF00003D7E904AB59468B018C
:101F3800514643EA916351468A015146B2EB010882
:101F4800594663EB01094FF000024FF000034FEAD6
:101F5800C90343EA58734FEAC80290469946234694
:101F680018EB0303BB602B4649EB0303FB604FF000
:101F780000024FF00003D7E9024529464B022146EB
:101F880043EAD15321464A02104619467B6C002287
:101F9800BB62FA62D7E90A23FEF712F902460B463A
:101FA8001346FB6458E0384B5B689B0900221846CF
:101FB8001146C0F308033B6200237B62D7E9088916
:101FC80042464B464FF000004FF00001590141EAEC
:101FD800D261500102460B464146B2EB010A49461E
:101FE80063EB010B4FF000024FF000034FEA8B1335
:101FF80043EA9A634FEA8A12B2EB0A0463EB0B05D1
:102008004FF000024FF00003EB0043EA5473E20084
:1020180014461D464346E3183B604B4645EB030315
:102028007B604FF000024FF00003D7E900452946D6
:102038008B02214643EA915321468A0210461946EB
:102048007B6C0022BB61FA61D7E90623FEF7B8F87A
:1020580002460B461346FB640B4B5B681B0C03F0F4
:10206800030301335B003B64FA6C3B6CB2FBF3F394
:10207800BB6402E0054BBB6400BFBB6C184650371D
:10208800BD46BDE8B08F00BF003802400024F40010
:1020980000127A0080B582B000AF78607B68002BB0
:1020A80001D101237BE07B685B6A002B08D17B6848
:1020B8005B68B3F5827F09D07B680022DA6105E0AE
:1020C8007B6800221A617B6800225A617B680022C3
:1020D8009A627B6893F85130DBB2002B06D17B689B
:1020E800002283F850207868FEF7E6FD7B6802221C
:1020F80083F851207B681B681A687B681B6822F08C
:1021080040021A607B685B6803F482727B689B6894
:1021180003F404431A437B68DB6803F400631A433F
:102128007B681B6903F002031A437B685B6903F051
:1021380001031A437B689B6903F400731A437B68A5
:10214800DB6903F038031A437B681B6A03F08003DA
:1021580042EA03017B689B6A03F400527B681B68B0
:102168000A431A607B689B691B0C03F004017B68B7
:102178005B6A03F010027B681B680A435A607B683D
:102188001B68DA697B681B6822F40062DA617B6885
:1021980000225A657B68012283F8512000231846E3
:1021A8000837BD4680BD80B588B000AFF860B9601B
:1021B8003B601346FB800023FB77FB6893F85030A5
:1021C800012B01D1022326E1FB68012283F850206C
:1021D800FFF706F8B861FB88FB82FB6893F851307B
:1021E800DBB2012B02D00223FB770BE1BB68002B8B
:1021F80002D0FB88002B02D10123FB7702E1FB68A8
:10220800032283F85120FB6800225A65FB68BA68EC
:102218001A63FB68FA889A86FB68FA88DA86FB688C
:1022280000229A63FB6800229A87FB680022DA87FB
:10223800FB6800225A64FB6800221A64FB689B68EA
:10224800B3F5004F0FD1FB681B681A68FB681B6861
:1022580022F040021A60FB681B681A68FB681B685A
:1022680042F480421A60FB681B681B6803F0400355
:10227800402B07D0FB681B681A68FB681B6842F094
:1022880040021A60FB68DB68B3F5006F4BD1FB684E
:102298005B68002B02D0FB8A012B3ED1FB681B6BCD
:1022A8001A88FB681B68DA60FB681B6B9A1CFB6862
:1022B8001A63FB68DB8E9BB2013B9AB2FB68DA8635
:1022C8002BE0FB681B689B6803F00203022B12D10A
:1022D800FB681B6B1A88FB681B68DA60FB681B6B62
:1022E8009A1CFB681A63FB68DB8E9BB2013B9AB2AF
:1022F800FB68DA8611E0FEF773FF0246BB69D31A62
:102308003A689A4203D83B68B3F1FF3F02D13B6871
:10231800002B02D10323FB7774E0FB68DB8E9BB2B2
:10232800002BCED14CE0FB685B68002B02D0FB8A07
:10233800012B40D1FB681A6BFB681B680C331278C1
:102348001A70FB681B6B5A1CFB681A63FB68DB8EF0
:102358009BB2013B9AB2FB68DA862CE0FB681B68EB
:102368009B6803F00203022B13D1FB681A6BFB680E
:102378001B680C3312781A70FB681B6B5A1CFB68BD
:102388001A63FB68DB8E9BB2013B9AB2FB68DA8664
:1023980011E0FEF725FF0246BB69D31A3A689A4254
:1023A80003D83B68B3F1FF3F02D13B68002B02D151
:1023B8000323FB7726E0FB68DB8E9BB2002BCDD195
:1023C800BA693968F86800F0D1F90346002B02D0E1
:1023D800FB6820225A65FB689B68002B0AD1002302
:1023E8003B61FB681B68DB683B61FB681B689B689B
:1023F8003B613B69FB685B6D002B02D00123FB77D7
:1024080000E000BFFB68012283F85120FB6800222E
:1024180083F85020FB7F18462037BD4680BD00005A
:1024280080B588B000AF78607B681B685B68FB612B
:102438007B681B689B68BB61BB699B0903F0010350
:10244800002B0FD1BB6903F00103002B0AD0FB69F5
:102458009B0903F00103002B04D07B681B6C786890
:102468009847D7E0BB695B0803F00103002B0AD04B
:10247800FB69DB0903F00103002B04D07B685B6C6C
:1024880078689847C6E0BB695B0903F00103002B35
:102498000CD1BB699B0903F00103002B06D1BB6972
:1024A8001B0A03F00103002B00F0B480FB695B09F1
:1024B80003F00103002B00F0AD80BB699B0903F01A
:1024C8000103002B23D07B6893F85130DBB2032B38
:1024D80011D07B685B6D43F004027B685A6500236A
:1024E8007B617B681B68DB687B617B681B689B681A
:1024F8007B617B690BE000233B617B681B68DB68C1
:102508003B617B681B689B683B613B6982E0BB69F8
:102518005B0903F00103002B14D07B685B6D43F06B
:1025280001027B685A650023FB607B681B689B6817
:10253800FB607B681B681A687B681B6822F0400296
:102548001A60FB68BB691B0A03F00103002B0CD05F
:102558007B685B6D43F008027B685A650023BB60AB
:102568007B681B689B68BB60BB687B685B6D002BE6
:102578004FD07B681B685A687B681B6822F0E002B2
:102588005A607B68012283F85120FB6903F002033B
:10259800002B04D1FB6903F00103002B34D07B68C6
:1025A8001B685A687B681B6822F003025A607B68C4
:1025B800DB6C002B11D07B68DB6C184A1A657B68D2
:1025C800DB6C1846FEF729FF0346002B05D07B6815
:1025D8005B6D43F040027B685A657B689B6C002BFF
:1025E80016D07B689B6C0D4A1A657B689B6C1846F5
:1025F800FEF713FF0346002B0AD07B685B6D43F0A0
:1026080040027B685A6503E0786800F009F800E04A
:1026180000BF00BF2037BD4680BD00BF3D26000873
:1026280080B483B000AF786000BF0C37BD465DF85A
:10263800047B704780B584B000AF78607B689B6B83
:10264800FB60FB680022DA87FB680022DA86F868FC
:10265800FFF7E6FF00BF1037BD4680BD80B588B0E4
:1026680000AFF860B9603B601346FB71FEF7B8FD38
:102678000246BB6A9B1A3A681344FB61FEF7B0FD39
:10268800B861394B1B685B011B0DFA6902FB03F348
:102698007B6154E03B68B3F1FF3F50D0FEF7A0FDEB
:1026A8000246BB69D31AFA699A4202D9FB69002B20
:1026B8003DD1FB681B685A68FB681B6822F0E00282
:1026C8005A60FB685B68B3F5827F11D1FB689B6831
:1026D800B3F5004F04D0FB689B68B3F5806F07D152
:1026E800FB681B681A68FB681B6822F040021A60C6
:1026F800FB689B6AB3F5005F0FD1FB681B681A681B
:10270800FB681B6822F400521A60FB681B681A6891
:10271800FB681B6842F400521A60FB68012283F8C8
:102728005120FB68002283F85020032317E07B69BF
:10273800002B01D10023FB617B69013B7B61FB68B6
:102748001B689A68BB681340BA689A420CBF012399
:102758000023DBB21A46FB799A429BD10023184624
:102768002037BD4680BD00BF1000002080B588B06E
:1027780002AFF860B9607A601B4B1B681B4AA2FB6A
:1027880003235B0D4FF47A7202FB03F37B61FB6852
:102798005B68B3F5827F12D17B680093BB68002227
:1027A8008021F868FFF75AFF0346002B16D0FB6814
:1027B8005B6D43F02002FB685A6503230FE07B69D9
:1027C800002B0AD07B69013B7B61FB681B689B6817
:1027D80003F08003802BF2D000E000BF00231846EE
:1027E8001837BD4680BD00BF10000020819F5E16CF
:1027F80080B582B000AF78607B68002B01D10123DF
:1028080041E07B6893F83D30DBB2002B06D17B6852
:10281800002283F83C207868FEF79EFA7B68022243
:1028280083F83D207B681A687B6804331946104694
:1028380000F096FA7B68012283F846207B68012223
:1028480083F83E207B68012283F83F207B680122C1
:1028580083F840207B68012283F841207B680122AD
:1028680083F842207B68012283F843207B68012299
:1028780083F844207B68012283F845207B68012285
:1028880083F83D20002318460837BD4680BD000068
:1028980080B485B000AF78607B6893F83D30DBB2D8
:1028A800012B01D001234EE07B68022283F83D20F2
:1028B8007B681B68DA687B681B6842F00102DA6093
:1028C8007B681B68234A934222D07B681B68B3F15C
:1028D800804F1DD07B681B681F4A934218D07B68C5
:1028E8001B681E4A934213D07B681B681C4A93429C
:1028F8000ED07B681B681B4A934209D07B681B6813
:10290800194A934204D07B681B68184A934211D134
:102918007B681B689B6803F00703FB60FB68062B5A
:1029280010D07B681B681A687B681B6842F001023C
:102938001A6007E07B681B681A687B681B6842F0AE
:1029480001021A60002318461437BD465DF8047B5F
:10295800704700BF0000014000040040000800402C
:10296800000C0040000401400040014000180040F5
:1029780080B582B000AF78607B681B681B6903F084
:102988000203022B22D17B681B68DB6803F0020379
:10299800022B1BD17B681B686FF002021A617B68EF
:1029A80001221A777B681B689B6903F00303002BDD
:1029B80003D0786800F0B5F905E0786800F0A7F969
:1029C800786800F0B8F97B6800221A777B681B6882
:1029D8001B6903F00403042B22D17B681B68DB68A6
:1029E80003F00403042B1BD17B681B686FF00402FF
:1029F8001A617B6802221A777B681B689B6903F45B
:102A08004073002B03D0786800F08BF905E07868F4
:102A180000F07DF9786800F08EF97B6800221A775B
:102A28007B681B681B6903F00803082B22D17B68AD
:102A38001B68DB6803F00803082B1BD17B681B6845
:102A48006FF008021A617B6804221A777B681B689A
:102A5800DB6903F00303002B03D0786800F061F909
:102A680005E0786800F053F9786800F064F97B684D
:102A780000221A777B681B681B6903F01003102B70
:102A880022D17B681B68DB6803F01003102B1BD175
:102A98007B681B686FF010021A617B6808221A773E
:102AA8007B681B68DB6903F44073002B03D07868EC
:102AB80000F037F905E0786800F029F9786800F047
:102AC8003AF97B6800221A777B681B681B6903F058
:102AD8000103012B0ED17B681B68DB6803F001033F
:102AE800012B07D17B681B686FF001021A617868B7
:102AF800FEF716F87B681B681B6903F08003802BC0
:102B08000ED17B681B68DB6803F08003802B07D13C
:102B18007B681B686FF080021A61786800F0E0FA41
:102B28007B681B681B6903F04003402B0ED17B6850
:102B38001B68DB6803F04003402B07D17B681B68E8
:102B48006FF040021A61786800F0FFF87B681B6834
:102B58001B6903F02003202B0ED17B681B68DB6800
:102B680003F02003202B07D17B681B686FF020023D
:102B78001A61786800F0AAFA00BF0837BD4680BD20
:102B880080B584B000AF786039600023FB737B6840
:102B980093F83C30012B01D10223B4E07B68012279
:102BA80083F83C207B68022283F83D207B681B6801
:102BB8009B68BB60BB6823F07703BB60BB6823F4EA
:102BC8007F43BB607B681B68BA689A603B681B6878
:102BD800B3F5005F3ED0B3F5005F00F28780B3F530
:102BE800805F00F08680B3F5805F7FD8702B1AD0A5
:102BF800702B7BD8602B50D0602B77D8502B3CD0D3
:102C0800502B73D8402B58D0402B6FD8302B64D022
:102C1800302B6BD8202B60D0202B67D8002B5CD0B2
:102C2800102B5AD062E07B6818683B6899683B684B
:102C38005A683B68DB6800F0ADF97B681B689B68E5
:102C4800BB60BB6843F07703BB607B681B68BA68EE
:102C58009A604FE07B6818683B6899683B685A68D7
:102C68003B68DB6800F096F97B681B689A687B68AC
:102C78001B6842F480429A603CE07B6818683B68B5
:102C880059683B68DB681A4600F00AF97B681B68DC
:102C98005021184600F063F92CE07B6818683B68FF
:102CA80059683B68DB681A4600F029F97B681B689D
:102CB8006021184600F053F91CE07B6818683B68EF
:102CC80059683B68DB681A4600F0EAF87B681B68BD
:102CD8004021184600F043F90CE07B681A683B680D
:102CE8001B681946104600F03AF903E00123FB730C
:102CF80000E000BF7B68012283F83D207B6800224A
:102D080083F83C20FB7B18461037BD4680BD80B455
:102D180083B000AF786000BF0C37BD465DF8047B18
:102D2800704780B483B000AF786000BF0C37BD46F1
:102D38005DF8047B704780B483B000AF786000BF53
:102D48000C37BD465DF8047B704780B483B000AF94
:102D5800786000BF0C37BD465DF8047B7047000003
:102D680080B485B000AF786039607B681B68FB6011
:102D78007B68404A934213D07B68B3F1804F0FD0F1
:102D88007B683D4A93420BD07B683C4A934207D00C
:102D98007B683B4A934203D07B683A4A934208D106
:102DA800FB6823F07003FB603B685B68FA681343B9
:102DB800FB607B682F4A93422BD07B68B3F1804F2E
:102DC80027D07B682C4A934223D07B682B4A9342B6
:102DD8001FD07B682A4A93421BD07B68294A9342BA
:102DE80017D07B68284A934213D07B68274A9342BE
:102DF8000FD07B68264A93420BD07B68254A9342C2
:102E080007D07B68244A934203D07B68234A9342C5
:102E180008D1FB6823F44073FB603B68DB68FA6801
:102E28001343FB60FB6823F080023B685B69134334
:102E3800FB607B68FA681A603B689A687B68DA62AC
:102E48003B681A687B689A627B680A4A934203D097
:102E58007B680C4A934203D13B681A697B681A6302
:102E68007B6801225A6100BF1437BD465DF8047BB8
:102E7800704700BF00000140000400400008004007
:102E8800000C0040000401400040014000440140A3
:102E98000048014000180040001C0040002000408D
:102EA80080B487B000AFF860B9607A60FB681B6ACD
:102EB8007B61FB681B6A23F00102FB681A62FB68EE
:102EC8009B693B613B6923F0F0033B617B681B0115
:102ED8003A6913433B617B6923F00A037B617A6992
:102EE800BB6813437B61FB683A699A61FB687A693E
:102EF8001A6200BF1C37BD465DF8047B704780B47A
:102F080087B000AFF860B9607A60FB681B6A23F08D
:102F18001002FB681A62FB689B697B61FB681B6A8D
:102F28003B617B6923F470437B617B681B037A698F
:102F380013437B613B6923F0A0033B61BB681B0122
:102F48003A6913433B61FB687A699A61FB683A699D
:102F58001A6200BF1C37BD465DF8047B704780B419
:102F680085B000AF786039607B689B68FB60FB6860
:102F780023F07003FB603A68FB68134343F00703D0
:102F8800FB607B68FA689A6000BF1437BD465DF83D
:102F9800047B704780B487B000AFF860B9607A608E
:102FA8003B60FB689B687B617B6923F47F437B61A3
:102FB8003B681A027B681A43BB6813437A69134358
:102FC8007B61FB687A699A6000BF1C37BD465DF873
:102FD800047B704780B485B000AF786039607B6847
:102FE80093F83C30012B01D102235AE07B6801227F
:102FF80083F83C207B68022283F83D207B681B68AD
:103008005B68FB607B681B689B68BB60FB6823F0A0
:103018007003FB603B681B68FA681343FB607B68BE
:103028001B68FA685A607B681B68214A934222D061
:103038007B681B68B3F1804F1DD07B681B681D4AF5
:10304800934218D07B681B681B4A934213D07B6855
:103058001B681A4A93420ED07B681B68184A934231
:1030680009D07B681B68174A934204D07B681B68A9
:10307800154A93420CD1BB6823F08003BB603B68C0
:103088005B68BA681343BB607B681B68BA689A6060
:103098007B68012283F83D207B68002283F83C206E
:1030A800002318461437BD465DF8047B704700BFFF
:1030B800000001400004004000080040000C0040EF
:1030C80000040140004001400018004080B483B073
:1030D80000AF786000BF0C37BD465DF8047B7047D1
:1030E80080B483B000AF786000BF0C37BD465DF890
:1030F800047B704702440346934200D1704703F8AB
:10310800011BF9E770B50D4D0D4C641BA41000268A
:10311800A64209D10B4D0C4C00F018F8641BA41002
:103128000026A64205D170BD55F8043B98470136E4
:10313800EEE755F8043B98470136F2E7843100087A
:10314800843100088431000888310008F8B500BFD0
:10315800F8BC08BC9E467047F8B500BFF8BC08BC70
:043168009E467047C8
:10316C00000000000000000001020304060708092B
:08317C007CD0FF7F0100000080
:04318400AD01000891
:0431880089010008B1
:10318C0000010203039F250D9949411F0109FFFF0F
:0C319C000024F4001000000001000000FE
:04000005080010C916
:00000001FF
