:020000040800F2
:1000000000000220B9470008E1440008E744000866
:10001000ED440008F3440008F94400080000000023
:10002000000000000000000000000000FF44000885
:100030000D450008000000001B4500082945000888
:10004000094800080948000809480008094800084C
:10005000094800080948000809480008094800083C
:10006000094800080948000809480008094800082C
:10007000094800080948000809480008094800081C
:10008000094800080948000809480008094800080C
:1000900009480008094800080948000809480008FC
:1000A00009480008094800080948000809480008EC
:1000B0003545000809480008494500080948000876
:1000C00009480008094800080948000809480008CC
:1000D00009480008094800080948000809480008BC
:1000E00009480008094800080948000809480008AC
:1000F000094800080948000809480008094800089C
:10010000094800080948000809480008094800088B
:10011000094800080948000809480008094800087B
:10012000094800080948000809480008094800086B
:10013000094800080948000809480008094800085B
:10014000094800080948000809480008094800084B
:10015000094800080948000809480008094800083B
:10016000094800080948000809480008094800082B
:100170000948000809480008094800080000000074
:080180000948000809480008C5
:1001880010B5054C237833B9044B13B10448AFF3C9
:1001980000800123237010BD14000020000000001F
:1001A8008080000808B5034B1BB103490348AFF32F
:1001B800008008BD000000001800002080800008B2
:1001C800034613F8012B002AFBD1181A013870478F
:1001D80053B94AB9002908BF00281CBF4FF0FF31A6
:1001E8004FF0FF3000F070B9ADF1080C6DE904CEA6
:1001F80000F006F8DDF804E0DDE9022304B07047FA
:100208002DE9F047089E0D4604460F46002B4AD1BB
:100218008A42944665D9B2FA82F343B102FA03FCE2
:10022800C3F120029F4020FA02F217439C404FEA94
:100238001C4E1FFA8CF5B7FBFEF1220C0EFB117752
:1002480042EA074201FB05F090420AD91CEB020280
:1002580001F1FF3780F01C81904240F21981023988
:100268006244121AA4B2B2FBFEF00EFB102244EA5A
:10027800024400FB05F5A5420AD91CEB040400F171
:10028800FF3280F00781A54240F2048164440238BD
:1002980040EA0140641B00211EB1DC400023C6E98E
:1002A8000043BDE8F0878B4208D9002E00F0ED80AE
:1002B8000021C6E900050846BDE8F087B3FA83F1D6
:1002C800002949D1AB4202D3824200F2F880841A55
:1002D80065EB030201201746002EE2D0C6E900476D
:1002E800DFE702B9FFDEB2FA82F3002B40F090801C
:1002F8008A1A4FEA1C471FFA8CFE0121B2FBF7F558
:1003080007FB1520220C42EA00420EFB05F0904242
:1003180008D91CEB020205F1FF3802D2904200F224
:10032800CB804546121AA4B2B2FBF7F007FB1022A5
:1003380044EA02440EFB00FEA64508D91CEB04045F
:1003480000F1FF3202D2A64500F2BB801046A4EBB2
:100358000E0440EA05409FE7C1F120078B4022FACE
:1003680007FC4CEA030C05FA01F420FA07F3FD40F8
:100378004FEA1C492343B5FBF9F81FFA8CFE09FB29
:1003880018551C0C44EA054408FB0EF5A54202FA70
:1003980001F200FA01F00BD91CEB040408F1FF3A52
:1003A80080F08880A54240F28580A8F10208644464
:1003B800641B9DB2B4FBF9F309FB134445EA0444FA
:1003C80003FB0EFEA64508D91CEB040403F1FF3518
:1003D8006CD2A6456AD9023B644443EA0843A3FBAE
:1003E8000295A4EB0E04AC42C846AE4656D353D091
:1003F80056B1B0EB080264EB0E0404FA07F7CA40E2
:10040800CC401743C6E9007418460021BDE8F087C0
:10041800C3F1200102FA03FC20FA01F225FA01F1E6
:100428009D402A434FEA1C471FFA8CFEB1FBF7F0A8
:1004380007FB1015110C41EA054100FB0EF58D4232
:1004480004FA03F408D91CEB010100F1FF382FD29C
:100458008D422DD902386144491B92B2B1FBF7F5A0
:1004680007FB151142EA014205FB0EF1914208D93A
:100478001CEB020205F1FF3816D2914214D9023D55
:100488006244521A45EA004138E73146304608E7E7
:100498003946E6E61046FBE64845A9D2B9EB02081C
:1004A80065EB0C0E013BA3E74546EAE72B4694E7CC
:1004B8004046D1E7D0467BE7023D624432E7084632
:1004C8000AE76444023842E7704700BF80B584B049
:1004D80000AF002208212F4804F0D8FC012208218F
:1004E8002C4804F0D3FC0A2302222B492B4806F09F
:1004F8001EFC0023FB604FF400437B8100237B60DC
:100508003FE07B68002B06DB7B68032B03DC7B6802
:100518000433FB6018E07B68032B07DD7B68072B3F
:1005280004DC7B68C3F10703FB600DE07B68072BE5
:1005380006DD7B680B2B03DC7B680433FB6003E080
:100548007B68C3F11703FB60134B1A887B89134040
:100558009BB2002B05D0124AFB68002122F8131029
:1005680009E00F4AFB6832F81330013399B20C4A9C
:10057800FB6822F813107B895B087B817B68013359
:100588007B607B680F2BBCDD00BF00BF1037BD460A
:1005980080BD00BF000C02405000002080010020F8
:1005A8003000002080B500AF1E2004F0DDF80346BF
:1005B8001A461C4B1A70162004F0D6F803461A4641
:1005C800184B5A70152004F0CFF803461A46154BFD
:1005D8009A70062004F0C8F803461A46114BDA70E0
:1005E8000F2004F0C1F803461A460E4B1A71092071
:1005F80004F0BAF803461A460A4B5A71172004F059
:10060800B3F803461A46074B9A7132230322D021C6
:10061800054805F0B9F80346002B00D0FEE700BFF7
:1006280080BD00BF54000020B800002080B588B00D
:1006380004AF03460A46FB711346BB71BB791846E3
:1006480004F092F80346FB73FB799AB20A230293EB
:100658000123019307F10F0300930123D0210348DD
:1006680004F072FD00BF1037BD4680BDB800002001
:1006780080B584B004AF0A23029307230193254B66
:10068800009301230022D021234804F057FE214B78
:100698001B78184604F04EF803461A461F4B1A708A
:1006A8001C4B5B78184604F045F803461A461C4B69
:1006B8001A70184B9B78184604F03CF803461A4603
:1006C800184B1A70134BDB78184604F033F80346BE
:1006D8001A46154B1A700F4B1B79184604F02AF866
:1006E80003461A46114B1A700A4B5B79184604F0F8
:1006F80021F803461A460E4B1A70064B9B7918468A
:1007080004F018F803461A460A4B1A7000BFBD4693
:1007180080BD00BF54000020B80000205D0000200C
:100728005C0000205B0000205F0000205E000020CD
:10073800600000206100002080B58EB000AF07F196
:100748001C0300221A605A609A60DA601A615A61C2
:100758009A613B4600221A605A609A60DA601A6110
:100768005A619A612F4B4FF020421A602D4B2E4A46
:100778005A602C4B00229A602A4B0022DA60294BDF
:1007880000221A61274B10225A61264B00229A61D7
:10079800244B0022DA61234B00221A62214B0022EB
:1007A8005A62204B4FF480529A621E4B0022DA6242
:1007B8001C4B4FF480421A631A4B00225A63194BA0
:1007C80000229A63174B00225A640F23FB610F2300
:1007D8003B623C237B620023BB621023FB62112334
:1007E8003B6300237B6308233B600F237B60092363
:1007F800BB600023FB6010233B6111237B61002356
:10080800BB613A4607F11C031946064806F072FE1A
:100818000346002B01D003F041FD00BF3837BD4629
:1008280080BD00BF64000020040100A080B586B030
:1008380000AF3B1D00221A605A609A60DA601A61A4
:100848001C4B1B68002B31D11A4B01221A60002364
:100858003B60194B9B6B184A43F001039363164B9B
:100868009B6B03F001033B603B684FF688737B602A
:100878000223BB600023FB6003233B610C237B61E5
:100888003B1D19460D4804F065F94CF2B3737B60C3
:100898000223BB600023FB6003233B610C237B61C5
:1008A8003B1D1946064804F055F900E000BF18370B
:1008B800BD4680BDB4000020003802400010024050
:1008C800000C024080B582B000AF7860FFF7AEFF41
:1008D80000BF0837BD4680BD80B58CB000AF07F1BA
:1008E8001C0300221A605A609A60DA601A610023B9
:1008F800BB616F4B1B6B6E4A43F0100313636C4B69
:100908001B6B03F01003BB61BB6900237B61684B61
:100918001B6B674A43F004031363654B1B6B03F0BF
:1009280004037B617B6900233B61614B1B6B604A5D
:1009380043F0800313635E4B1B6B03F080033B6142
:100948003B690023FB605A4B1B6B594A43F0010378
:100958001363574B1B6B03F00103FB60FB68002319
:10096800BB60534B1B6B524A43F008031363504B55
:100978001B6B03F00803BB60BB6800237B604C4B18
:100988001B6B4B4A43F040031363494B1B6B03F04B
:1009980040037B607B6800233B60454B1B6B444AEC
:1009A80043F002031363424B1B6B03F002033B60EB
:1009B8003B68002270213F4804F068FA00224FF497
:1009C80000513D4804F062FA002240213B4804F0FF
:1009D8005DFA00224FF48071394804F057FA00227A
:1009E8000821384804F052FA7023FB6101233B6266
:1009F80000237B620023BB6207F11C0319462D48C4
:100A080004F0A8F84FF40053FB6101233B62002374
:100A18007B620023BB6207F11C031946264804F0D9
:100A280099F8C023FB6100233B6200237B6207F136
:100A38001C031946224804F08DF83023FB6100237B
:100A48003B6200237B6207F11C0319461A4804F035
:100A580081F84023FB6101233B6200237B62002372
:100A6800BB6207F11C031946144804F073F84FF4ED
:100A78008073FB6101233B6200237B620023BB621E
:100A880007F11C0319460E4804F064F80823FB61BB
:100A980001233B6200237B620023BB6207F11C0336
:100AA8001946084804F056F800BF3037BD4680BDE7
:100AB80000380240001002400008024000180240BE
:100AC80000000240000C024080B500AF124B134AF0
:100AD8001A60114B124A5A600F4B00229A600E4B53
:100AE8000022DA600C4B4FF480421A610A4B002254
:100AF8005A61094B00229A61074B0022DA61064BC2
:100B080000221A62044804F0DBF90346002B01D0E6
:100B180003F0C4FB00BF80BDB800002000540040B3
:100B2800A086010080B58AB000AF786007F1140391
:100B380000221A605A609A60DA601A617B681B6842
:100B4800194A93422BD100233B61184B1B6B174A60
:100B580043F002031363154B1B6B03F002033B6165
:100B68003B69C0237B611223BB610023FB61032324
:100B78003B6204237B6207F1140319460C4803F017
:100B8800E9FF0023FB60094B1B6C084A43F4001380
:100B98001364064B1B6C03F40013FB60FB6800BF77
:100BA8002837BD4680BD00BF0054004000380240D1
:100BB8000004024080B483B000AF0346FB80044ABF
:100BC800FB88138000BF0C37BD465DF8047B704777
:100BD800FEFF0F6080B483B000AF0346FB80044A79
:100BE800FB88538000BF0C37BD465DF8047B704717
:100BF800FEFF0F6080B483B000AF064B5B889BB2EA
:100C0800FB80FB889BB218460C37BD465DF8047B19
:100C1800704700BFFEFF0F6090B583B000AF044679
:100C2800084611461A462346FB800346BB800B46FE
:100C38007B8013463B802A20FFF7BCFFFB881B0AFA
:100C48009BB21846FFF7C6FFFB88DBB29BB218467B
:100C5800FFF7C0FF7B881B0A9BB21846FFF7BAFF55
:100C68007B88DBB29BB21846FFF7B4FF2B20FFF757
:100C7800A1FFBB881B0A9BB21846FFF7ABFFBB88D6
:100C8800DBB29BB21846FFF7A5FF3B881B0A9BB255
:100C98001846FFF79FFF3B88DBB29BB21846FFF769
:100CA80099FF2C20FFF786FF00BF0C37BD4690BD8B
:100CB80080B584B000AF0346FB80154B1B88013B11
:100CC8009AB2134B5B88013B9BB200210020FFF7CF
:100CD800A3FF0023FB8111E00023BB8106E0FB8812
:100CE8001846FFF777FFBB890133BB81084B5B8848
:100CF800BA899A42F3D3FB890133FB81044B1B88E1
:100D0800FA899A42E8D300BF00BF1037BD4680BDBC
:100D18000C01002080B582B000AF0346FB800B4673
:100D2800BB8013467B80BB88FA88B988F888FFF7B0
:100D380073FF7B881846FFF74DFF00BF0837BD4695
:100D480080BD000090B587B000AF04460846114644
:100D58001A462346FB800346BB800B46FB701346AE
:100D68003B8000237B75FB883B8297F82C305B081F
:100D7800FB73FB7BDB08DBB21A46FB7B03F0070344
:100D8800DBB2002B14BF01230023DBB213449AB259
:100D980097F82C309BB212FB03F3BB81FB78203B06
:100DA800FB70FB7B9AB2FB8813449BB2013B9CB25D
:100DB80097F82C309AB2BB8813449BB2013B9BB284
:100DC800B988F8882246FFF727FF00237B827AE05C
:100DD80097F82C300C2B28D097F82C30102B08D1F2
:100DE800FA787B8A3C4912010A4413441B78FB7544
:100DF8001BE097F82C30182B0BD1FA78798A3748F2
:100E080013465B0013441B0103440B441B78FB751A
:100E18000BE097F82C30202B5AD1FA787B8A30498E
:100E280092010A4413441B78FB750023BB7544E008
:100E380097F83030002B20D1FA7DBB7D42FA03F3BE
:100E480003F00103002B04D03B881846FFF7C2FECD
:100E580003E03B8D1846FFF7BDFE7B7D01337B75B4
:100E68007B7DFA7BB3FBF2F101FB02F29B1ADBB24A
:100E7800002B1FD100237B7522E0FA7DBB7D42FA4F
:100E880003F303F00103002B05D03A88B988FB88E7
:100E98001846FFF73FFFFB880133FB80FA883B8A3F
:100EA800D21AFB7B9A4205D13B8AFB80BB8801336F
:100EB800BB8005E0BB7D0133BB75BB7D072BB7D974
:100EC8007B8A01337B827A8ABB899A4280D300E08D
:100ED80000BF1C37BD4690BD488100083887000810
:100EE8000899000880B485B000AF03460A46FB7134
:100EF8001346BB710123FB6004E0FA79FB6802FB2F
:100F080003F3FB60BB795A1EBA71002BF5D1FB685D
:100F180018461437BD465DF8047B704790B589B014
:100F280004AF0446084611461A462346FB8003468A
:100F3800BB800B467B8013467B700023BB7397F8FE
:100F480028305B087B730023FB7359E07C887A7830
:100F5800FB7BD31ADBB2013BDBB219460A20FFF751
:100F6800C1FF0346B4FBF3F12A4BA3FB0123DA08C4
:100F780013469B0013445B00CA1A13463B73BB7BA2
:100F8800002B21D1FA7B7B78013B9A421CDA3B7B10
:100F9800002B17D1FB7B9AB27B7B9BB212FB03F32E
:100FA8009AB2FB88134498B23A8CB988002302930A
:100FB80097F828300193BB8C009313462022FFF743
:100FC800C1FE1AE00123BB73FB7B9AB27B7B9BB209
:100FD80012FB03F39AB2FB88134498B23B7B30337D
:100FE800DAB23C8CB9880023029397F82830019331
:100FF800BB8C00932346FFF7A5FEFB7B0133FB73F5
:10100800FA7B7B789A42A1D300BF00BF1437BD4654
:1010180090BD00BFCDCCCCCC80B483B000AF03462C
:10102800FB71FB791B09DBB203F00303DBB2002B76
:1010380007D00A4B4FF4A0721A80084BF0225A804E
:1010480006E0064BF0221A80044B4FF4A0725A8037
:1010580000BF0C37BD465DF8047B70470C010020CB
:1010680080B500AF00224FF40051AA4803F00EFFEC
:101078004FF4FA7003F038FC01224FF40051A548F0
:1010880003F004FF4FF4FA7003F02EFC0020FFF782
:10109800C3FFD320FFF78EFDFFF7ACFD03461A46CA
:1010A8009D4B9A80FFF7A6FD03461A469A4B9A80F5
:1010B800FFF7A0FD03461A46974B9A80964B9B88EC
:1010C8001B029AB2944B9A80FFF794FD03461A4686
:1010D800914B9B8813439AB28F4B9A80CF20FFF78E
:1010E80069FD0020FFF776FDC120FFF773FD302072
:1010F800FFF770FDED20FFF75DFD6420FFF76AFD47
:101108000320FFF767FD1220FFF764FD8120FFF73A
:1011180061FDE820FFF74EFD8520FFF75BFD1020FD
:10112800FFF758FD7A20FFF755FDCB20FFF742FD6A
:101138003920FFF74FFD2C20FFF74CFD0020FFF76B
:1011480049FD3420FFF746FD0220FFF743FDF72055
:10115800FFF730FD2020FFF73DFDEA20FFF72AFDCD
:101168000020FFF737FD0020FFF734FDC020FFF710
:1011780021FD1B20FFF72EFDC120FFF71BFD0120DD
:10118800FFF728FDC520FFF715FD3020FFF722FDEA
:101198003020FFF71FFDC720FFF70CFDB720FFF732
:1011A80019FD3620FFF706FD0820FFF713FD3A204A
:1011B800FFF700FD5520FFF70DFDB120FFF7FAFC02
:1011C8000020FFF707FD1A20FFF704FDB620FFF700
:1011D800F1FC0A20FFF7FEFCA220FFF7FBFCF2203F
:1011E800FFF7E8FC0020FFF7F5FC2620FFF7E2FCFC
:1011F8000120FFF7EFFCE020FFF7DCFC0F20FFF7F2
:10120800E9FC2A20FFF7E6FC2820FFF7E3FC08208A
:10121800FFF7E0FC0E20FFF7DDFC0820FFF7DAFC03
:101228005420FFF7D7FCA920FFF7D4FC4320FFF791
:10123800D1FC0A20FFF7CEFC0F20FFF7CBFC0020E3
:10124800FFF7C8FC0020FFF7C5FC0020FFF7C2FC31
:101258000020FFF7BFFCE120FFF7ACFC0020FFF700
:10126800B9FC1520FFF7B6FC1720FFF7B3FC0720E1
:10127800FFF7B0FC1120FFF7ADFC0620FFF7AAFC32
:101288002B20FFF7A7FC5620FFF7A4FC3C20FFF714
:10129800A1FC0520FFF79EFC1020FFF79BFC0F2008
:1012A800FFF798FC3F20FFF795FC3F20FFF792FCE3
:1012B8000F20FFF78FFC2B20FFF77CFC0020FFF7A7
:1012C80089FC0020FFF786FC0120FFF783FC3F2004
:1012D800FFF780FC2A20FFF76DFC0020FFF77AFC5F
:1012E8000020FFF777FC0020FFF774FCEF20FFF7E2
:1012F80071FC1120FFF75EFC782003F0F5FA292035
:10130800FFF758FC01224FF48071044803F0BEFD3A
:1013180000BF80BD000802400C0100200000024010
:1013280090B58BB004AFBA601A460346FB810B46F2
:10133800BB811346FB80FB89BB820023FB7548E019
:10134800FB7D002B45D1FA89264B1B88194697F857
:101358002C305B08DBB2CB1A9A423FDCBA89214BAE
:101368005B88194697F82C30CB1A9A4236DCBB6852
:101378001B78802B02D90123FB752AE0BB681B78F8
:101388000D2B0BD197F82C309AB2BB891344BB8133
:10139800BB8AFB81BB680133BB6017E0BB681A7866
:1013A800FC88B989F88997F83030029397F82C307F
:1013B80001933B8D00932346FFF7C4FC97F82C302C
:1013C8005B08DBB29AB2FB891344FB81BB6801332B
:1013D800BB60BB681B78002BB2D100E000BF1C3794
:1013E800BD4690BD0C01002080B58AB004AFBA603C
:1013F8001A460346FB810B46BB811346FB80B8683F
:10140800FEF7DEFE0346FB820F4B1B881A46FB8A5B
:10141800DB00D31ADA0F13445B10BB82FA89BB8A4C
:10142800134498B2FA88B98997F82830029397F844
:10143800243001933B8C00931346BA68FFF770FF82
:1014480000BF1837BD4680BD0C01002080B500AF35
:101458003F4B1B88DBB29AB23D4B1A803D4B1B8831
:101468001A463D4B9B5C1B021AB2394B1B881BB2B8
:1014780013431BB29AB2364B1A80364B1B88032B88
:1014880046D801A252F823F0A1140008BF1400089E
:10149800DD140008FB1400082D4B1B8843F0B00333
:1014A8009AB22B4B1A802A4B1B8823F040039AB21E
:1014B800274B1A802DE0264B1B8843F0D0039AB2A5
:1014C800234B1A80224B1B8823F020039AB2204B0F
:1014D8001A801EE01E4B1B8843F0E0039AB21C4B97
:1014E8001A801B4B1B8823F010039AB2184B1A80E2
:1014F8000FE0174B1B8843F070039AB2144B1A8005
:10150800134B1B8823F080039AB2114B1A8000E01A
:1015180000BF104B1B8801335A4203F0030302F04B
:10152800030258BF53429AB20A4B1A800022402144
:101538000A4803F0ABFC012302220549084805F0DC
:10154800BAFA01224021054803F0A0FC00BF80BD83
:1015580004000020120100200000002000180240B2
:101568008001002080B500AF03F04CF900F024F8AA
:10157800FFF7B2F903F000F802F008FFFFF7DCF814
:10158800FFF7A2FA03F044F800F080F80020FFF714
:101598008FFB00F099F800BF064B1B78002BFBD09F
:1015A800044B00221A70FEF791FF00F0ADF800F02E
:1015B80001FBF0E77401002080B594B000AF07F19B
:1015C800200330220021184606F02AFD07F10C03FB
:1015D80000221A605A609A60DA601A610023BB60C0
:1015E800284B1B6C274A43F080531364254B1B6C14
:1015F80003F08053BB60BB6800237B60224B1B68F1
:10160800214A43F4804313601F4B1B6803F4804353
:101618007B607B6802233B620123FB6210233B63F0
:101628000223BB630023FB6308233B64A8237B647A
:101638000223BB640423FB6407F12003184604F06B
:101648002DFD0346002B01D002F028FE0F23FB607E
:1016580002233B6100237B614FF4A053BB614FF42D
:10166800A053FB6107F10C030521184604F08EFF17
:101678000346002B01D002F011FE00BF5037BD46D3
:1016880080BD00BF003802400070004080B500AF48
:10169800002220210B4803F0F9FB002240210948D1
:1016A80003F0F4FB00221021064803F0EFFBFFF7DC
:1016B800D7FCFEF777FF02F0F7FD322002F0FEFDBF
:1016C80000BF80BD0010024080B500AF1721062082
:1016D800FEF7ACFF0A210520FEF7A8FF142104201D
:1016E800FEF7A4FF06210320FEF7A0FF1421022025
:1016F800FEF79CFF0B210120FEF798FF1721002021
:10170800FEF794FF00BF80BD80B584B004AFBE4B28
:101718001B68002B03D0BC4B1B68082B01D1FEF7BC
:10172800A7FFBA4B1B78BA4AA2FB0323DB08DBB23C
:101738009AB218230293002301934FF4FC63009399
:10174800012364214620FFF7E9FBB04B1A78B04B20
:10175800A3FB0213D9080B469B000B445B00D31A6A
:10176800DBB29AB218230293002301934FF4FC636F
:101778000093012364215320FFF7D0FB0023029339
:1017880018230193002300934FF4FC633A22642149
:101798006020FFF7D7FA9F4B1B789D4AA2FB0323D3
:1017A800DB08DBB29AB218230293002301934FF4AB
:1017B800FC630093012364216E20FFF7AFFB954B78
:1017C8001A78934BA3FB0213D9080B469B000B44D2
:1017D8005B00D31ADBB29AB2182302930023019359
:1017E8004FF4FC630093012364217B20FFF796FBF1
:1017F8000023029318230193002300934FF4FC6302
:101808003A2264218820FFF79DFA834B1B78804A8F
:10181800A2FB0323DB08DBB29AB21823029300234E
:1018280001934FF4FC630093012364219620FFF792
:1018380075FB794B1A78764BA3FB0213D9080B4634
:101848009B000B445B00D31ADBB29AB218230293B5
:10185800002301934FF4FC63009301236421A32028
:10186800FFF75CFB6D4B1B78013B062B72D801A27E
:1018780052F823F099180008B5180008D118000884
:10188800ED18000809190008251900084119000871
:101898000023029318230193002300934FF6E0736B
:1018A8005F4A82211420FFF73BFD53E00023029397
:1018B80018230193002300934FF6E073594A8221BD
:1018C8001420FFF72DFD45E0002302931823019310
:1018D800002300934FF6E073534A82211420FFF748
:1018E8001FFD37E000230293182301930023009380
:1018F8004FF6E0734D4A82211420FFF711FD29E0CD
:101908000023029318230193002300934FF6E073FA
:10191800474A82211420FFF703FD1BE000230293AE
:1019280018230193002300934FF6E073414A822164
:101938001420FFF7F5FC0DE0002302931823019310
:10194800002300934FF6E0733B4A82211420FFF7EF
:10195800E7FC00BF394B1B78013B0B2B00F2E880FA
:1019680001A252F823F000BFA1190008BD19000810
:10197800D9190008F5190008591A0008751A00083D
:10198800911A0008AD1A0008C91A0008E51A0008DB
:10199800011B00081D1B0008002302931823019354
:1019A800002300934FF6E073254A82216920FFF750
:1019B800B7FCBDE000230293182301930023009392
:1019C8004FF6E0731F4A82216920FFF7A9FCAFE0B8
:1019D8000023029318230193002300934FF6E0732A
:1019E800194A82216920FFF79BFCA1E0002302939A
:1019F80018230193002300934FF6E073134A8221C2
:101A08006920FFF78DFC93E0140100205B000020A3
:101A1800CDCCCCCC5C0000205D0000205F00002015
:101A2800988000089C800008A0800008A480000816
:101A3800A8800008AC800008B08000086000002082
:101A4800B4800008B8800008BC800008C080000886
:101A58000023029318230193002300934FF6E073A9
:101A68004A4A82216920FFF75BFC61E00023029368
:101A780018230193002300934FF6E073444A822110
:101A88006920FFF74DFC53E00023029318230193CC
:101A9800002300934FF6E0733E4A82216920FFF746
:101AA8003FFC45E000230293182301930023009391
:101AB8004FF6E073384A82216920FFF731FC37E09E
:101AC8000023029318230193002300934FF6E07339
:101AD800324A82216920FFF723FC29E00023029380
:101AE80018230193002300934FF6E0732C4A8221B8
:101AF8006920FFF715FC1BE00023029318230193CC
:101B0800002300934FF6E073264A82216920FFF7ED
:101B180007FC0DE000230293182301930023009390
:101B28004FF6E073204A82216920FFF7F9FB00BFD6
:101B38001E4B1B789AB218230293002301934FF689
:101B4800E0730093022382214620FFF7E7F9182368
:101B58000293002301934FF6E073009302231422AB
:101B680082219620FFF7DAF9114B1B789AB21823D5
:101B78000293002301934FF6E0730093022382211E
:101B8800B020FFF7CBF900BFBD4680BDC480000878
:101B9800C8800008CC800008D0800008D4800008E5
:101BA800D8800008DC800008E08000085E00002083
:101BB8006100002080B584B004AF184B1B68102B5F
:101BC80001F2478201A252F823F000BF191C000855
:101BD800511F000859200008BD22000805240008EC
:101BE8000D25000875260008B5210008291C0008E5
:101BF8005B300008A72C0008252E0008892B000858
:101C08000B2A0008ED2800086B270008432F00085E
:101C1800024B08221A6001F03DBA00BF14010020EF
:101C280000230293102301931F2300934FF6FF73A1
:101C3800984A00210020FFF7D7FB01F05FFA03461E
:101C4800002B25D0944B01221A60944B1B781A461E
:101C5800934B1A60934B1B781A46934B1A60934B1D
:101C68001B781A46924B1A60924B1B781A46924B75
:101C78001A60924B1B781A46914B1A60914B1B784D
:101C88001A46914B1A60914B1B781A46904B1A6072
:101C980001F054FA0346002B00F09D807E4B0F2282
:101CA8001A607E4B1B781A467D4B1A607D4B1B7859
:101CB8001A467D4B1A607D4B1B781A467C4B1A607E
:101CC8007C4B1B781A467C4B1A607C4B1B781A4657
:101CD8007B4B1A607B4B1B781A467B4B1A607B4BFD
:101CE8001B781A467A4B1A60704B1B781A46794B48
:101CF8001A606A4B1B781A46774B1A60694B1B7837
:101D08001A46764B1A606B4B1B781A46744B1A604E
:101D18006E4B1B781A46734B1A60684B1B781A4631
:101D2800714B1A60674B1B781A46704B1A60704BE0
:101D38001B68002B02D06E4B00221A606B4B1B688D
:101D4800DAB2604B1A705F4B1B7819460620FEF713
:101D58006DFC654B1B68DAB2584B1A70574B1B78F1
:101D680019460520FEF762FC5E4B1B68DAB2574B3A
:101D78001A70564B1B7819460320FEF757FC584B30
:101D88001B68DAB24B4B1A704A4B1B781946042071
:101D9800FEF74CFC504B1B68DAB2404B1A703F4BB5
:101DA8001B7819460220FEF741FC4C4B1B68DAB23F
:101DB8003C4B1A703B4B1B7819460120FEF736FC4A
:101DC800444B1B68DAB2394B1A70384B1B781946EA
:101DD8000020FEF72BFC464B1B68002B01F03D81D1
:101DE800324B1B781A463B4B1B689A4237D12B4B18
:101DF8001B781A46384B1B689A4230D1294B1B78FE
:101E08001A46364B1B689A4229D12A4B1B781A4628
:101E1800334B1B689A4222D12C4B1B781A46314B04
:101E28001B689A421BD1254B1B781A462E4B1B6800
:101E38009A4214D1234B1B781A462C4B1B689A42A2
:101E48000DD100230293182301934FF6FF730093DB
:101E58004FF47843274AC8210020FFF7C5FA134BEF
:101E68001B781A461B4B1B6805339A4241F0F580D4
:101E78000A4B1B781A46184B1B689A4241F0ED80B2
:101E8800084B1B781A46154B1B689A4241F0E580AF
:101E980032E000BFE4800008140100205B0000204D
:101EA800200100205C000020240100205D000020AB
:101EB8001C0100205E000020280100206000002096
:101EC8003001002061000020340100205F00002064
:101ED8002C010020380100203C0100204001002096
:101EE80044010020480100204C010020500100203E
:101EF8007001002000810008974B1B781A46974B09
:101F08001B689A4241F0A980954B1B781A46954B5D
:101F18001B689A4241F0A180934B1B781A46934B59
:101F28001B689A4241F09980914B1B781A46914B55
:101F38001B689A4241F091800020FEF7B9FE8E4B53
:101F480000221A6001F089B800230293102301933C
:101F58001F2300934FF6FF73884A00210020FFF7E4
:101F680043FA01F043F901F0C9F80346002B0DD0FC
:101F7800834B02221A60834B1B68DAB2824B1A70B9
:101F8800814B1B7819460220FEF750FB01F0E6F85A
:101F98000346002B4FD07A4B08221A607B4B1B68F4
:101FA800DAB2734B1A70724B1B7819460620FEF78B
:101FB8003DFB774B1B68DAB26B4B1A706A4B1B7888
:101FC80019460520FEF732FB724B1B68DAB2624BEA
:101FD8001A70614B1B7819460420FEF727FB6E4BDD
:101FE8001B68DAB25E4B1A705D4B1B7819460320EA
:101FF800FEF71CFB634B1B68DAB2634B1A70624B2B
:102008001B7819460220FEF711FB644B1B68DAB2F5
:10201800634B1A70624B1B7819460120FEF706FBCA
:10202800604B1B68DAB2604B1A705F4B1B7819461D
:102038000020FEF7FBFA01F071F80346002B01F0CF
:102048000E80514B1B781A464E4B1A6001F007B8A8
:1020580000230293102301931F2300934FF6FF736D
:10206800464A00210020FFF7BFF901F019F901F0F5
:1020780045F80346002B0DD0414B07221A60474B09
:102088001B68DAB2464B1A70454B1B78194601207B
:10209800FEF7CCFA01F062F80346002B4FD0384B1C
:1020A80008221A60394B1B68DAB2314B1A70304B70
:1020B8001B7819460620FEF7B9FA354B1B68DAB2C9
:1020C800294B1A70284B1B7819460520FEF7AEFAE3
:1020D800314B1B68DAB2224B1A70214B1B78194618
:1020E8000320FEF7A3FA2B4B1B68DAB21A4B1A70BF
:1020F800194B1B7819460420FEF798FA214B1B68E8
:10210800DAB2214B1A70204B1B7819460220FEF7D1
:102118008DFA224B1B68DAB2214B1A70204B1B78C0
:1021280019460120FEF782FA1E4B1B68DAB21E4BD5
:102138001A701D4B1B7819460020FEF777FA00F03D
:10214800EDFF0346002B00F08C87154B1B781A46D1
:10215800124B1A6000F085BF5E0000204401002089
:102168005F00002048010020600000204C01002092
:102178006100002050010020700100200C8100083F
:1021880014010020200100205B0000203401002001
:1021980030010020280100202C010020240100200B
:1021A8005C0000201C0100205D0000200023029339
:1021B800102301931F2300934FF6FF737F4A0021DA
:1021C8000020FFF711F901F0C5F800F097FF03466A
:1021D800002B0DD07A4B03221A607A4B1B68DAB2B7
:1021E800794B1A70784B1B7819460020FEF71EFAB7
:1021F80000F0B4FF0346002B4FD0714B08221A6041
:10220800724B1B68DAB2724B1A70714B1B78194605
:102218000620FEF70BFA6F4B1B68DAB26E4B1A708A
:102228006D4B1B7819460520FEF700FA6B4B1B68AF
:10223800DAB26B4B1A706A4B1B7819460320FEF70B
:10224800F5F9684B1B68DAB2674B1A70664B1B7856
:1022580019460420FEF7EAF9644B1B68DAB2644BAE
:102268001A70634B1B7819460220FEF7DFF9614BA1
:102278001B68DAB2604B1A705F4B1B781946012055
:10228800FEF7D4F94F4B1B68DAB24F4B1A704E4B1E
:102298001B7819460020FEF7C9F900F03FFF0346F6
:1022A800002B00F0E086484B1B781A46454B1A6015
:1022B80000F0D9BE00230293102301931F2300933B
:1022C8004FF6FF733D4A00210020FFF78DF801F01B
:1022D8009BF800F013FF0346002B0DD0384B042267
:1022E8001A603E4B1B68DAB23D4B1A703C4B1B78A8
:1022F80019460320FEF79AF900F030FF0346002B39
:102308004FD02F4B08221A60304B1B68DAB2304B83
:102318001A702F4B1B7819460620FEF787F92D4BAC
:102328001B68DAB22C4B1A702B4B1B781946052008
:10233800FEF77CF9294B1B68DAB2294B1A70284B37
:102348001B7819460320FEF771F9264B1B68DAB291
:10235800254B1A70244B1B7819460420FEF766F9A2
:10236800224B1B68DAB2224B1A70214B1B78194694
:102378000220FEF75BF91F4B1B68DAB21E4B1A707E
:102388001D4B1B7819460120FEF750F90D4B1B68B1
:10239800DAB20D4B1A700C4B1B7819460020FEF769
:1023A80045F900F0BBFE0346002B00F05E860C4B9F
:1023B8001B781A46094B1A6000F057BE0C810008BA
:1023C800140100201C0100205D00002034010020C1
:1023D8006100002030010020600000202C01002056
:1023E8005F000020280100205E000020200100205E
:1023F8005B000020240100205C00002000230293E1
:10240800102301931F2300934FF6FF73874A00217F
:102418000020FEF7E9FF01F0C5F800F06FFE034663
:10242800002B0DD0824B05221A60824B1B68DAB252
:10243800814B1A70804B1B7819460420FEF7F6F87A
:1024480000F08CFE0346002B4FD0794B08221A600F
:102458007A4B1B68DAB27A4B1A70794B1B7819469B
:102468000620FEF7E3F8774B1B68DAB2764B1A7052
:10247800754B1B7819460520FEF7D8F8734B1B6877
:10248800DAB2734B1A70724B1B7819460320FEF7A9
:10249800CDF8684B1B68DAB2674B1A70664B1B782D
:1024A80019460420FEF7C2F86A4B1B68DAB26A4B79
:1024B8001A70694B1B7819460220FEF7B7F8674B6C
:1024C8001B68DAB2664B1A70654B1B7819460120F7
:1024D800FEF7ACF8634B1B68DAB2634B1A70624BB9
:1024E8001B7819460020FEF7A1F800F017FE0346F6
:1024F800002B00F0BC85504B1B781A464D4B1A60D8
:1025080000F0B5BD00230293102301931F2300930D
:102518004FF6FF73454A00210020FEF765FF01F0E2
:10252800B9F800F0EBFD0346002B18D0404B06220B
:102538001A60444B1B68DAB2434B1A70424B1B7843
:1025480019460520FEF772F83A4B1B68DAB23A4B87
:102558001A70394B1B7819460420FEF767F800F00B
:10256800FDFD0346002B4FD0314B08221A60334B38
:102578001B68DAB2324B1A70314B1B7819460620A9
:10258800FEF754F82F4B1B68DAB22F4B1A702E4BFC
:102598001B7819460520FEF749F82C4B1B68DAB260
:1025A8002B4B1A702A4B1B7819460320FEF73EF86E
:1025B800204B1B68DAB2204B1A701F4B1B78194648
:1025C8000420FEF733F8234B1B68DAB2224B1A704B
:1025D800214B1B7819460220FEF728F81F4B1B6871
:1025E800DAB21F4B1A701E4B1B7819460120FEF7F2
:1025F8001DF81C4B1B68DAB21B4B1A701A4B1B7860
:1026080019460020FEF712F800F088FD0346002B5B
:1026180000F02F850C4B1B781A460A4B1A60064BA4
:102628001B781A46034B1A6000F023BD0C81000882
:1026380014010020280100205E0000203401002041
:102648006100002030010020600000202C010020E3
:102658005F000020200100205B00002024010020F2
:102668005C0000201C0100205D0000200023029374
:10267800102301931F2300934FF6FF73804A002114
:102688000020FEF7B1FE01F095F800F067FD034663
:10269800002B04D100F032FD0346002B4FD0794BBC
:1026A80008221A60784B1B68DAB2784B1A70774B9D
:1026B8001B7819460620FDF7B9FF754B1B68DAB27F
:1026C800744B1A70734B1B7819460520FDF7AEFF43
:1026D800714B1B68DAB2714B1A70704B1B78194634
:1026E8000320FDF7A3FF6E4B1B68DAB26D4B1A701F
:1026F8006C4B1B7819460420FDF798FF6A4B1B6842
:10270800DAB26A4B1A70694B1B7819460220FDF73A
:102718008DFF674B1B68DAB2664B1A70654B1B78E6
:1027280019460120FDF782FF634B1B68DAB2634B41
:102738001A70624B1B7819460020FDF777FF00F0EE
:10274800EDFC0346002B00F09684504B1B781A468C
:102758004D4B1A60534B1B781A46514B1A6000F0C8
:102768008ABC00230293102301931F2300934FF682
:10277800FF73534A00210020FEF736FE01F09CF853
:1027880000F0DCFC0346002B02D03E4B0E221A6000
:1027980000F0E4FC0346002B00F06F84394B08225C
:1027A8001A60394B1B68DAB2384B1A70374B1B78F2
:1027B80019460620FDF73AFF354B1B68DAB2354B50
:1027C8001A70344B1B7819460520FDF72FFF324B42
:1027D8001B68DAB2314B1A70304B1B78194603204C
:1027E800FDF724FF2E4B1B68DAB22E4B1A702D4BC7
:1027F8001B7819460420FDF719FF2B4B1B68DAB22A
:102808002A4B1A70294B1B7819460220FDF70EFF38
:10281800274B1B68DAB2274B1A70264B1B781946D0
:102828000120FDF703FF244B1B68DAB2234B1A7013
:10283800224B1B7819460020FDF7F8FE214B1B6838
:10284800002B17D1204B1B68002B13D11F4B1B6883
:10285800002B0FD11E4B1B68002B0BD11D4B1B6887
:10286800002B07D11C4B1B68002B03D11B4B1B688B
:10287800002B01D0012300E00023194A1360FCE378
:102888000C810008140100203401002061000020A0
:1028980030010020600000202C0100205F00002093
:1028A800280100205E000020200100205B0000209D
:1028B800240100205C0000201C0100205D00002095
:1028C800288100086C0100206801002060010020B8
:1028D80064010020580100205C0100205401002000
:1028E8007001002000230293102301931F230093FB
:1028F8004FF6FF738A4A00210020FEF775FD01F0AC
:1029080079F800F01BFC0346002B02D0854B0D2202
:102918001A6000F023FC0346002B00F0B083814BC3
:1029280008221A60804B1B68DAB2804B1A707F4B02
:102938001B7819460620FDF779FE7D4B1B68DAB235
:102948007C4B1A707B4B1B7819460520FDF76EFEF1
:10295800794B1B68DAB2794B1A70784B1B78194699
:102968000320FDF763FE764B1B68DAB2754B1A70CD
:10297800744B1B7819460420FDF758FE724B1B68F0
:10298800DAB2724B1A70714B1B7819460220FDF7A8
:102998004DFE6F4B1B68DAB26E4B1A706D4B1B788D
:1029A80019460120FDF742FE6B4B1B68DAB26B4BF0
:1029B8001A706A4B1B7819460020FDF737FE684BE2
:1029C8001B68002B17D1674B1B68002B13D1664B74
:1029D8001B68002B0FD1654B1B68002B0BD1644B78
:1029E8001B68002B07D1634B1B68002B03D1624B7C
:1029F8001B68002B01D0012300E000235F4A13600D
:102A08003DE300230293102301931F2300934FF605
:102A1800FF73434A00210020FEF7E6FC01F0A4F80A
:102A280000F08CFB0346002B02D03E4B0C221A60B0
:102A380000F094FB0346002B00F02383394B082257
:102A48001A60394B1B68DAB2384B1A70374B1B784F
:102A580019460620FDF7EAFD354B1B68DAB2354BFF
:102A68001A70344B1B7819460520FDF7DFFD324BF1
:102A78001B68DAB2314B1A70304B1B7819460320A9
:102A8800FDF7D4FD2E4B1B68DAB22E4B1A702D4B76
:102A98001B7819460420FDF7C9FD2B4B1B68DAB2D9
:102AA8002A4B1A70294B1B7819460220FDF7BEFDE8
:102AB800274B1B68DAB2274B1A70264B1B7819462E
:102AC8000120FDF7B3FD244B1B68DAB2234B1A70C3
:102AD800224B1B7819460020FDF7A8FD204B1B68E8
:102AE800002B17D11F4B1B68002B13D11E4B1B68E3
:102AF800002B0FD11D4B1B68002B0BD11C4B1B68E7
:102B0800002B07D11B4B1B68002B03D11A4B1B68EA
:102B1800002B01D0012300E00023184A1360B0E223
:102B280028810008140100203401002061000020E1
:102B380030010020600000202C0100205F000020F0
:102B4800280100205E000020200100205B000020FA
:102B5800240100205C0000201C0100205D000020F2
:102B68006C01002068010020600100206401002041
:102B7800580100205C010020540100207001002051
:102B880000230293102301931F2300934FF6FF7332
:102B98008A4A00210020FEF727FC01F097F800F090
:102BA800CDFA0346002B02D0854B0A221A6000F0AA
:102BB800D5FA0346002B00F06682814B08221A6082
:102BC800804B1B68DAB2804B1A707F4B1B78194612
:102BD8000620FDF72BFD7D4B1B68DAB27C4B1A7083
:102BE8007B4B1B7819460520FDF720FD794B1B68A8
:102BF800DAB2794B1A70784B1B7819460320FDF727
:102C080015FD764B1B68DAB2754B1A70744B1B783E
:102C180019460420FDF70AFD724B1B68DAB2724BA5
:102C28001A70714B1B7819460220FDF7FFFC6F4B99
:102C38001B68DAB26E4B1A706D4B1B78194601206F
:102C4800FDF7F4FC6B4B1B68DAB26B4B1A706A4BDE
:102C58001B7819460020FDF7E9FC684B1B68002B20
:102C680017D1674B1B68002B13D1664B1B68002BD1
:102C78000FD1654B1B68002B0BD1644B1B68002BD5
:102C880007D1634B1B68002B03D1624B1B68002BD9
:102C980001D0012300E000235F4A1360F3E1002321
:102CA8000293102301931F2300934FF6FF73434AA7
:102CB80000210020FEF798FB01F0B8F800F03EFA7A
:102CC8000346002B02D03E4B0B221A6000F046FA56
:102CD8000346002B00F0D981394B08221A60394B82
:102CE8001B68DAB2384B1A70374B1B781946062026
:102CF800FDF79CFC354B1B68DAB2354B1A70344B28
:102D08001B7819460520FDF791FC324B1B68DAB297
:102D1800314B1A70304B1B7819460320FDF786FC9F
:102D28002E4B1B68DAB22E4B1A702D4B1B781946A6
:102D38000420FDF77BFC2B4B1B68DAB22A4B1A7078
:102D4800294B1B7819460220FDF770FC274B1B689E
:102D5800DAB2274B1A70264B1B7819460120FDF76B
:102D680065FC244B1B68DAB2234B1A70224B1B7884
:102D780019460020FDF75AFC204B1B68002B17D181
:102D88001F4B1B68002B13D11E4B1B68002B0FD148
:102D98001D4B1B68002B0BD11C4B1B68002B07D14C
:102DA8001B4B1B68002B03D11A4B1B68002B01D04F
:102DB800012300E00023184A136066E12881000817
:102DC800140100203401002061000020300100209F
:102DD800600000202C0100205F0000202801002056
:102DE8005E000020200100205B000020240100205C
:102DF8005C0000201C0100205D0000206C01002008
:102E080068010020600100206401002058010020B2
:102E18005C0100205401002070010020002302936F
:102E2800102301931F2300934FF6FF739B4A002141
:102E38000020FEF7D9FA01F0B3F800F07FF9034655
:102E4800002B02D0964B10221A6000F087F9034637
:102E5800002B00F01C81924B08221A60914B1B68D2
:102E6800DAB2914B1A70904B1B7819460620FDF781
:102E7800DDFB8E4B1B68DAB28D4B1A708C4B1B78BE
:102E880019460520FDF7D2FB8A4B1B68DAB28A4B3C
:102E98001A70894B1B7819460320FDF7C7FB874B2F
:102EA8001B68DAB2864B1A70854B1B7819460420CA
:102EB800FDF7BCFB834B1B68DAB2834B1A70824B5D
:102EC8001B7819460220FDF7B1FB804B1B68DAB26C
:102ED8007F4B1A707E4B1B7819460120FDF7A6FB25
:102EE8007C4B1B68DAB27C4B1A707B4B1B781946FB
:102EF8000020FDF79BFB794B1B68002B17D1784B03
:102F08001B68002B13D1774B1B68002B0FD1764B16
:102F18001B68002B0BD1754B1B68002B07D1744B1A
:102F28001B68002B03D1734B1B68002B01D00123B6
:102F380000E00023704A1360A9E0002302931023E5
:102F480001931F2300934FF6FF73544A002100207A
:102F5800FEF74AFA01F0E8F800F0F0F80346002B13
:102F680005D100F0FBF80346002B00F092804C4B93
:102F780008221A604B4B1B68DAB24B4B1A704A4B4B
:102F88001B7819460620FDF751FB484B1B68DAB23F
:102F9800474B1A70464B1B7819460520FDF746FB30
:102FA800444B1B68DAB2444B1A70434B1B781946E2
:102FB8000320FDF73BFB414B1B68DAB2404B1A700C
:102FC8003F4B1B7819460420FDF730FB3D4B1B682F
:102FD800DAB23D4B1A703C4B1B7819460220FDF7BC
:102FE80025FB3A4B1B68DAB2394B1A70384B1B7801
:102FF80019460120FDF71AFB364B1B68DAB2364B2F
:103008001A70354B1B7819460020FDF70FFB334B20
:103018001B68002B17D1324B1B68002B13D1314B87
:103028001B68002B0FD1304B1B68002B0BD12F4B8B
:103038001B68002B07D12E4B1B68002B03D12D4B8F
:103048001B68002B01D0012300E000232A4A1360EB
:103058001FE0134B00221A601CE000BF1AE000BFFB
:1030680018E000BF16E000BF14E000BF12E000BF88
:1030780010E000BF0EE000BF0CE000BF0AE000BF98
:1030880008E000BF06E000BF04E000BF02E000BFA8
:1030980000E000BF00BFBD4680BD00BF288100081A
:1030A80014010020340100206100002030010020BC
:1030B800600000202C0100205F0000202801002073
:1030C8005E000020200100205B0000202401002079
:1030D8005C0000201C0100205D0000206C01002025
:1030E80068010020600100206401002058010020D0
:1030F8005C010020540100207001002080B400AF62
:10310800054B1B8B012B01D1012300E0002318463E
:10311800BD465DF8047B70473000002080B400AFE6
:10312800054B9B8B012B01D1012300E0002318469E
:10313800BD465DF8047B70473000002080B400AFC6
:10314800054B5B8B012B01D1012300E000231846BE
:10315800BD465DF8047B70473000002080B400AFA6
:10316800054B1B88012B01D1012300E000231846E1
:10317800BD465DF8047B70473000002080B400AF86
:103188000B4BDB88012B0AD0094BDB88092B08D9AC
:10319800074BDB8803F003039BB2002B01D101230B
:1031A80000E000231846BD465DF8047B704700BF69
:1031B8003000002080B400AF0B4BDB89012B0AD014
:1031C800094BDB89092B08D9074BDB8903F003037B
:1031D8009BB2002B01D1012300E000231846BD4615
:1031E8005DF8047B704700BF3000002080B584B0D4
:1031F80004AF274B1B68591C264B83FB0123DA10AD
:10320800CB17D21A13469B0013449B00CA1A204BB3
:103218001A601F4B1B68042B0CDC00230293182335
:103228000193002300934FF4FC631B4A642146205A
:10323800FEF776F8FFF7A2FF0346002B0CD0174BDA
:103248001B780133DAB2154B1A70144B1B78172B05
:1032580002D9124B00221A70FFF7ACFF0346002B6D
:103268000CD00E4B1B78013BDAB20C4B1A700B4B8F
:103278001B78FF2B02D1094B17221A70074B1B78BA
:1032880019460220FDF7D2F900BFBD4680BD00BF38
:103298001801002067666666408100085B00002010
:1032A80080B584B004AF274B1B68591C264B83FBA1
:1032B8000123DA10CB17D21A13469B0013449B0044
:1032C800CA1A204B1A601F4B1B68042B0CDC002306
:1032D800029318230193002300934FF4FC631B4AC5
:1032E80064216E20FEF71CF8FFF748FF0346002B09
:1032F8000CD0174B1B780133DAB2154B1A70144BEC
:103308001B783B2B02D9124B00221A70FFF752FF91
:103318000346002B0CD00E4B1B78013BDAB20C4B4A
:103328001A700B4B1B78FF2B02D1094B3B221A70EA
:10333800074B1B7819460120FDF778F900BFBD46F9
:1033480080BD00BF180100206766666640810008DE
:103358005C00002080B584B004AF274B1B68591C63
:10336800264B83FB0123DA10CB17D21A13469B0096
:1033780013449B00CA1A204B1A601F4B1B68042B6E
:103388000CDC0023029318230193002300934FF4CD
:10339800FC631B4A64219620FDF7C2FFFFF7EEFE8F
:1033A8000346002B0CD0174B1B780133DAB2154BB0
:1033B8001A70144B1B783B2B02D9124B00221A703F
:1033C800FFF7F8FE0346002B0CD00E4B1B78013B91
:1033D800DAB20C4B1A700B4B1B78FF2B02D1094B3E
:1033E8003B221A70074B1B7819460020FDF71EF97F
:1033F80000BFBD4680BD00BF180100206766666635
:10340800408100085D00002080B584B004AF274BE0
:103418001B68591C264B83FB0123DA10CB17D21AE1
:1034280013469B0013449B00CA1A204B1A601F4B7B
:103438001B68042B0CDC0023029318230193002340
:1034480000934FF6E0731B4A82211420FDF768FFB2
:10345800FFF794FE0346002B0CD0174B1B78013363
:10346800DAB2154B1A70144B1B78072B02D9124B82
:1034780001221A70FFF79EFE0346002B0CD00E4B5C
:103488001B78013BDAB20C4B1A700B4B1B78002BE4
:1034980002D1094B07221A70074B1B7819460320E3
:1034A800FDF7C4F800BFBD4680BD00BF180100206D
:1034B80067666666448100085F00002080B483B0B8
:1034C80000AF78607A68144B83FB0213D911D317C5
:1034D800CB1A4FF4C87101FB03F3D31A002B11D098
:1034E8007B6803F00303002B0ED17A680A4B83FB39
:1034F80002135911D317CB1A642101FB03F3D31A12
:10350800002B01D0012300E0002318460C37BD46EC
:103518005DF8047B704700BF1F85EB5180B582B012
:1035280000AF03460A46FB711346BB71FB790C2BAF
:103538008CBF01220022D2B2002A2ED1012202FA27
:1035480003F341F2AA521A40002A14BF01220022B2
:10355800D2B2002A12D103F42562002A14BF012234
:103568000022D2B2002A0BD103F00403002B14BFAF
:1035780001230023DBB2002B04D10EE01F230DE052
:103588001E230BE0BB791846FFF798FF0346002B74
:1035980001D01D2302E01C2300E01F231846083732
:1035A800BD4680BD80B586B004AF344B1B68591C3E
:1035B800334B83FB0123DA10CB17D21A13469B0037
:1035C80013449B00CA1A2D4B1A602C4B1B68042B02
:1035D8000CDC0023029318230193002300934FF679
:1035E800E073284A82214620FDF79AFEFFF7C6FDC0
:1035F8000346002B19D0244B1B780133DAB2224B37
:103608001A70224B1B68DBB2214A1268D2B21146EB
:103618001846FFF783FF0346FB711B4B1B78FA79AB
:103628009A4202D2184B01221A70FFF7C3FD0346D3
:10363800002B18D0144B1B78013BDAB2124B1A70CE
:10364800124B1B68DBB2124A1268D2B211461846F6
:10365800FFF764FF0346BB710B4B1B78002B02D1AD
:10366800094ABB791370084B1B7819460420FCF7EC
:10367800DDFF00BF0837BD4680BD00BF1801002030
:1036880067666666408100085E0000203001002001
:103698003401002080B586B004AF404B1B68591C2C
:1036A8003F4B83FB0123DA10CB17D21A13469B003A
:1036B80013449B00CA1A394B1A60384B1B68042BF9
:1036C8000CDC0023029318230193002300934FF688
:1036D800E073344A82216920FDF722FEFFF74EFD90
:1036E8000346002B25D0304B1B780133DAB22E4B22
:1036F8001A702D4B1B780C2B02D92B4B01221A70F8
:10370800294B1B78294A1268D2B211461846FFF78E
:1037180005FF0346FB71264B1B78FA799A4208D2BB
:10372800234AFB791370224B1B7819460420FCF7B7
:103738007DFFFFF73FFD0346002B25D01A4B1B7872
:10374800013BDAB2184B1A70174B1B78002B02D1C9
:10375800154B0C221A70144B1B78144A1268D2B2FB
:1037680011461846FFF7DAFE0346BB71104B1B786B
:10377800BA799A4208D20E4ABB7913700C4B1B785F
:1037880019460420FCF752FF074B1B781946052001
:10379800FCF74CFF00BF0837BD4680BD180100206C
:1037A80067666666448100086000002034010020D6
:1037B8005E00002080B586B004AF394B1B68591CE9
:1037C800384B83FB0123DA10CB17D21A13469B0020
:1037D80013449B00CA1A324B1A60314B1B68042BE6
:1037E8000CDC0023029318230193002300934FF667
:1037F800E0732D4A8221B020FDF792FDFFF7BEFC51
:103808000346002B1ED0294B1B780133DAB2274B15
:103818001A70274B1B68DBB2244A127811461846E7
:10382800FFF77CFE0346FB71224B1B78FA799A421C
:1038380008D2204AFB7913701E4B1B7819460420C6
:10384800FCF7F4FEFFF7B6FC0346002B1ED0174B1F
:103858001B78013BDAB2154B1A70154B1B68DBB2AB
:10386800124A127811461846FFF758FE0346BB71F4
:10387800104B1B78BA799A4208D20E4ABB7913705A
:103888000C4B1B7819460420FCF7D0FE074B1B781D
:1038980019460620FCF7CAFE00BF0837BD4680BDA2
:1038A80018010020676666664081000861000020F4
:1038B800300100205E00002080B586B004AF434B85
:1038C8001B68591C424B83FB0123DA10CB17D21A11
:1038D80013469B0013449B00CA1A3C4B1A603B4B8F
:1038E8001B68042B0CDC002302931823019300238C
:1038F80000934FF6E073374A8221B020FDF710FDA0
:10390800FFF73CFC0346002B05D0334B1B68013303
:10391800314A136013E0FFF74DFC0346002B0ED02D
:103928002D4B1B68013B2C4A13602B4B1A682B4B01
:103938001B689A4203DA294B1B68274A1360FFF772
:103948001DFC0346002B04D1FFF734FC0346002B73
:103958001FD0234B1B68DBB21F4A1268D2B2114634
:103968001846FFF7DBFD0346FB71FA791D4B1B6810
:103978009A420EDAFB791B4A13601A4B1B68DAB2BB
:10398800194B1A70174B1B68DBB219460420FCF759
:103998004DFE114B1B68DAB2144B1A70134B1B788F
:1039A80019460620FCF742FE0B4B1A680B4B1B68A6
:1039B8009A4203DD0E4B01221A6002E00C4B0022F2
:1039C8001A6000BF0837BD4680BD00BF180100203F
:1039D80067666666408100085001002034010020B7
:1039E8004C010020440100205E00002061000020FE
:1039F8006C01002080B586B004AF504B1B68591C81
:103A08004F4B83FB0123DA10CB17D21A13469B00C6
:103A180013449B00CA1A494B1A60484B1B68042B75
:103A28000CDC0023029318230193002300934FF624
:103A3800E073444A82216920FDF772FCFFF79EFB80
:103A48000346002B15D0404B1B6801333E4A1360D8
:103A58003D4B1B680C2B2BDD3C4B1B68002B03D00C
:103A6800394B01221A6023E0394B1B68364A136030
:103A78001EE0FFF79FFB0346002B19D0324B1B6853
:103A8800013B314A1360314B1B68002B07D02E4B8A
:103A98001B68002B0CDC2C4B0C221A6008E02A4B0C
:103AA8001A682B4B1B689A4202DA274B0C221A60C1
:103AB800FFF764FB0346002B04D1FFF77BFB0346AB
:103AC800002B1FD0204B1B68DBB2224A1268D2B2EF
:103AD80011461846FFF722FD0346FB71FA791E4B83
:103AE8001B689A420EDAFB791B4A13601A4B1B6853
:103AF800DAB21A4B1A70184B1B68DBB2194604204D
:103B0800FCF794FD104B1B68DAB2154B1A70144B76
:103B18001B7819460520FCF789FD0B4B1A680C4BDE
:103B28001B689A4203D00F4B01221A6002E00D4B2A
:103B380000221A6000BF0837BD4680BD180100206A
:103B480067666666448100084C0100206C0100200D
:103B58003001002050010020440100205E000020B8
:103B6800600000206801002080B586B004AF4C4B8F
:103B78001B68591C4B4B83FB0123DA10CB17D21A55
:103B880013469B0013449B00CA1A454B1A60444BCA
:103B98001B68042B0CDC00230293182301930023D9
:103BA80000934FF6E073404A82214620FDF7B8FBA8
:103BB800FFF7E4FA0346002B26D03C4B1B68013381
:103BC8003A4A13603A4B1B68DBB23A4A1268D2B2DF
:103BD80011461846FFF7A2FC0346BB71BA79334B6E
:103BE8001B689A423FDA344B1B68002B03D1334BD6
:103BF8001B68002B03D02D4B01221A6033E0304B99
:103C08001B682A4A13602EE0FFF7D4FA0346002BFC
:103C180029D0264B1B68013B244A1360244B1B68A0
:103C2800DBB2244A1268D2B211461846FFF776FC76
:103C38000346FB71204B1B68002B03D11F4B1B68ED
:103C4800002B07D0194B1B68002B0CDCFB79174A9B
:103C5800136008E0154B1A68194B1B689A4202DA80
:103C6800FB79124A1360114B1B68DAB2154B1A70B4
:103C78000E4B1B68DBB219460420FCF7D7FC0B4B34
:103C88001A680F4B1B689A4203D00F4B01221A6027
:103C980002E00D4B00221A6000BF0837BD4680BD08
:103CA800180100206766666640810008440100200C
:103CB8004C010020500100206C0100206801002008
:103CC800280100205E0000206001002080B584B03B
:103CD80004AF4B4B1B68591C4A4B83FB0123DA107A
:103CE800CB17D21A13469B0013449B00CA1A444BA5
:103CF8001A60434B1B68042B0CDC00230293182327
:103D08000193002300934FF6E0733F4A8221142069
:103D1800FDF706FBFFF732FA0346002B1CD03B4B9E
:103D28001B680133394A1360384B1B68072B13DDB6
:103D3800374B1B68002B07D1364B1B68002B03D170
:103D4800354B1B68002B03D0304B01221A6003E06F
:103D5800324B1B682D4A1360FFF72CFA0346002BE1
:103D680021D02A4B1B68013B284A1360284B1B684B
:103D7800002B07D1274B1B68002B03D1264B1B6850
:103D8800002B07D0214B1B68002B0CDC1F4B072294
:103D98001A6008E01D4B1A68204B1B689A4202DA29
:103DA8001A4B07221A60194B1B68DAB21C4B1A709F
:103DB8001B4B1B7819460320FCF738FC194B1B6872
:103DC800002B0CD1114B1A68144B1B689A4203D074
:103DD800144B01221A6002E0124B00221A600B4BAE
:103DE8001A680E4B1B689A4203D00F4B01221A60C7
:103DF80002E00D4B00221A6000BFBD4680BD00BF27
:103E080018010020676666664481000848010020A2
:103E18006C01002068010020600100202C010020B6
:103E28005F000020700100206401002080B584B08C
:103E380004AF4F4B1B68591C4E4B83FB0123DA1010
:103E4800CB17D21A13469B0013449B00CA1A484B3F
:103E58001A60474B1B68042B0CDC002302931823C1
:103E68000193002300934FF4FC63434A64214620E6
:103E7800FDF756FAFFF782F90346002B20D03F4B97
:103E88001B6801333D4A13603C4B1B68172B17DD39
:103E98003B4B1B68002B0BD13A4B1B68002B07D1FF
:103EA800394B1B68002B03D1384B1B68002B03D000
:103EB800324B00221A6003E0354B1B682F4A13600F
:103EC800FFF778F90346002B25D02C4B1B68013BE4
:103ED8002A4A13602A4B1B68002B0BD1294B1B68FD
:103EE800002B07D1284B1B68002B03D1274B1B68DD
:103EF800002B07D0214B1B68002B0CDA1F4B172215
:103F08001A6008E01D4B1A68214B1B689A4202DAB6
:103F18001A4B17221A60194B1B68DAB21D4B1A701C
:103F28001C4B1B7819460220FCF780FB1A4B1B68B8
:103F3800002B0CD1114B1A68154B1B689A4203D001
:103F4800154B01221A6002E0134B00221A600B4B3A
:103F58001A680F4B1B689A4203D0104B01221A6053
:103F680002E00E4B00221A6000BFBD4680BD00BFB4
:103F78001801002067666666408100083C01002041
:103F88006C0100206801002060010020640100200D
:103F9800200100205B000020700100205801002053
:103FA80080B584B004AF534B1B68591C524B83FB3C
:103FB8000123DA10CB17D21A13469B0013449B0037
:103FC800CA1A4C4B1A604B4B1B68042B0CDC0023A1
:103FD800029318230193002300934FF4FC63474A8C
:103FE80064216E20FDF79CF9FFF7C8F80346002B03
:103FF80024D0434B1B680133414A1360404B1B6874
:104008003B2B1BDD3F4B1B68002B0FD13E4B1B6826
:10401800002B0BD13D4B1B68002B07D13C4B1B6879
:10402800002B03D13B4B1B68002B03D0344B0022E1
:104038001A6003E0384B1B68314A1360FFF7BAF87F
:104048000346002B29D02E4B1B68013B2C4A1360DA
:104058002C4B1B68002B0FD12B4B1B68002B0BD153
:104068002A4B1B68002B07D1294B1B68002B03D157
:10407800284B1B68002B07D0214B1B68002B0CDA40
:104088001F4B3B221A6008E01D4B1A68224B1B6825
:104098009A4202DA1A4B3B221A60194B1B68DAB2B1
:1040A8001E4B1A701D4B1B7819460120FCF7BEFAEF
:1040B8001B4B1B68002B0CD1114B1A68164B1B6845
:1040C8009A4203D0164B01221A6002E0144B0022D8
:1040D8001A600B4B1A68104B1B689A4203D0114B9D
:1040E80001221A6002E00F4B00221A6000BFBD4691
:1040F80080BD00BF18010020676666664081000821
:10410800400100206C0100206801002060010020AF
:104118006401002058010020240100205C000020D8
:10412800700100205C01002080B584B004AF4E4BC4
:104138001B68591C4D4B83FB0123DA10CB17D21A8D
:1041480013469B0013449B00CA1A474B1A60464B00
:104158001B68042B0CDC0023029318230193002313
:1041680000934FF4FC63424A64219620FDF7D8F887
:10417800FFF704F80346002B28D03E4B1B68013399
:104188003C4A13603B4B1B683B2B1FDD3A4B1B68BB
:10419800002B13D1394B1B68002B0FD1384B1B68F0
:1041A800002B0BD1374B1B68002B07D1364B1B68F4
:1041B800002B03D1354B1B68002B03D02D4B00225D
:1041C8001A6003E0324B1B682A4A1360FEF7F2FFBD
:1041D8000346002B2DD0274B1B68013B254A136053
:1041E800254B1B68002B13D1244B1B68002B0FD1C8
:1041F800234B1B68002B0BD1224B1B68002B07D1CC
:10420800214B1B68002B03D1204B1B68002B07D0C8
:10421800184B1B68002B0CDA164B3B221A6008E07F
:10422800144B1A681A4B1B689A4202DA114B3B224C
:104238001A60104B1B68DAB2164B1A70154B1B78B4
:1042480019460020FCF7F2F90A4B1A68104B1B6854
:104258009A4203D0104B01221A6002E00E4B002252
:104268001A6000BFBD4680BD1801002067666666FB
:1042780040810008380100206C01002068010020FE
:104288006001002064010020580100205C0100202A
:104298001C0100205D0000205401002080B400AF04
:1042A80072B600BFFEE7000080B500AF024803F019
:1042B800B5F900BF80BD00BFD801002080B483B02D
:1042C80000AF78607B689AB2074B1A80064B1A8851
:1042D800064B1A80064B00221A7000BF0C37BD46E9
:1042E8005DF8047B704700BF78010020760100204C
:1042F8007401002080B582B000AF78607B681B68CD
:10430800B3F1804F14D11A4B1B88002B10D0184BD7
:104318001B88013B9AB2164B1A80154B1B88002B41
:1043280006D1144B01221A70134B1A88104B1A80AD
:104338007B681B68114A934216D1114B1B88002BCE
:1043480010D00F4B1B88013B9AB20D4B1A800C4BB7
:104358001B88002B06D10B4B01221A700A4B1A88B6
:10436800074B1A80FDF772F800BF0837BD4680BDBD
:104378007601002074010020780100200008004028
:104388007C0100207A0100207E01002080B500AF6A
:10439800174B184A1A60164B4FF482725A60144B26
:1043A80000229A60124B0022DA60114B00221A6137
:1043B8000F4B00225A610E4B4FF400729A610C4B5E
:1043C8000022DA610A4B00221A62094B00225A6263
:1043D800074B00229A62064B0A22DA62044802F06E
:1043E800E1FA0346002B01D0FFF758FF00BF80BD5C
:1043F800800100200030014080B58AB000AF7860AD
:1044080007F1140300221A605A609A60DA601A6190
:104418007B681B68194A93422BD100233B61184BD8
:104428005B6C174A43F480535364154B5B6C03F47D
:1044380080533B613B690023FB60114B1B6B104AA7
:1044480043F0020313630E4B1B6B03F00203FB6084
:10445800FB6838237B610223BB610023FB610323D4
:104468003B6205237B6207F114031946054800F0F7
:1044780071FB00BF2837BD4680BD00BF003001403A
:10448800003802400004024080B483B000AF00232B
:104498007B60104B5B6C0F4A43F4804353640D4BB5
:1044A8005B6C03F480437B607B6800233B60094BB3
:1044B8001B6C084A43F080531364064B1B6C03F0D3
:1044C80080533B603B6800BF0C37BD465DF8047BFA
:1044D800704700BF0038024080B400AFFEE780B4E8
:1044E80000AFFEE780B400AFFEE780B400AFFEE7A0
:1044F80080B400AFFEE780B400AF00BFBD465DF8F2
:10450800047B704780B400AF00BFBD465DF8047BF4
:10451800704780B400AF00BFBD465DF8047B7047AC
:1045280080B500AF00F0C0F900BF80BD80B500AF16
:10453800024803F0E3F800BF80BD00BFD8010020A7
:1045480080B500AF024803F0D9F800BF80BD00BFB6
:104558002002002080B400AF064BD3F88830054A0B
:1045680043F47003C2F8883000BFBD465DF8047B91
:10457800704700BF00ED00E080B586B000AF07F1DE
:10458800080300221A605A609A60DA603B460022EB
:104598001A605A601D4B4FF080421A601B4B40F264
:1045A80047325A60194B00229A60184B6322DA602E
:1045B800164B00221A61154B00229A61134802F02B
:1045C800DDFF0346002B01D0FFF768FE4FF4805350
:1045D800BB6007F1080319460C4803F097F9034636
:1045E800002B01D0FFF75AFE00233B6000237B60BD
:1045F8003B461946054803F0B3FB0346002B01D0A0
:10460800FFF74CFE00BF1837BD4680BDD80100201B
:1046180080B586B000AF07F1080300221A605A601F
:104628009A60DA603B4600221A605A601D4B1E4AA7
:104638001A601C4B40F247325A601A4B00229A60AB
:10464800184B6322DA60174B00221A61154B0022BF
:104658009A61144802F092FF0346002B01D0FFF73D
:104668001DFE4FF48053BB6007F1080319460D483F
:1046780003F04CF90346002B01D0FFF70FFE00238F
:104688003B6000237B603B461946064803F068FB05
:104698000346002B01D0FFF701FE00BF1837BD46C7
:1046A80080BD00BF200200200008004080B584B013
:1046B80000AF78607B681B68B3F1804F16D1002388
:1046C800FB601A4B1B6C194A43F001031364174B28
:1046D8001B6C03F00103FB60FB68002200211C2017
:1046E80000F001FA1C2000F01AFA1AE07B681B6837
:1046F8000F4A934215D10023BB600C4B1B6C0B4A2D
:1047080043F004031364094B1B6C03F00403BB6000
:10471800BB68002200211E2000F0E5F91E2000F0F1
:10472800FEF900BF1037BD4680BD00BF003802400B
:104738000008004080B483B000AF0346FB71FB79EA
:104748001B09DBB21A46920013445B00DAB2FB790C
:1047580003F00F03DBB21344DBB218460C37BD4637
:104768005DF8047B7047000080B483B000AF034657
:10477800FB71FB790D4AA2FB0323DB08DBB21B01AB
:1047880058B2FA79094BA3FB0213D9080B469B00D0
:104798000B445B00D31ADBB25BB203435BB2DBB200
:1047A80018460C37BD465DF8047B7047CDCCCCCCA1
:1047B800DFF834D00D480E490E4A002302E0D458E1
:1047C800C4500433C4188C42F9D30B4A0B4C002351
:1047D80001E013600432A242FBD3FFF7BBFE03F0F3
:1047E80027FCFCF7BFFE70470000022000000020F5
:1047F80014000020F0B00008140000206C02002013
:10480800FEE7000080B500AF0E4B1B680D4A43F46D
:10481800007313600B4B1B680A4A43F480631360F0
:10482800084B1B68074A43F480731360032000F0A9
:104838004FF90F2000F008F8FFF726FE002318466E
:1048480080BD00BF003C024080B582B000AF7860F8
:10485800124B1A68124B1B7819464FF47A73B3FB44
:10486800F1F3B2FBF3F3184600F067F90346002BA7
:1048780001D001230EE07B680F2B0AD8002279684B
:104888004FF0FF3000F02FF9064A7B6813600023D1
:1048980000E0012318460837BD4680BD0800002007
:1048A800100000200C00002080B400AF064B1B78DD
:1048B8001A46064B1B681344044A136000BFBD46E2
:1048C8005DF8047B704700BF1000002068020020DC
:1048D80080B400AF034B1B681846BD465DF8047BE7
:1048E800704700BF6802002080B584B000AF7860D0
:1048F800FFF7EEFFB8607B68FB60FB68B3F1FF3F32
:1049080005D00A4B1B781A46FB681344FB6000BFAE
:10491800FFF7DEFF0246BB68D31AFA689A42F7D857
:1049280000BF00BF1037BD4680BD00BF100000208B
:1049380080B485B000AF78607B6803F00703FB6044
:104948000C4BDB68BB60BA684FF6FF031340BB60D3
:10495800FB681A02BB68134343F0BF6343F4003398
:10496800BB60044ABB68D36000BF1437BD465DF81E
:10497800047B704700ED00E080B400AF044BDB68B7
:104988001B0A03F007031846BD465DF8047B704711
:1049980000ED00E080B483B000AF0346FB7197F9E7
:1049A8000730002B0BDBFB7903F01F02074997F94F
:1049B80007305B09012000FA02F241F8232000BF0A
:1049C8000C37BD465DF8047B704700BF00E100E08E
:1049D80080B483B000AF03463960FB7197F90730A4
:1049E800002B0ADB3B68DAB20C4997F90730120151
:1049F800D2B20B4483F800230AE03B68DAB20849D4
:104A0800FB7903F00F03043B1201D2B20B441A7670
:104A180000BF0C37BD465DF8047B704700E100E03D
:104A280000ED00E080B489B000AFF860B9607A604A
:104A3800FB6803F00703FB61FB69C3F10703042B61
:104A480028BF0423BB61FB690433062B02D9FB6929
:104A5800033B00E000237B614FF0FF32BB6902FAA1
:104A680003F3DA43BB681A407B699A404FF0FF3181
:104A78007B6901FA03F3D9437B680B40134318465B
:104A88002437BD465DF8047B7047000080B582B0CE
:104A980000AF78607B68013BB3F1807F01D30123CD
:104AA8000FE00A4A7B68013B53600F214FF0FF304B
:104AB800FFF78EFF054B00229A60044B07221A600D
:104AC800002318460837BD4680BD00BF10E000E04F
:104AD80080B582B000AF78607868FFF729FF00BF23
:104AE8000837BD4680BD80B586B000AF0346B960C3
:104AF8007A60FB7300237B61FFF73EFF78617A6879
:104B0800B9687869FFF78EFF024697F90F301146AA
:104B18001846FFF75DFF00BF1837BD4680BD80B55A
:104B280082B000AF0346FB7197F907301846FFF7CC
:104B380031FF00BF0837BD4680BD80B582B000AFE9
:104B480078607868FFF7A2FF034618460837BD4625
:104B580080BD000080B489B000AF78603960002360
:104B68007B6100233B610023BB610023FB616BE198
:104B78000122FB6902FA03F37B613B681B687A69CF
:104B880013403B613A697B699A4240F05A813B681D
:104B98005B6803F00303012B05D03B685B6803F0F7
:104BA8000303022B30D17B689B68BB61FB695B0008
:104BB800032202FA03F3DB43BA691340BB613B6883
:104BC800DA68FB695B0002FA03F3BA691343BB6155
:104BD8007B68BA699A607B685B68BB610122FB6984
:104BE80002FA03F3DB43BA691340BB613B685B68B5
:104BF8001B0903F00102FB6902FA03F3BA691343C4
:104C0800BB617B68BA695A603B685B6803F0030361
:104C1800032B17D07B68DB68BB61FB695B00032251
:104C280002FA03F3DB43BA691340BB613B689A6835
:104C3800FB695B0002FA03F3BA691343BB617B6843
:104C4800BA69DA603B685B6803F00303022B23D17F
:104C5800FB69DA087B68083253F82230BB61FB69CC
:104C680003F007039B000F2202FA03F3DB43BA6940
:104C78001340BB613B681A69FB6903F007039B009B
:104C880002FA03F3BA691343BB61FB69DA087B686C
:104C98000832B96943F822107B681B68BB61FB695D
:104CA8005B00032202FA03F3DB43BA691340BB61DA
:104CB8003B685B6803F00302FB695B0002FA03F3DD
:104CC800BA691343BB617B68BA691A603B685B6861
:104CD80003F44033002B00F0B4800023FB60604BEA
:104CE8005B6C5F4A43F4804353645D4B5B6C03F435
:104CF8008043FB60FB685B4AFB699B08023352F800
:104D08002330BB61FB6903F003039B000F2202FA07
:104D180003F3DB43BA691340BB617B68524A934291
:104D28002BD07B68514A934225D07B68504A9342E6
:104D38001FD07B684F4A934219D07B684E4A9342F2
:104D480013D07B684D4A93420DD07B684C4A9342FE
:104D580007D07B684B4A934201D107230EE0082312
:104D68000CE006230AE0052308E0042306E00323F9
:104D780004E0022302E0012300E00023FA6902F0C4
:104D8800030292009340BA691343BB613549FB693A
:104D98009B080233BA6941F823203B4B1B68BB616F
:104DA8003B69DB43BA691340BB613B685B6803F44A
:104DB8008033002B03D0BA693B691343BB61324A85
:104DC800BB691360304B5B68BB613B69DB43BA6905
:104DD8001340BB613B685B6803F40033002B03D0CE
:104DE800BA693B691343BB61274ABB695360264BC9
:104DF8009B68BB613B69DB43BA691340BB613B6895
:104E08005B6803F48013002B03D0BA693B69134332
:104E1800BB611D4ABB6993601B4BDB68BB613B6987
:104E2800DB43BA691340BB613B685B6803F400135A
:104E3800002B03D0BA693B691343BB61124ABB69B3
:104E4800D360FB690133FB61FB690F2B7FF690AEE2
:104E580000BF00BF2437BD465DF8047B704700BF24
:104E680000380240003801400000024000040240BF
:104E780000080240000C02400010024000140240EA
:104E880000180240001C0240003C014080B483B07E
:104E980000AF78600B467B8013467B707B78002BD5
:104EA80003D07A887B689A6103E07B881A047B6860
:104EB8009A6100BF0C37BD465DF8047B704700005F
:104EC80080B584B000AF78607B68002B01D10123E6
:104ED8002BE17B6893F83D30DBB2002B06D17B6871
:104EE800002283F83C207868FBF71CFE7B682422AC
:104EF80083F83D207B681B681A687B681B6822F072
:104F080001021A607B681B681A687B681B6842F498
:104F180000421A607B681B681A687B681B6822F469
:104F280000421A6001F02AFDF8607B685B68814ADC
:104F3800934207D8FB68804A934294BF0123002319
:104F4800DBB206E0FB687D4A934294BF012300234D
:104F5800DBB2002B01D00123E7E0FB68784AA2FB13
:104F680003239B0CBB607B681B685B6823F03F01D5
:104F78007B681B68BA680A435A607B681B681B6AAF
:104F880023F03F017B685B686A4A934202D8BB689A
:104F9800013309E0BB684FF4967202FB03F3694AD8
:104FA800A2FB03239B0901337A6812680B4313623F
:104FB8007B681B68DB6923F44F4222F0FF027B68A1
:104FC8005B685C498B4219D8FB68591E7B685B6833
:104FD8005B00B1FBF3F3591C40F6FC730B40002B4C
:104FE8000AD0FB68591E7B685B685B00B1FBF3F372
:104FF8000133C3F30B0351E004234FE07B689B6844
:10500800002B11D1FB68581E7B6859680B465B0062
:105018000B44B0FBF3F30133C3F30B03002B0CBFBA
:1050280001230023DBB212E0FB68581E7B68596835
:105038000B469B000B4499000B44B0FBF3F3013380
:10504800C3F30B03002B0CBF01230023DBB2002B9F
:1050580001D0012322E07B689B68002B0ED1FB68FE
:10506800581E7B6859680B465B000B44B0FBF3F392
:105078000133C3F30B0343F400430FE0FB68581EEE
:105088007B6859680B469B000B4499000B44B0FBA6
:10509800F3F30133C3F30B0343F44043796809681E
:1050A8001343CB617B681B681B6823F0C0017B68D6
:1050B800DA697B681B6A1A437B681B680A431A60B3
:1050C8007B681B689B6823F4034323F0FF037A681B
:1050D80011697A68D26811437A6812680B43936041
:1050E8007B681B68DB6823F0FF017B685A697B6873
:1050F8009B691A437B681B680A43DA607B681B68F4
:105108001A687B681B6842F001021A607B680022FB
:105118001A647B68202283F83D207B6800221A638A
:105128007B68002283F83E20002318461037BD46CE
:1051380080BD00BFA08601007F841E00FF083D00DF
:1051480083DE1B43D34D621080B588B002AFF86090
:10515800084611461A4603467B810B463B81134697
:10516800FB80FFF7B5FB7861FB6893F83D30DBB255
:10517800202B40F0D9807B690093192301226D49C7
:10518800F86800F0ADFD0346002B01D00223CCE007
:10519800FB6893F83C30012B01D10223C5E0FB6882
:1051A800012283F83C20FB681B681B6803F001039D
:1051B800012B07D0FB681B681A68FB681B6842F064
:1051C80001021A60FB681B681A68FB681B6822F4F6
:1051D80000621A60FB68212283F83D20FB684022A8
:1051E80083F83E20FB6800221A64FB683A6A5A6218
:1051F800FB68BA8C5A85FB685B8D9AB2FB681A8586
:10520800FB684D4ADA62F8883A8979897B690193A3
:10521800BB6A00930346F86800F0E4FB0346002BE2
:1052280052D0012381E07A69B96AF86800F02EFE4D
:105238000346002B0DD0FB681B6C042B07D1FB68C1
:105248001B681A68FB681B6842F400721A60012325
:105258006BE0FB685B6A1A78FB681B681A61FB687D
:105268005B6A5A1CFB685A62FB681B8D013B9AB249
:10527800FB681A85FB685B8D9BB2013B9AB2FB68A1
:105288005A85FB681B685B6903F00403042B1BD178
:10529800FB681B8D002B17D0FB685B6A1A78FB68CC
:1052A8001B681A61FB685B6A5A1CFB685A62FB68D8
:1052B8001B8D013B9AB2FB681A85FB685B8D9BB21C
:1052C800013B9AB2FB685A85FB681B8D002BAAD15B
:1052D8007A69B96AF86800F01AFE0346002B0DD007
:1052E800FB681B6C042B07D1FB681B681A68FB68FA
:1052F8001B6842F400721A60012316E0FB681B6801
:105308001A68FB681B6842F400721A60FB68202266
:1053180083F83D20FB68002283F83E20FB680022CA
:1053280083F83C20002300E0022318461837BD46C6
:1053380080BD00BF020010000000FFFF80B58CB0E8
:1053480002AFF860084611461A4603467B810B46B1
:105358003B811346FB80FFF7BBFA7862FB6893F842
:105368003D30DBB2202B40F008827B6A0093192382
:1053780001227B49F86800F0B3FC0346002B01D0FA
:105388000223FBE1FB6893F83C30012B01D1022397
:10539800F4E1FB68012283F83C20FB681B681B686A
:1053A80003F00103012B07D0FB681B681A68FB6830
:1053B8001B6842F001021A60FB681B681A68FB68E8
:1053C8001B6822F400621A60FB68222283F83D20E1
:1053D800FB68402283F83E20FB6800221A64FB68C1
:1053E8003A6B5A62FB68BA8E5A85FB685B8D9AB233
:1053F800FB681A85FB685B4ADA62F8883A8979891A
:105408007B6A0193BB6B00930346F86800F080FB4E
:105418000346002B01D00123B0E1FB681B8D002B54
:1054280013D100233B62FB681B685B693B62FB6826
:105438001B689B693B623B6AFB681B681A68FB68D0
:105448001B6842F400721A6084E1FB681B8D012B13
:105458001BD1FB681B681A68FB681B6822F4806212
:105468001A600023FB61FB681B685B69FB61FB68D2
:105478001B689B69FB61FB69FB681B681A68FB6812
:105488001B6842F400721A6064E1FB681B8D022BF2
:105498001BD1FB681B681A68FB681B6822F48062D2
:1054A8001A60FB681B681A68FB681B6842F4006294
:1054B8001A600023BB61FB681B685B69BB61FB6802
:1054C8001B689B69BB61BB6944E100237B61FB6886
:1054D8001B685B697B61FB681B689B697B617B69F7
:1054E80038E1FB681B8D032B00F2F180FB681B8DF4
:1054F800012B23D17A6AB96BF86800F049FD03469D
:10550800002B01D0012339E1FB681B681A69FB688D
:105518005B6AD2B21A70FB685B6A5A1CFB685A62F3
:10552800FB681B8D013B9AB2FB681A85FB685B8D93
:105538009BB2013B9AB2FB685A850BE1FB681B8D55
:10554800022B4ED17B6A0093BB6B00220649F86898
:1055580000F0C6FB0346002B08D001230EE100BF74
:10556800020010000000FFFF04000100FB681B6838
:105578001A68FB681B6842F400721A60FB681B68B3
:105588001A69FB685B6AD2B21A70FB685B6A5A1CBC
:10559800FB685A62FB681B8D013B9AB2FB681A854F
:1055A800FB685B8D9BB2013B9AB2FB685A85FB682E
:1055B8001B681A69FB685B6AD2B21A70FB685B6A7F
:1055C8005A1CFB685A62FB681B8D013B9AB2FB6848
:1055D8001A85FB685B8D9BB2013B9AB2FB685A85C2
:1055E800B8E07B6A0093BB6B00226649F86800F05C
:1055F80077FB0346002B01D00123BFE0FB681B6843
:105608001A68FB681B6822F480621A60FB681B68D2
:105618001A69FB685B6AD2B21A70FB685B6A5A1C2B
:10562800FB685A62FB681B8D013B9AB2FB681A85BE
:10563800FB685B8D9BB2013B9AB2FB685A857B6A1B
:105648000093BB6B00224F49F86800F049FB034602
:10565800002B01D0012391E0FB681B681A68FB68E6
:105668001B6842F400721A60FB681B681A69FB68C1
:105678005B6AD2B21A70FB685B6A5A1CFB685A6292
:10568800FB681B8D013B9AB2FB681A85FB685B8D32
:105698009BB2013B9AB2FB685A85FB681B681A6982
:1056A800FB685B6AD2B21A70FB685B6A5A1CFB68BB
:1056B8005A62FB681B8D013B9AB2FB681A85FB682E
:1056C8005B8D9BB2013B9AB2FB685A8542E07A6ACD
:1056D800B96BF86800F05CFC0346002B01D001238D
:1056E8004CE0FB681B681A69FB685B6AD2B21A70E7
:1056F800FB685B6A5A1CFB685A62FB681B8D013B9E
:105708009AB2FB681A85FB685B8D9BB2013B9AB223
:10571800FB685A85FB681B685B6903F00403042B6C
:1057280018D1FB681B681A69FB685B6AD2B21A70E9
:10573800FB685B6A5A1CFB685A62FB681B8D013B5D
:105748009AB2FB681A85FB685B8D9BB2013B9AB2E3
:10575800FB685A85FB681B8D002B7FF4C2AEFB6883
:10576800202283F83D20FB68002283F83E20FB6856
:10577800002283F83C20002300E002231846283743
:10578800BD4680BD0400010080B58AB002AFF86054
:105798007A603B600B467B81FFF79AF8F86101233A
:1057A800BB61FB6893F83D30DBB2202B40F01181E0
:1057B800FB690093192301228849F86800F090FAE0
:1057C8000346002B01D0022304E1FB6893F83C3028
:1057D800012B01D10223FDE0FB68012283F83C2064
:1057E800FB681B681B6803F00103012B07D0FB68EB
:1057F8001B681A68FB681B6842F001021A60FB68A4
:105808001B681A68FB681B6822F400621A60FB6850
:10581800242283F83D20FB6800221A64FB68704A42
:10582800DA62FB681B681A68FB681B6842F48072BE
:105838001A60FB6900933B6800224FF00111F86879
:1058480000F04EFA0346002B0DD0FB681B681B685E
:1058580003F48073B3F5807F03D1FB684FF40072C3
:105868001A640323B6E07B89DBB21A46FB681B681F
:1058780002F0FE021A61FFF72BF8F861FB681B685B
:105888005B6903F00203022B0CBF01230023DBB288
:10589800FB75FB681B685B6903F48063B3F5806F75
:1058A8000CBF01230023DBB2BB7525E0FFF710F81E
:1058B8000246FB69D31A3A689A4202D33B68002B26
:1058C80003D1FB68A02283F83D20FB681B685B6955
:1058D80003F00203022B0CBF01230023DBB2FB758C
:1058E800FB681B685B6903F48063B3F5806F0CBFCA
:1058F80001230023DBB2BB75FB6893F83D30DBB2B4
:10590800A02B05D0FB7D002B02D1BB7D002BCDD079
:10591800FB68202283F83D20FB681B685B6903F065
:105928000203022B29D1FB681B681A68FB681B68F5
:1059380042F400721A6000233B61FB681B685B69D4
:105948003B61FB681B689B693B613B69FB69009392
:10595800192301222149F86800F0C2F90346002BF7
:1059680001D0012336E0FB68202283F83D20FB6844
:10597800002283F83C2000232CE0FB681B681A688F
:10598800FB681B6842F400721A60FB681B686FF4BE
:1059980080625A61FB690093192301220F49F86854
:1059A80000F09EF90346002B01D0012312E0BB69E9
:1059B8000133BB61BA697B689A42FFF432AFFB6876
:1059C800202283F83D20FB68002283F83C20012335
:1059D80000E0022318462037BD4680BD02001000B3
:1059E8000000FFFF80B588B002AFF8600846114696
:1059F8001A4603467B810B463B811346FB80FB68B6
:105A08001B681A68FB681B6842F480721A607B6A1C
:105A180000933B6A00224FF00111F86800F060F92A
:105A28000346002B0DD0FB681B681B6803F48073CA
:105A3800B3F5807F03D1FB684FF400721A64032327
:105A48005FE07B89DBB21A46FB681B6802F0FE0246
:105A58001A617B6A3A6A2D49F86800F098F903469A
:105A6800002B01D001234CE000237B61FB681B68FD
:105A78005B697B61FB681B689B697B617B697A6AF0
:105A8800396AF86800F002FA0346002B0DD0FB686B
:105A98001B6C042B07D1FB681B681A68FB681B6822
:105AA80042F400721A6001232BE0FB88012B05D118
:105AB8003B89DAB2FB681B681A6121E03B891B0A43
:105AC8009BB2DAB2FB681B681A617A6A396AF868AD
